:020000040800F2
:10000000E0A100209D01000805AC0008B98E0008A1
:1000100021A8000869110008E5320108000000006D
:10002000000000000000000000000000510C01086A
:10003000454600080000000021AF0008850C0108BB
:10004000B7010008B7010008B7010008B7010008B0
:10005000B7010008B7010008B7010008B7010008A0
:10006000B7010008B701000869460008B701000899
:10007000C9330008B7010008B7010008B70100083C
:10008000B7010008B7010008B7010008B701000870
:100090006D110008B7010008B70100087546000897
:1000A000B7010008B7010008B7010008B701000850
:1000B000B7010008910D0108A50D0108B70100085E
:1000C000B7010008B7010008B7010008B701000830
:1000D000B70100088D300108B70100089D30010804
:1000E000B7010008B7010008B7010008B701000810
:1000F000B7010008B7010008B7010008B701000800
:10010000B7010008B7010008B90D0108B7010008E0
:10011000B7010008B7010008CD0D0108E10D010885
:10012000D9330008AD440008BD440008CD440008A0
:10013000B7010008B7010008B7010008B7010008BF
:100140007D110008B7010008B7010008B7010008D9
:10015000B7010008DD440008ED440008C93101087A
:10016000B7010008B7010008B7010008B70100088F
:10017000B7010008B7010008B7010008000000003F
:10018000B7010008B7010008DFF80CD000F09AFBB7
:1001900000480047794E0108E0A10020064880474A
:1001A00006480047FEE7FEE7FEE7FEE7FEE7FEE75C
:1001B000FEE7FEE7FEE7FEE77D0D01088901000886
:1001C0002DE9F05F0546002092469B46884606468C
:1001D000814640241BE0284641464746224600F01F
:1001E00051FA53465A46C01A914110D31146184647
:1001F000224600F038FA2D1A67EB01084F462246D6
:100200000120002100F02FFA17EB00094E41201EBB
:10021000A4F10104DFDC484631462A464346BDE8E6
:10022000F09F40EA01039B0703D009E008C9121FB1
:1002300008C0042AFAD203E011F8013B00F8013BA0
:10024000521EF9D27047D2B201E000F8012B491ECC
:10025000FBD270470022F6E710B513460A46044663
:100260001946FFF7F0FF204610BD2DE9FE4F8046EE
:1002700081EA0300C00F0C46009021F0004123F0FA
:100280000045B8EB0200A94105D240462146904600
:100290001C460B46024623F00040104347D0270D72
:1002A000C7F30A00C3F30A510290401A0190402894
:1002B0006BDAC3F3130040F4801B0098924620B120
:1002C0000023D2EB030A63EB0B0B01985946C0F1F4
:1002D0004002504600F0C7F906460D4650465946C2
:1002E000019A00F0DFF910EB08006141002487EA71
:1002F000115284EAE7731A4340D0009A62B3019A1C
:10030000012A4FEA075215DC001B61EB02014FF096
:10031000004202EA0752CDE90042001C41F580117B
:1003200032462B4600F016FA03B0BDE8F08F404687
:100330002146F9E7001B61EB0201001C41F5801327
:1003400000185B412018A2F5001747EB030140EAB3
:10035000D570B6196D4111E06D084FEA360645EAD1
:10036000C0754FEA0752001B61EB0201001C41F50A
:10037000801149084FEA30000019514132462B469E
:1003800003B0BDE8F04F00F0D6B90098012240005C
:100390000023D0EB020263EBE073009821464FEAA2
:1003A000E074B8EB000061EB0401E9E783F000437F
:1003B0005BE781F0004158E72DE9FE4F81EA030435
:1003C00004F0004421F0004100944FF0000B23F0B2
:1003D000004350EA01045ED052EA03045BD0C3F349
:1003E0000A54C1F30A552C44A4F2F3340194A0FB3F
:1003F0000254C1F3130141F48011C3F3130343F416
:10040000801301FB024400FB034E840A970A44EA6E
:10041000815447EA8357A4FB076802958D0A05FBC0
:1004200007854FEA932C04FB0C542705029D4FEAE5
:10043000065847EA1637B5EB08056EEB070C870E32
:10044000920E47EA811742EA8312A7FB0201B6EB3C
:100450000B0164EB00042B0D43EA0C335E1844EBF4
:100460001C50DA465146E7FB0201C5F313044FEA7C
:100470000B3343EA14534FEA0432019C43EA060368
:10048000A4F10C040294009CCDE900B400F062F9E0
:1004900003B0BDE8F08F00200146F9E72DE9F04DEB
:1004A00081EA030404F0004B21F0004514464FF0AC
:1004B000000A23F0004150EA050220D054EA01026C
:1004C0001DD0C5F30A570246C5F31303C1F3130049
:1004D000C1F30A5640F4801543F48013A7EB0608D5
:1004E000101BD64608F2FD3873EB050002D308F165
:1004F000010801E092185B41B8F1000F03DA002017
:100500000146BDE8F08D00204FF480110646844678
:100510000EE0171B73EB050705D3121B63EB0503F6
:1005200006434CEA010C49084FEA300092185B413F
:1005300050EA0107EDD152EA030012D082EA04002A
:1005400083EA0501084305D0101BAB4106D2012206
:10055000002306E000224FF0004302E06FF00102AA
:1005600053101AEB06004CEB085110EB0A0041EB5C
:100570000B01BDE8F04D00F0DEB830B5041E71F19E
:10058000000404DB4FF00044404264EB0101141E00
:1005900073F1000405DB1C464FF00043524263EB4D
:1005A0000403801A994101D3012030BD002030BDE1
:1005B00030B5041E71F1000404DB4FF000444042EA
:1005C00064EB0101141E73F1000405DB1C464FF0BF
:1005D0000043524263EB0403801A994101D2012087
:1005E00030BD002030BD0EB5C10F80EAE070084478
:1005F000CA07002140F233438DE80E000A460B463D
:1006000000F0A8F803B000BD00F0004230F0004058
:100610000AD0C10D01F56071C0F3160042EA015124
:10062000C20840071143704700200146704701F09F
:10063000004330B421F0004150EA010206D00A0D17
:10064000A2F56072C1F31301002A02DC30BC002065
:100650007047440F44EAC104C100E01830BC00EB0D
:10066000C25000F031B8202A04DB203A00FA02F12F
:10067000002070479140C2F1200320FA03F3194390
:1006800090407047202A04DB203A21FA02F0002132
:10069000704721FA02F3D040C2F120029140084392
:1006A00019467047202A06DBCB17203A41FA02F0A0
:1006B00043EAE07306E041FA02F3D040C2F12002BF
:1006C00091400843194670470029A8BF7047401C55
:1006D000490008BF20F00100704710B4B0FA80FC58
:1006E00000FA0CF050EA010404BF10BC704749B195
:1006F000CCF1200421FA04F411FA0CF118BF012105
:1007000021430843A3EB0C01CB1D4FEA00614FEAE4
:10071000102042BF002010BC704700EBC3501044B3
:100720000029A4BF10BC7047401C490008BF20F03E
:10073000010010BC704710B5141E73F1000408DAF4
:10074000401C41F1000192185B411A4301D120F095
:10075000010010BD2DE9F04D92469B4611B1B1FA52
:1007600081F202E0B0FA80F220329046FFF77BFF80
:1007700004460F4640EA0A0041EA0B0153465A4636
:10078000084313D0114653EA010019D0C8F14002C2
:100790005046FFF777FF05460E46504659464246FB
:1007A000FFF761FF084305D0012004E020463946E9
:1007B000BDE8F08D0020054346EAE0762C43374340
:1007C0000A986305E40AA0EB08000022FD0A44EA47
:1007D00047540A3002D500200146E9E70105101907
:1007E0006941DDE9084500196941BDE8F04DA2E71E
:1007F0002DE9F04D00231A461B1A8A4103DB002025
:100800000146BDE8F08DC1F30A52C1F3130141F472
:1008100080154FF0000BD10702D100186D41521E18
:100820000027044640F2FF11384601EB620A3E46BB
:100830008046024600204FF48011FFF723FFC219C3
:100840007141BB1846EB0100B4EB030C75EB000CD7
:1008500004D3E41A65EB000517460E46241908F187
:1008600001006D4180463428E3DDF91946EB0600AE
:10087000091BA84103D24FF0FF32134601E00022CA
:1008800013461BEB070046EB0A51BDE8F04DFFF79E
:1008900052BF000030B5041E71F1000404DB4FF0BC
:1008A0000044404264EB0101141E73F1000405DBB7
:1008B0001C464FF00043524263EB04038B4208BFD7
:1008C000824230BD064C074D06E0E06840F001036F
:1008D00094E8070098471034AC42F6D3FFF758FC71
:1008E000E48E0108048F01080EB540F233410291F5
:1008F0000021CDE900110A460B46FFF72BFF03B09C
:1009000000BD70B5C1F30A5201F000450024C1F3E7
:10091000130140F2FF3341F480119A4201DA0020C2
:1009200070BD40F233439A42A2F2334203DC52429A
:10093000FFF7A8FE00E090402C43F1D0404270BD8C
:1009400070B58C1810F8015B15F0070301D110F891
:10095000013B2A1106D110F8012B03E010F8016BBE
:1009600001F8016B5B1EF9D12B0705D40023521E41
:100970000DD401F8013BFAE710F8013BCB1A921CA9
:1009800003E013F8015B01F8015B521EF9D5A142A7
:10099000D8D3002070BD000082B001900091019971
:1009A0004FF07E50086001990020486001998860EE
:1009B0000199C86002B0704780B584B003908DED96
:1009C000020A019100920398019991ED002A91ED9C
:1009D000011A91ED020AB1EE400AF1EE420A9FEDD2
:1009E0000C2A31EE021A009991ED002AD1ED012A6C
:1009F00091ED023AF1EE431AB1EE422A9FED054A1B
:100A0000B0EE443AF0EE443A09F014F904B080BD77
:100A1000A69B443B0000000081B000208DF803003D
:100A2000FFE79DF80300032870DCFFE79DF8031043
:100A300040F2A010C2F2000000EB810292ED3D0AEC
:100A400001EB810100EB810090ED031A30EE410AC9
:100A50009FED2F1AB4EE410AF1EE10FA1BDDFFE70D
:100A60009DF8031040F2A010C2F2000000EB8101DB
:100A700091ED3D0A9FED271A30EE010A81ED3D0A06
:100A80009DF8031000EB810090ED390AB1EE400AA9
:100A900080ED390AFFE79DF8031040F2A010C2F282
:100AA000000000EB810292ED3D0A01EB810100EBB9
:100AB000810090ED031A30EE410A9FED171AB4EE53
:100AC000410AF1EE10FA1BDAFFE79DF8031040F23D
:100AD000A010C2F2000000EB810191ED3D0A9FEDF4
:100AE0000F1A30EE010A81ED3D0A9DF8031000EB6C
:100AF000810090ED390AB1EE400A80ED390AFFE736
:100B00009DF8030001308DF803008AE701B07047BB
:100B10000000B442000034C30000B4C200003443FB
:100B200080B584B00390072014F022FAFFE700F0AC
:100B30007DF920B1FFE7642014F01AFAF7E740F6D8
:100B40007C22C2F2000202F11400111D0291103247
:100B500000F0A2F941F24830C2F2000048F6042247
:100B6000C0F6010200219FED250ADFED250A0AF0FB
:100B7000A7F9029940F24830C2F20000FFF70CFFDB
:100B800040F6C470C2F200001021C16106F0D0FA34
:100B900018B1FFE703F0BEFDFFE740F26800C2F2C4
:100BA000000040F64741C2F2000108220FF050FE5B
:100BB00041F24631C2F2000101200870FFE740F621
:100BC0007C20C2F2000000F11401021D40F2483006
:100BD000C2F2000001909FED0B0AFFF7EDFE0198B5
:100BE00040F23031C2F200010A1D01F1080313F096
:100BF00015FE012014F0BCF9E1E700BF00A08C4510
:100C0000008089456F12833A80B50020C4F202004B
:100C10001021012205F01AFC80BD000080B50020E3
:100C2000C4F202001021002205F010FC80BD00007B
:100C30007047000080B540F20040C4F2020001227B
:100C4000114605F003FC80BD80B540F20040C4F2BF
:100C500002000121002205F0F9FB80BD85B004905F
:100C60000391029204990878497840EA0120ADF88E
:100C70000600BDF9060000EE100AB8EEC00A40F208
:100C80001400C2F2000090ED001A20EE010A039950
:100C900081ED000A049A9178D27841EA0221ADF8F8
:100CA0000610BDF9061000EE101AB8EEC00A90ED5D
:100CB000001A20EE010A039981ED010A049A1179C4
:100CC000527941EA0221ADF80610BDF9061000EE96
:100CD000101AB8EEC00A90ED001A20EE010A03982F
:100CE00080ED020A04988179C279007A000440EA12
:100CF0000220084400909DED000AB8EE400A9FEDE6
:100D0000041A20EE010A029880ED000A05B070472F
:100D100000401C427047000080B582B0ADF806006C
:100D2000BDF8060014F024F902B080BD80B582B091
:100D3000ADF80600BDF8060013F0E4FB02B080BD7C
:100D400084B003900291019203990878497840EAAF
:100D50000120ADF80200BDF9020000EE100AB8EE65
:100D6000C00A40F21800C2F2000090ED001A20EE16
:100D7000010A029981ED000ABDF9021000EE101A75
:100D8000B8EEC00A9FED272A80EE020A9FED261AD0
:100D900020EE010A019981ED000A039A9178D27838
:100DA00041EA0221ADF80210BDF9021000EE101A5E
:100DB000B8EEC00A90ED003A20EE030A029981EDE8
:100DC000010ABDF9021000EE101AB8EEC00A80EE5A
:100DD000020A20EE010A019981ED010A039A1179B4
:100DE000527941EA0221ADF80210BDF9021000EE7D
:100DF000101AB8EEC00A90ED003A20EE030A0298ED
:100E000080ED020ABDF9020000EE100AB8EEC00A39
:100E100080EE020A20EE010A019880ED020A04B079
:100E2000704700BF000000470000FA4480B582B060
:100E300000208DF80700FFF7FBFEFFF76BFF12F0B5
:100E40007BFB38B1FFE79DF8070040F080008DF88C
:100E5000070008E012F0A8FA01469DF807000843D1
:100E60008DF80700FFE712F0E5FD38B1FFE79DF8C8
:100E7000070040F040008DF8070008E012F036FD52
:100E800001469DF8070008438DF80700FFE79DF82D
:100E9000070002B080BD000080B588B007900691C1
:100EA00005920020009004900390FFF7B7FE922077
:100EB00000F006F9122003A90191062200F0CCF8F7
:100EC000FFF7A2FE9DF80C009DF80D1040EA0120EE
:100ED000ADF80A00BDF90A0000EE100AB8EEC00A2B
:100EE00040F21400C2F2000090ED001A20EE010A58
:100EF000069981ED000A9DF80E109DF80F2041EA39
:100F00000221ADF80A10BDF90A1000EE101AB8EE71
:100F1000C00A90ED001A20EE010A069981ED010A3F
:100F20009DF810109DF8112041EA0221ADF80A1039
:100F3000BDF90A1000EE101AB8EEC00A90ED001AC2
:100F400020EE010A069880ED020AFFF77DFE009868
:100F50000199082200F080F8FFF76CFE9DF80C0064
:100F60000F2844D1FFE79DF80E009DF80F1040EACE
:100F70000120ADF80A00BDF90A0000EE100AB8EE33
:100F8000C00A40F21800C2F2000090ED001A20EEF4
:100F9000010A079981ED000A9DF810109DF81120B3
:100FA00041EA0221ADF80A10BDF90A1000EE101A4C
:100FB000B8EEC00A90ED001A20EE010A079981ED03
:100FC000010A9DF812109DF8132041EA0221ADF8A4
:100FD0000A10BDF90A1000EE101AB8EEC00A90ED22
:100FE000001A20EE010A079880ED020AFFE7FFF7DA
:100FF00015FEA22000F064F8222003A9022200F0CE
:101000002BF8FFF701FE9DF80C009DF80D10C000B5
:1010100040EA5110ADF80A00BDF90A00B0F5806F42
:1010200007DBFFE7BDF80A00A0F50060ADF80A0095
:10103000FFE7BDF90A0000EE100AB8EEC00AB4EEF0
:10104000001A20EE010AB3EE071A30EE010A0598E5
:1010500080ED000A08B080BD80B584B08DF80F0027
:1010600002918DF807209DF80F0040F0800000F0FD
:1010700027F8FFE79DF8070070B1FFE7552000F063
:101080001FF8029908700298013002909DF807003D
:1010900001388DF80700EDE704B080BD80B582B05F
:1010A0008DF8070000919DF8070040F0800000F0E7
:1010B00007F8552000F004F80099087002B080BDD0
:1010C00080B582B08DF8070069464FF47A700860E9
:1010D00040F6C470C2F200000DF107010DF10602E6
:1010E000012306F06FF99DF8060002B080BD0000F4
:1010F00083B002900191029908784978C00040EAD3
:101100005110ADF80200BDF90200B0F5806F07DBA9
:10111000FFE7BDF80200A0F50060ADF80200FFE7B0
:10112000BDF9020000EE100AB8EEC00AB4EE001AD3
:1011300020EE010AB3EE071A30EE010A019880EDA5
:10114000000A03B07047000080B582B08DF8070038
:101150008DF806109DF80700FFF7B2FF9DF8060016
:10116000FFF7AEFF02B080BDFFE7FEE780B540F6B7
:101170005040C2F2000003F035FE80BD80B540F65D
:101180007840C2F2000003F02DFE80BD80B582B031
:10119000ADF8060040F6F821C2F200012E200860EA
:1011A00000208860C860022008619DF8070040F6B2
:1011B000F522C2F2000210709DF80600507040F651
:1011C0005040C2F200006B4603F086FB02B080BDC7
:1011D00080B584B0ADF80E00ADF80C10ADF80A2063
:1011E000ADF8083040F61C31C2F200012F20086033
:1011F00000208860C860082008619DF80F0040F654
:101200001232C2F2000210709DF80E0050709DF86C
:101210000D0090709DF80C00D0709DF80B001071BF
:101220009DF80A0050719DF8090090719DF8080022
:10123000D07140F65040C2F2000001AB03F04CFB0D
:1012400004B080BD40F28810C2F2000090ED000AA8
:10125000B2EE081AB4EE410AF1EE10FA07DAFFE72F
:1012600040F28811C2F200010120887315E040F2BB
:101270008810C2F2000090ED000AB3EE021AB4EE3C
:10128000410AF1EE10FA07DDFFE740F28811C2F2E1
:10129000000100208873FFE7FFE740F2A010C2F2D0
:1012A000000090F81C01E0B1FFE740F28810C2F2A4
:1012B000000090ED000AB2EE081AB4EE410AF1EE19
:1012C00010FA0EDDFFE740F28810C2F20000807BCA
:1012D00038B9FFE740F28811C2F20001012088729C
:1012E00006E040F28811C2F2000100208872FFE798
:1012F00041F22860C2F2000000891E2808DBFFE7E7
:1013000040F61030C2F200000088C92807DBFFE772
:1013100040F28811C2F2000100208872FFE740F617
:101320001031C2F2000108880130088070470000C7
:1013300070B586B0059001F0C3FDFFE740F20350A1
:10134000C2F2000003F080F901F0FAFE01F008FD9E
:1013500040F2AC50C2F2000009F0BAFE40F2583040
:10136000C2F2000003F04EFA00F00EFB40F2A010B3
:10137000C2F20000049012F023FCFFF763FFDDF8D7
:1013800010E09EED313A9EED322A9EED331A9EED2D
:10139000340ABDEEC33A13EE100ABDEEC22A12EEB5
:1013A000101ABDEEC11A11EE102ABDEEC00A10EEE1
:1013B000103A9EED350ABDEEC00A10EE10CA9EED41
:1013C000360ABDEEC00A10EE104A9EED370ABDEE99
:1013D000C00A10EE105A9EED380ABDEEC00A10EE9B
:1013E000106AEE46CEF80C60CEF80850CEF80440F5
:1013F000CEF800C001F008FF012013F0B9FD9DE711
:1014000080B584B0039002910192009340F6AC2025
:10141000C2F2000000218160C16001990161006990
:10142000092807D3FFE740F6AC21C2F200010820EB
:101430000861FFE7029840F6AC21C2F200010860A3
:101440000398009A41F60463C2F2000303F044FAE1
:1014500004B080BD80B584B00390FFE740F2CB506C
:10146000C2F2000000F2112140F2C022C2F20002DA
:1014700009F088FD012815D1FFE740F2C020C2F233
:101480000000018849BA019181788DF80B1001990B
:101490009DF80B20C31C40F65040C2F2000000F043
:1014A00005F8FFE7012013F063FDD7E780B586B0AC
:1014B000059004918DF80F200293049840F6C42102
:1014C000C2F20001086000208860C8609DF80F002B
:1014D00008610598029A01AB03F0FEF906B080BDE1
:1014E00086B0DDF830C0DDF82CC0DDF828C0DDF8AE
:1014F00024C0DDF820C0DDF81CC0DDF818C0059060
:1015000004910392029300200190FFE701990020CB
:101510000229009008DCFFE704980199405C00284C
:1015200018BF01200090FFE70098C00758B1FFE7FF
:101530000498019A805C0599891A8870FFE70198E0
:1015400001300190E2E70599D1F80320D1F8073086
:10155000D1F80B0042F03802C1F80730C1F803207F
:10156000C1F80B00DDF80CC00599D1F80320D1F8C3
:101570000730D1F80B006CF30202C1F80730C1F854
:101580000320C1F80B00DDF808C00599D1F803204D
:10159000D1F80730D1F80B000CF00F0C22F4707268
:1015A00042EA8C12C1F80730C1F80320C1F80B00E1
:1015B000DDF818C00599D1F80320D1F80730D1F82B
:1015C0000B000CF00F0C22F4705242EA8C22C1F88E
:1015D0000730C1F80320C1F80B00DDF824C00599DD
:1015E000D1F80330D1F80720D1F80B006CF30902D1
:1015F000C1F80330C1F80720C1F80B00DDF828C09E
:101600000599D1F80330D1F80720D1F80B006FF31A
:10161000DF2C6FF3942242EA8C22C1F80330C1F828
:101620000720C1F80B00DDF82CC00599D1F8033074
:10163000D1F80720D1F80B006FF35F5242EA4C5209
:10164000C1F80330C1F80720C1F80B00DDF81CC059
:101650000599D1F80320D1F80730D1F80B006FF3CA
:101660005F2C6FF3963242EA8C32C1F80730C1F832
:101670000320C1F80B00DDF820C00599D1F8032044
:10168000D1F80730D1F80B006FF3DF5242EACC52A9
:10169000C1F80730C1F80320C1F80B000020019009
:1016A000FFE70198089988420ED2FFE70C9800786E
:1016B0000599019A1144C8730C9801300C90FFE70A
:1016C000019801300190ECE706B070472DE9F04732
:1016D000B6B0DDF81491DDF81081439F429E419D24
:1016E000409CDDF8FCE0DDF8F8C0CDF8A490CDF822
:1016F000A0802797269625952494CDF88CE0CDF8E8
:1017000088C0219320921F911E902AA807901EA99D
:101710002D220892FEF785FD0799089A4FF6FF7073
:10172000ADF83E0011A8FEF77CFD0DA81090A52095
:101730008DF834003320ADF8350040F6F010C2F2D9
:10174000000000788DF8370010980421FF2203F084
:1017500037F88DF8380040F20130ADF839004FF419
:101760008870ADF82C0041F65E50C2F2000000789F
:10177000012808D1FFE70120ADF82E0040F201104A
:10178000ADF8300076E041F65E50C2F2000000781D
:10179000652808D1FFE76520ADF82E0040F26510FE
:1017A000ADF8300065E041F65E50C2F2000000780E
:1017B000032808D1FFE70320ADF82E0040F2031004
:1017C000ADF8300054E041F65E50C2F200000078FF
:1017D000672808D1FFE76720ADF82E0040F26710B8
:1017E000ADF8300043E041F65E50C2F200000078F0
:1017F000042808D1FFE70420ADF82E004FF48270D2
:10180000ADF8300032E041F65E50C2F200000078E0
:10181000682808D1FFE76820ADF82E004FF4B470B7
:10182000ADF8300021E041F65E50C2F200000078D1
:10183000052808D1FFE70520ADF82E0040F205107D
:10184000ADF8300010E041F65E50C2F200000078C2
:10185000692808D1FFE76920ADF82E0040F2691031
:10186000ADF83000FFE7FFE7FFE7FFE7FFE7FFE73F
:10187000FFE7FFE70DA8019010901098BDF83E20FB
:10188000072102F069FFADF83E000BA8029010900E
:101890001098BDF83E20062102F05EFFADF83E0034
:1018A00011A8049010901098BDF83E202D210391AE
:1018B00002F052FF019B0299039A84460498ADF806
:1018C0003EC040F2703CC2F2000CCDF814C0CDF81E
:1018D00028C04FF0000CCDF818C08DF827C0109329
:1018E000DDF828C0DDF840E0DEF80030DEF803E087
:1018F000CCF803E0CCF800300A9B07330A939DF83C
:10190000273007338DF8273010910A9B1099B1F8D2
:1019100004C0A3F804C0096819600A9906310A9145
:101920009DF8271006318DF8271010900A9810990D
:10193000FEF777FC05980A992D310A919DF827103A
:101940002D318DF827100DF13E0110910A9A109952
:10195000098811800A9902310A919DF827100231F5
:101960008DF8271040F6F012C2F200021178013112
:1019700011709DF8271011F01FFB069836B0BDE8D6
:10198000F08700000000000080B5ADF5107D40F24A
:10199000A010C2F2000090F8B40040B1FFE740F29E
:1019A0000350C2F20000007A012819D1FFE740F28B
:1019B000A011C2F200018D9100208E90C1F8C400E8
:1019C000C1F8C800C1F8CC00C1F8D000C1F8D400FB
:1019D000C1F8D800C1F8DC00C1F8E00001F0E9B8B6
:1019E00040F2A010C2F2000090F8B400022813D018
:1019F000FFE740F2A010C2F2000090F8B400032804
:101A00000AD0FFE740F2A010C2F2000090F8B40044
:101A1000012840F0EC84FFE740F6F810C2F2000025
:101A200090ED030A9FEDF31A70EE410A30EE011AB1
:101A30009FEDF10A13F0B6F940F6C030C2F2000093
:101A400080ED000A40F2A010C2F2000090F8B4004D
:101A5000022840F0F181FFE740F6F810C2F20000E2
:101A600090ED031A9FEDE40A30EE410A40F648205B
:101A7000C2F2000080ED000A90ED000A9FEDDD1A31
:101A8000B4EE410AF1EE10FA0DDDFFE740F6482012
:101A9000C2F2000090ED000A9FEDD81A30EE010A64
:101AA00080ED000A1BE040F64820C2F2000090EDF5
:101AB000000A9FEDD31AB4EE410AF1EE10FA0DDAE6
:101AC000FFE740F64820C2F2000090ED000A9FEDCB
:101AD000CD1A30EE010A80ED000AFFE7FFE740F281
:101AE0003950C2F200007890B0F9010000EE100AFF
:101AF000B8EEC00A9FEDC41A8DED791A80EE010A86
:101B000010EE100AFEF780FD41EC100B8DED6E0B10
:101B100040F64820C2F200007A900068FEF774FD9B
:101B200041EC100B51EC100B9FEDB90B53EC102B4B
:101B30007D937C92FEF7B2FC41EC100B51EC100B44
:101B40009FEDB50B53EC102B7F937E92FEF734FC88
:101B500041EC100B15F064FF78989DED791A8DED2E
:101B6000700BB0F9030000EE100AB8EEC00A80EE68
:101B7000010A10EE100AFEF747FD02467A986B92B2
:101B80000A466B9942EC101B8DED6C0B0068FEF75A
:101B90003BFD7C9A7D9B41EC100B51EC100BFEF74A
:101BA0007DFC7E9A7F9B41EC100B51EC100BFEF7F5
:101BB00003FC41EC100B15F097FF9DED6C1B51ECF5
:101BC000110B53EC102BFEF7F7FB9DED6E1B9DEDFB
:101BD000700B41EC120B8DED722B51EC110B53EC91
:101BE000102BFEF7E9FB9DED720B41EC110B51EC54
:101BF000110B53EC102BFEF7D9FB41EC100B8DEDC4
:101C0000740B45F65C60C2F2000088900068FEF735
:101C1000FBFC9DED741B41EC100B51EC110B53ECD4
:101C2000102BFEF7C9FB41EC100B51EC100BFEF72B
:101C3000FEFC9DED791A0146789840F2A012C2F29E
:101C400000028C92C2F8B810B0F9010000EE100A40
:101C5000B8EEC00A80EE010A10EE100AFEF7D4FCBE
:101C600002467A9877920A46779942EC101B8DEDDE
:101C7000820B0068FEF7C8FC7C9A7D9B41EC100B40
:101C800051EC100BFEF70AFC7E9A7F9B41EC100B87
:101C900051EC100BFEF790FB41EC100B15F024FFFC
:101CA00078989DED791A8DED840BB0F9030000EE64
:101CB000100AB8EEC00A80EE010A10EE100AFEF714
:101CC000A3FC02467A987B920A467B9942EC101B51
:101CD0008DED800B0068FEF797FC7C9A7D9B41ECB4
:101CE000100B51EC100BFEF7D9FB7E9A7F9B41EC59
:101CF000100B51EC100BFEF75FFB41EC100B15F0D5
:101D00008FFE9DED801B51EC110B53EC102BFEF759
:101D100053FB9DED821B9DED840B41EC120B8DED71
:101D2000862B51EC110B53EC102BFEF745FB9DED70
:101D3000860B41EC110B51EC110B53EC102BFEF701
:101D400094FA0246889889920A46899942EC101BB7
:101D50008DED8A0B0068FEF757FC9DED8A1B41EC68
:101D6000100B51EC110B53EC102BFEF725FB41EC43
:101D7000100B51EC100BFEF75AFC01468C98C0F882
:101D8000BC1090ED2E0A90ED2F1A20EE010AB5EE50
:101D9000400AF1EE10FA0AD0FFE740F67831C2F2BD
:101DA000000146F26660C3F66670086107E040F61F
:101DB0007831C2F200014FF080400861FFE740F641
:101DC000F810C2F2000090ED030A40F6C030C2F2F3
:101DD0000000D0ED000A40F67830C2F2000008F0B2
:101DE00049FFB1EE400A40F2A010C2F2000080EDBF
:101DF000300AFBE2000034439A991EC30000B4C3CA
:101E0000000034C30000B44300FEFF4600BF00BF23
:101E1000000000000080664000000060FB210940D7
:101E200048E17A14AE47D1BFCDCCCCCCCCCC10405D
:101E3000000000000000104040F2A010C2F20000BC
:101E400090F8B400032840F08B81FFE740F6F810CB
:101E5000C2F200004A9090ED031A1FED190A30EE0D
:101E6000410A10EE100AFEF7CFFB02464A984B9249
:101E70000A464B9942EC101B8DED4C0BB0F9020059
:101E8000FEF7B1FB41EC100B1FED1B1B53EC112BAC
:101E900051EC100BFEF790FA9DED4C0B02460B46F1
:101EA00051EC100B43EC102B53EC102BFEF7DDF92B
:101EB00041EC100B51EC100BFEF7B9FB40F648213A
:101EC000C2F200015C91086045F65C60C2F200005D
:101ED0000068FEF799FB41EC100B1FED2D1B53EC36
:101EE000112B51EC100BFEF7D9FA41EC100B15F049
:101EF000FBFD51EC100B1FED320B53EC102BFEF7DA
:101F00005BFA41EC100B51EC100BFEF790FB40F22A
:101F1000A011C2F200016A91C1F8C00040F239502C
:101F2000C2F200005A90B0F9010000EE100AB8EEBB
:101F3000C00A1FED4B1A8DED5B1A80EE010A10EE00
:101F4000100AFEF761FB02465C984E920A464E99D3
:101F500042EC101B8DED520B0068FEF755FB41EC77
:101F6000100B51EC100B1FED560B53EC102B5F9325
:101F70005E92FEF793FA41EC100B51EC100B1FED43
:101F80005A0B53EC102B61936092FEF715FA41EC5B
:101F9000100B15F045FD5A989DED5B1A8DED540B15
:101FA000B0F9030000EE100AB8EEC00A80EE010A94
:101FB00010EE100AFEF728FB02465C984F920A4684
:101FC0004F9942EC101B8DED500B0068FEF71CFB87
:101FD0005E9A5F9B41EC100B51EC100BFEF75EFA22
:101FE000609A619B41EC100B51EC100BFEF7E4F989
:101FF00041EC100B15F078FD9DED501B51EC110BD1
:1020000053EC102BFEF7D8F99DED521B9DED540BB0
:1020100041EC120B8DED562B51EC110B53EC102BA8
:10202000FEF7CAF99DED560B41EC110B51EC110B6B
:1020300053EC102BFEF7BAF941EC100B51EC100BDE
:10204000FEF7F5FA9DED5B1A6A9A01465A98C2F8B6
:10205000B810B0F9010000EE100AB8EEC00A80EE28
:10206000010A10EE100AFEF7CFFA02465C98599268
:102070000A46599942EC101B8DED640B0068FEF77F
:10208000C3FA5E9A5F9B41EC100B51EC100BFEF70C
:1020900005FA609A619B41EC100B51EC100BFEF7B6
:1020A0008BF941EC100B15F01FFD5A989DED5B1A52
:1020B0008DED660BB0F9030000EE100AB8EEC00A11
:1020C00080EE010A10EE100AFEF79EFA02465C98B6
:1020D0005D920A465D9942EC101B8DED620B006823
:1020E000FEF792FA5E9A5F9B41EC100B51EC100BDD
:1020F000FEF7D4F9609A619B41EC100B51EC100B88
:10210000FEF75AF941EC100B15F08AFC9DED621BAD
:1021100051EC110B53EC102BFEF74EF99DED641BA7
:102120009DED660B41EC120B8DED682B51EC110B04
:1021300053EC102BFEF740F99DED680B41EC110BB1
:1021400051EC110B53EC102BFEF78FF841EC100BF8
:1021500051EC100BFEF76BFA6A99C1F8BC0044E130
:1021600040F2A010C2F2000090F8B400012840F044
:102170003B81FFE740F6F810C2F2000090ED031A31
:102180001FEDE30A30EE410A40F64820C2F200009B
:102190003A9080ED000A40F23950C2F200003890C7
:1021A000B0F9010000EE100AB8EEC00A1FEDEA1AFD
:1021B0008DED391A80EE010A10EE100AFEF724FAAE
:1021C00002463A982C920A462C9942EC101B8DED4F
:1021D000300B0068FEF718FA41EC100B51EC100BB5
:1021E0001FEDF50B53EC102B3D933C92FEF756F987
:1021F00041EC100B51EC100B1FEDF90B53EC102BB5
:102200003F933E92FEF7D8F841EC100B15F008FC16
:1022100038989DED391A8DED320BB0F9030000EEC0
:10222000100AB8EEC00A80EE010A10EE100AFEF79E
:10223000EBF902463A982D920A462D9942EC101B72
:102240008DED2E0B0068FEF7DFF93C9A3D9B41ECCB
:10225000100B51EC100BFEF721F93E9A3F9B41EC1D
:10226000100B51EC100BFEF7A7F841EC100B15F01A
:102270003BFC9DED2E1B51EC110B53EC102BFEF78C
:102280009BF89DED301B9DED320B41EC120B8DED5B
:10229000342B51EC110B53EC102BFEF78DF89DED08
:1022A000340B41EC110B51EC110B53EC102BFEF7DE
:1022B0007DF841EC100B51EC100BFEF7B8F99DEDD9
:1022C000391A0146389840F2A012C2F2000249922F
:1022D000C2F8BC10B0F9010000EE100AB8EEC00A56
:1022E00080EE010A10EE100AFEF78EF902463A98C7
:1022F00037920A46379942EC101B8DED420B00686D
:10230000FEF782F93C9A3D9B41EC100B51EC100B0F
:10231000FEF7C4F83E9A3F9B41EC100B51EC100BBA
:10232000FEF74AF841EC100B15F0DEFB38989DEDF6
:10233000391A8DED440BB0F9030000EE100AB8EE27
:10234000C00A80EE010A10EE100AFEF75DF902469F
:102350003A983B920A463B9942EC101B8DED400B9C
:102360000068FEF751F93C9A3D9B41EC100B51EC93
:10237000100BFEF793F83E9A3F9B41EC100B51EC8B
:10238000100BFEF719F841EC100B15F049FB9DED11
:10239000401B51EC110B53EC102BFEF70DF89DED8B
:1023A000421B9DED440B41EC120B8DED462B51EC85
:1023B000110B53EC102BFDF7FFFF9DED460B41EC8D
:1023C000110B51EC110B53EC102BFDF74EFF41ECB0
:1023D000100B51EC100BFEF72AF94999C1F8B8001F
:1023E0000020C1F8C000FFE7FFE7FFE7FFE740F28A
:1023F0003950C2F20000B0F90100FEF7F4F841ECE8
:10240000100B9FEDE51B53EC112B51EC100BFEF75D
:1024100045F841EC100B51EC100BFEF708F900EEFB
:10242000100A02F07FF910EE100AFEF7EDF841EC09
:10243000100B51EC100B9FEDDA0B53EC102BFEF749
:10244000B7F870BBFFE740F23950C2F20000B0F9B4
:102450000300FEF7C8F841EC100B9FEDCF1B53ECC7
:10246000112B51EC100BFEF719F841EC100B51EC4D
:10247000100BFEF7DCF800EE100A02F053F910EE34
:10248000100AFEF7C1F841EC100B51EC100B9FED58
:10249000C40B53EC102BFEF770F8002840F0D980E5
:1024A000FFE700208DF83F02FFE79DF83F02032879
:1024B00000F3C880FFE740F2A011C2F200012B91A7
:1024C000D1F8B8001C90D1F8BC00D1F8C01016911A
:1024D000FEF79AF80246169817920A46179942ECA8
:1024E000101B8DED1A0BFEF78FF841EC100B9FEDD2
:1024F000AE1B53EC112B51EC100BFDF75DFF41ECC3
:10250000100B51EC100B9FEDAA0B53EC102BFDF7A9
:10251000C5FF41EC100B8DED180B9DF83F1240F2FA
:102520002000C2F2000000EB81021E9250F8210050
:10253000FEF76AF89DED180B41EC110B53EC112BD3
:1025400051EC100B21912090FDF736FF9DED1A0BF9
:1025500041EC110B51EC110B53EC102BFDF785FEE8
:1025600002461C981D920A461D9942EC101B8DEDE7
:10257000240BFEF749F802461E981F920A461F993F
:1025800042EC101B8DED220B4068FEF73DF8024631
:1025900020980B46219943EC102B53EC102BFDF7A0
:1025A0000BFF9DED220B41EC110B51EC110B53EC89
:1025B000102BFDF75AFE9DED240B41EC110B14F08E
:1025C000D7FF51EC100B9FED7C0B53EC102BFDF75C
:1025D00065FF41EC100B8DED260B9DF83F122A9103
:1025E00040F20400C2F2000050F82100FEF70CF89F
:1025F0009DED260B41EC110B8DED281B51EC100BC2
:102600009FED6F0B53EC102BFDF7D6FE9DED280BC5
:1026100041EC110B51EC110B53EC102BFDF725FE87
:1026200041EC100B51EC100BFEF701F82A9A2B9994
:1026300001EB8201C1F8F4009DF83F0201308DF8F2
:102640003F0232E741F62961C2F200010120087021
:10265000DBE041F62960C2F20000007801280DD1CC
:10266000FFE741F62861C2F200013C20087041F604
:102670002961C2F2000102200870FFE741F62860DC
:10268000C2F200000078012808D0FFE741F6286177
:10269000C2F20001087801380870B5E041F62961FE
:1026A000C2F200010020087040F2A010C2F2000047
:1026B00090ED300AB5EE400AF1EE10FA29DDFFE7A1
:1026C00040F20401C2F2000191ED000A9FED3E1AB2
:1026D00030EE010A40F2A010C2F2000080ED3D0A87
:1026E00091ED010A9FED391A30EE010A80ED3E0AA4
:1026F00091ED020A9FED361A30EE010A80ED3F0A95
:1027000091ED030A9FED331A30EE010A80ED400A85
:1027100079E040F2A010C2F2000090ED300AB5EE70
:10272000400AF1EE10FA29DAFFE740F20401C2F2A2
:10273000000191ED000A9FED261A30EE010A40F2E9
:10274000A010C2F2000080ED3D0A91ED010A9FED5C
:10275000211A30EE010A80ED3E0A91ED020A9FED4A
:102760001A1A30EE010A80ED3F0A91ED030A9FED3F
:10277000171A30EE010A80ED400A43E040F2A01043
:10278000C2F2000090ED300AB5EE400AF1EE10FA08
:1027900037D121E000BF00BF00000000C0FFDF40D4
:1027A0009A9999999999A93F213A7F669EA0F63FF7
:1027B000000000000000004097D17E5AFB21094034
:1027C0000000000000806640000007C3000034C223
:1027D000000034420000074340F20400C2F200004F
:1027E000026840F2A011C2F20001C1F8F420426870
:1027F000C1F8F8208268C1F8FC20C068C1F8000167
:10280000FFE7FFE7FFE7FFE7FFE740F2A010C2F2B4
:102810000000159090ED3D0A40F2B040C2F2000079
:1028200090ED031A9FEDE82A8DED142A71EE420A0D
:1028300031EE021A12F0B6FA9DED142A159880EDC9
:102840003D0A90ED3E0A40F29850C2F2000090ED31
:10285000031A71EE420A31EE021A12F0A3FA9DED4C
:10286000142A159880ED3E0A90ED3F0A40F2705010
:10287000C2F2000090ED031A71EE420A31EE021A24
:1028800012F090FA9DED142A159880ED3F0A90ED14
:10289000400A40F28840C2F2000090ED031A71EE47
:1028A000420A31EE021A12F07DFA159880ED400AC4
:1028B00040F28810C2F200000089C00728BBFFE781
:1028C00040F28810C2F20000807A01281DD1FFE793
:1028D00040F2A010C2F2000090ED2E0A30EE000A85
:1028E00080ED2E0A90ED2F0A30EE000A80ED2F0ABF
:1028F00090ED300A30EE000A80ED300A40F2881187
:10290000C2F200010120C87206E040F28811C2F252
:1029100000010020C872FFE700208DF83E02FFE7AB
:102920009DF83E02032800F3B880FFE740F2A011B3
:10293000C2F20001D1F8B8000890D1F8BC00D1F87B
:10294000C0100291FDF760FE0246029803920A460B
:10295000039942EC101B8DED060BFDF755FE41EC83
:10296000100B9FED951B53EC112B51EC100BFDF749
:1029700023FD41EC100B51EC100B9FED910B53EC30
:10298000102BFDF78BFD41EC100B8DED040B9DF82A
:102990003E1240F22000C2F2000000EB81020A92D7
:1029A00050F82100FDF730FE9DED040B41EC110BBA
:1029B00053EC112B51EC100B0D910C90FDF7FCFC1E
:1029C0009DED060B41EC110B51EC110B53EC102B50
:1029D000FDF74BFC0246089809920A46099942EC19
:1029E000101B8DED100BFDF70FFE02460A980B929F
:1029F0000A460B9942EC101B8DED0E0B4068FDF75B
:102A000003FE02460C980B460D9943EC102B53EC39
:102A1000102BFDF7D1FC9DED0E0B41EC110B51EC91
:102A2000110B53EC102BFDF720FC41EC100B53EC79
:102A3000102B10461946FDF7BFFC9DED100B41EC25
:102A4000110B8DED121B53EC102B10461946FDF7A0
:102A5000B3FC9DED120B41EC110B51EC110B53EC3F
:102A6000102BFDF702FC41EC100B51EC100BFDF7A5
:102A7000DEFD00EE100A15F0D8F89DF83E1241F682
:102A80001860C2F2000000EB810080ED000A9DF8A2
:102A90003E0201308DF83E0242E741F61861C2F273
:102AA000000191ED000AB1EE400A40F2A010C2F21E
:102AB000000080ED390A4A68C0F8E8208A68C0F84A
:102AC000EC2091ED030AB1EE400A80ED3C0A41F69C
:102AD0002960C2F20000007802280ED1FFE740F220
:102AE000A011C2F200010020C1F8E400C1F8E80022
:102AF000C1F8EC00C1F8F000FFE7FDF78DFF40F2F0
:102B0000B040C2F2000090ED030A40F2A010C2F201
:102B100000000190D0ED3D0A41F2DC40C2F200001D
:102B200008F0A8F8019880ED410A40F29851C2F2ED
:102B3000000191ED030AD0ED3E0A41F6C440C2F215
:102B4000000008F097F8019880ED420A40F27051B9
:102B5000C2F2000191ED030AD0ED3F0A41F6EC30DC
:102B6000C2F2000008F086F8019880ED430A40F2B6
:102B70008841C2F2000191ED030AD0ED400A41F212
:102B80000440C2F2000008F075F8019880ED440A94
:102B900000F01CF8019840F2F241C2F200010A78FC
:102BA00040F2F143C2F200031A7090F8B4000870CA
:102BB000FFE70DF5107D80BD213A7F669EA0F63FB0
:102BC00000000000000000400000344380B582B0E7
:102BD00040F2B040C2F20000B0F9020000EE100A6C
:102BE000B8EEC00A40F2A010C2F200000190D0ED91
:102BF000410A41F22450C2F2000008F03BF801986B
:102C000080ED310A40F29851C2F20001B1F9021090
:102C100000EE101AB8EEC00AD0ED420A41F60C5090
:102C2000C2F2000008F026F8019880ED320A40F266
:102C30007051C2F20001B1F9021000EE101AB8EEA4
:102C4000C00AD0ED430A41F63440C2F2000008F059
:102C500011F8019880ED330A40F28841C2F2000178
:102C6000B1F9021000EE101AB8EEC00AD0ED440A15
:102C700041F24C40C2F2000007F0FCFF019880EDE9
:102C8000340A40F29C41C2F20001B1F9021000EE98
:102C9000101AB8EEC00A40F23401C2F200010091ED
:102CA00091ED001A80EE010AD0ED390A41F294400C
:102CB000C2F2000007F0DEFF0099019880ED350AAE
:102CC00040F28452C2F20002B2F9022000EE102A51
:102CD000B8EEC00A91ED001A80EE010AD0ED3A0A72
:102CE00041F67C40C2F2000007F0C4FF0099019851
:102CF00080ED360A40F25C52C2F20002B2F90220C4
:102D000000EE102AB8EEC00A91ED001A80EE010A1A
:102D1000D0ED3B0A41F6A430C2F2000007F0AAFF52
:102D20000099019880ED370A40F27442C2F2000225
:102D3000B2F9022000EE102AB8EEC00A91ED001A96
:102D400080EE010AD0ED3C0A41F2BC30C2F2000034
:102D500007F090FF019880ED380A02B080BD0000B6
:102D600080B540F29C41C2F2000108684A688B6855
:102D7000D1F80CC0D1F810E040F2A011C2F200016D
:102D8000C1F860E0C1F85CC08B654A65086540F237
:102D9000845EC2F2000EDEF80000DEF80420DEF8E9
:102DA0000830DEF80CC0DEF810E0C1F874E0C1F8BD
:102DB00070C0CB668A66486640F25C5EC2F2000E66
:102DC000DEF80000DEF80420DEF80830DEF80CC083
:102DD000DEF810E0C1F888E0C1F884C0C1F88030A6
:102DE000CA67886740F2744EC2F2000EDEF8000037
:102DF000DEF80420DEF80830DEF80CC0DEF810E063
:102E0000C1F89CE0C1F898C0C1F89430C1F8902096
:102E1000C1F88C0040F2B04EC2F2000EDEF80000A5
:102E2000DEF80420DEF80830DEF80CC0DEF810E032
:102E3000C1F810E0C1F80CC08B604A60086040F235
:102E4000985EC2F2000EDEF80000DEF80420DEF824
:102E50000830DEF80CC0DEF810E0C1F824E0C1F85C
:102E600020C0CB618A61486140F2705EC2F2000E00
:102E7000DEF80000DEF80420DEF80830DEF80CC0D2
:102E8000DEF810E0C1F838E0C1F834C00B63CA6264
:102E9000886240F2884EC2F2000EDEF80000DEF8D2
:102EA0000420DEF80830DEF80CC0DEF810E0C1F8CF
:102EB0004CE0C1F848C04B640A64C86380BD0000A0
:102EC00080B58CB041F22450C2F2000040F2B00252
:102ED000C2F20002002107919FED900A8DED010AD8
:102EE000DFED8F0ACDED020A07F0EAFF9DED010A42
:102EF000DDED020A079941F60C50C2F2000040F2E3
:102F0000F802C2F2000207F0DBFF9DED010ADDEDE1
:102F1000020A079941F63440C2F2000040F2D4029E
:102F2000C2F2000207F0CCFF9DED010ADDED020ABE
:102F3000079941F24C40C2F2000040F28C02C2F20A
:102F4000000207F0BDFF079941F2DC40C2F2000029
:102F500040F2A402C2F200029FED720A8DED030A54
:102F6000DFED710ACDED040A07F0AAFF9DED030A1B
:102F7000DDED040A079941F6C440C2F2000040F2B8
:102F8000EC02C2F2000207F09BFF9DED030ADDEDAB
:102F9000040A079941F6EC30C2F2000040F2C80280
:102FA000C2F2000207F08CFF9DED030ADDED040A7A
:102FB000079941F20440C2F2000040F28002C2F2DE
:102FC000000207F07DFF079941F29440C2F2000031
:102FD00040F29802C2F200029FED540A8DED050AFC
:102FE000DFED530ACDED060A07F06AFF9DED050AF5
:102FF000DDED060A079941F67C40C2F2000040F27E
:10300000E002C2F2000207F05BFF9DED050ADDED74
:10301000060A079941F6A430C2F2000040F2BC0251
:10302000C2F2000207F04CFF9DED050ADDED060A35
:10303000079941F2BC30C2F2000040F27402C2F2C1
:10304000000207F03DFF079940F6C430C2F20000CD
:1030500040F25C02C2F20002F7EE000ACDED080A6F
:10306000B0EE600A07F02CFF0799DDED080A40F684
:103070007830C2F2000040F25002C2F20002B0EE1C
:10308000000A07F01DFF40F64830C2F200009FED35
:10309000290A8DED090ADFED280ACDED0B0A11F0A2
:1030A00053FB9DED090ADDED0B0A40F63830C2F204
:1030B000000011F049FBDDED0B0A45F66060C2F23D
:1030C00000009FED1E0A8DED0A0A11F03DFB9DEDFB
:1030D0000A0ADDED0B0A45F67060C2F2000011F03D
:1030E00033FB9DED0A0ADDED0B0A45F68060C2F266
:1030F000000011F029FB9DED0A0ADDED0B0A45F6F3
:103100009060C2F2000011F01FFB40F28811C2F281
:103110000001012088730CB080BD00BF0060EA464A
:1031200000401C46000096430000704200008046AC
:1031300000007A446F12033BCDCCCC3D6F12833A32
:1031400081B040F23950C2F20000407901380146A6
:103150000091312800F23C800099DFE801F0193934
:1031600039393931393939293939393939393921FF
:1031700039393939393939393939393939393939BF
:1031800039393931393939293939393939393921DF
:1031900040F2A011C2F20001002081F8B40018E052
:1031A00040F2A011C2F20001032081F8B40010E047
:1031B00040F2A011C2F20001022081F8B40008E040
:1031C00040F2A011C2F20001012081F8B40000E039
:1031D000FFE740F23950C2F2000040798006002833
:1031E00008D5FFE740F2A011C2F20001012081F8EA
:1031F0001C0107E040F2A011C2F20001002081F89A
:103200001C01FFE701B0704770B588B09C46964638
:103210000C4605460F980E990D9A0C9BADF81E5062
:10322000ADF81C40ADF81AE0ADF818C0ADF8163096
:10323000ADF81420ADF81210ADF8100040F6DC2106
:10324000C2F20001019100208860C8600820086176
:103250009DF81F3040F2F342C2F20002104600F81F
:10326000083F02909DF81E0050729DF81D0090725C
:103270009DF81C00D0729DF81B0010739DF81A0079
:1032800050739DF8190090739DF81800D0739DF845
:10329000170010709DF8160050709DF81500907082
:1032A0009DF81400D0709DF8130010719DF8120065
:1032B00050719DF8110090719DF81000D0714FF47D
:1032C0000070086040F67840C2F20000039041F6BA
:1032D0000863C2F2000301F0FFFA012011F048FE7A
:1032E0000199029A039840F2FF130B6041F60C63B8
:1032F000C2F2000301F0F0FA08B070BD40F20C51C8
:10330000C2F2000108680130086048680130486076
:10331000886801308860C8680130C8600869013079
:103320000861486901304861886901308861C8696D
:103330000130C861086A01300862704781B000201E
:103340008DF80300FFE79DF80300072824DCFFE762
:103350009DF8031040F20C50C2F2000050F821001A
:10336000332809D3FFE79DF8032040F23051C2F221
:1033700000010120885408E09DF8032040F23051FC
:10338000C2F2000100208854FFE7FFE79DF8030028
:1033900001308DF80300D6E740F20C50C2F2000075
:1033A000006A332807D3FFE740F23051C2F2000130
:1033B0000120087206E040F23051C2F20001002004
:1033C0000872FFE701B0704780B540F62060C2F296
:1033D000000002F099FB80BD80B5E2B040F6C470F9
:1033E000C2F20000C06C006846F25941C4F202010A
:1033F0008842C0F0F380FFE746F20440C4F20200C6
:103400000068619040F6C470C2F20000C06C0068B1
:1034100046F21001C4F20201884203D1FFE72020E6
:103420006090D6E040F6C470C2F20000C06C006844
:1034300046F21041C4F20201884203D1FFE7202086
:103440005F90C3E040F6C470C2F20000C06C006838
:1034500046F27001C4F20201884203D1FFE7202046
:103460005E90B0E040F6C470C2F20000C06C00682C
:1034700046F27041C4F20201884203D1FFE72020E6
:103480005D909DE040F6C470C2F20000C06C006820
:1034900046F22801C4F20201884204D1FFE74FF44A
:1034A00000605C9089E040F6C470C2F20000C06C1D
:1034B000006846F22841C4F20201884204D1FFE7C5
:1034C0004FF400605B9075E040F6C470C2F20000FB
:1034D000C06C006846F28801C4F20201884204D13F
:1034E000FFE74FF400605A9061E040F6C470C2F20A
:1034F0000000C06C006846F28841C4F202018842B4
:1035000004D1FFE74FF4006059904DE040F6C470DD
:10351000C2F20000C06C006846F24001C4F2020131
:10352000884204D1FFE74FF40010589039E040F68C
:10353000C470C2F20000C06C006846F24041C4F2A0
:103540000201884204D1FFE74FF40010579025E0B4
:1035500040F6C470C2F20000C06C006846F2A001E0
:10356000C4F20201884204D1FFE74FF400105690E4
:1035700011E040F6C470C2F20000C06C016846F26F
:10358000A042C4F202024FF00060914208BF4FF423
:1035900000105690FFE756985790FFE757985890BD
:1035A000FFE758985990FFE759985A90FFE75A98C3
:1035B0005B90FFE75B985C90FFE75C985D90FFE7AE
:1035C0005D985E90FFE75E985F90FFE75F98609080
:1035D000FFE76198609908405590F7E240F6C470A3
:1035E000C2F20000C06C006846F2B901C4F20201E8
:1035F0008842C0F0F380FFE746F20040C4F20200C8
:103600000068549040F6C470C2F20000C06C0068BC
:1036100046F21001C4F20201884203D1FFE72020E4
:103620005390D6E040F6C470C2F20000C06C00684F
:1036300046F21041C4F20201884203D1FFE7202084
:103640005290C3E040F6C470C2F20000C06C006843
:1036500046F27001C4F20201884203D1FFE7202044
:103660005190B0E040F6C470C2F20000C06C006837
:1036700046F27041C4F20201884203D1FFE72020E4
:1036800050909DE040F6C470C2F20000C06C00682B
:1036900046F22801C4F20201884204D1FFE74FF448
:1036A00000604F9089E040F6C470C2F20000C06C28
:1036B000006846F22841C4F20201884204D1FFE7C3
:1036C0004FF400604E9075E040F6C470C2F2000006
:1036D000C06C006846F28801C4F20201884204D13D
:1036E000FFE74FF400604D9061E040F6C470C2F215
:1036F0000000C06C006846F28841C4F202018842B2
:1037000004D1FFE74FF400604C904DE040F6C470E8
:10371000C2F20000C06C006846F24001C4F202012F
:10372000884204D1FFE74FF400104B9039E040F697
:10373000C470C2F20000C06C006846F24041C4F29E
:103740000201884204D1FFE74FF400104A9025E0BF
:1037500040F6C470C2F20000C06C006846F2A001DE
:10376000C4F20201884204D1FFE74FF400104990EF
:1037700011E040F6C470C2F20000C06C016846F26D
:10378000A042C4F202024FF00060914208BF4FF421
:1037900000104990FFE749984A90FFE74A984B90FC
:1037A000FFE74B984C90FFE74C984D90FFE74D9802
:1037B0004E90FFE74E984F90FFE74F985090FFE7ED
:1037C00050985190FFE751985290FFE752985390CC
:1037D000FFE75498539908404890F4E140F6C470CC
:1037E000C2F20000C06C006846F25901C4F2020146
:1037F0008842C0F0F380FFE746F20400C4F2020002
:103800000068479040F6C470C2F20000C06C0068C7
:1038100046F21001C4F20201884203D1FFE72020E2
:103820004690D6E040F6C470C2F20000C06C00685A
:1038300046F21041C4F20201884203D1FFE7202082
:103840004590C3E040F6C470C2F20000C06C00684E
:1038500046F27001C4F20201884203D1FFE7202042
:103860004490B0E040F6C470C2F20000C06C006842
:1038700046F27041C4F20201884203D1FFE72020E2
:1038800043909DE040F6C470C2F20000C06C006836
:1038900046F22801C4F20201884204D1FFE74FF446
:1038A0000060429089E040F6C470C2F20000C06C33
:1038B000006846F22841C4F20201884204D1FFE7C1
:1038C0004FF40060419075E040F6C470C2F2000011
:1038D000C06C006846F28801C4F20201884204D13B
:1038E000FFE74FF40060409061E040F6C470C2F220
:1038F0000000C06C006846F28841C4F202018842B0
:1039000004D1FFE74FF400603F904DE040F6C470F3
:10391000C2F20000C06C006846F24001C4F202012D
:10392000884204D1FFE74FF400103E9039E040F6A2
:10393000C470C2F20000C06C006846F24041C4F29C
:103940000201884204D1FFE74FF400103D9025E0CA
:1039500040F6C470C2F20000C06C006846F2A001DC
:10396000C4F20201884204D1FFE74FF400103C90FA
:1039700011E040F6C470C2F20000C06C016846F26B
:10398000A042C4F202024FF00060914208BF4FF41F
:1039900000103C90FFE73C983D90FFE73D983E903B
:1039A000FFE73E983F90FFE73F984090FFE7409841
:1039B0004190FFE741984290FFE742984390FFE72C
:1039C00043984490FFE744984590FFE74598469018
:1039D000FFE74798469908403B90F1E046F2000027
:1039E000C4F2020000683A9040F6C470C2F20000CF
:1039F000C06C006846F21001C4F20201884203D193
:103A0000FFE720203990D6E040F6C470C2F20000F3
:103A1000C06C006846F21041C4F20201884203D132
:103A2000FFE720203890C3E040F6C470C2F20000E7
:103A3000C06C006846F27001C4F20201884203D1F2
:103A4000FFE720203790B0E040F6C470C2F20000DB
:103A5000C06C006846F27041C4F20201884203D192
:103A6000FFE7202036909DE040F6C470C2F20000CF
:103A7000C06C006846F22801C4F20201884204D1F9
:103A8000FFE74FF40060359089E040F6C470C2F261
:103A90000000C06C006846F22841C4F2020188426E
:103AA00004D1FFE74FF40060349075E040F6C47035
:103AB000C2F20000C06C006846F28801C4F2020144
:103AC000884204D1FFE74FF40060339061E040F694
:103AD000C470C2F20000C06C006846F28841C4F2B3
:103AE0000201884204D1FFE74FF4006032904DE0BC
:103AF00040F6C470C2F20000C06C006846F240019B
:103B0000C4F20201884204D1FFE74FF40010319063
:103B100039E040F6C470C2F20000C06C006846F2A2
:103B20004041C4F20201884204D1FFE74FF4001083
:103B3000309025E040F6C470C2F20000C06C00680E
:103B400046F2A001C4F20201884204D1FFE74FF41B
:103B500000102F9011E040F6C470C2F20000C06C5B
:103B6000016846F2A042C4F202024FF000609142A6
:103B700008BF4FF400102F90FFE72F983090FFE719
:103B800030983190FFE731983290FFE732983390C8
:103B9000FFE733983490FFE734983590FFE7359886
:103BA0003690FFE736983790FFE737983890FFE771
:103BB00038983990FFE73A98399908403B90FFE7E9
:103BC0003B984890FFE748985590FFE755980028A4
:103BD00000F06984FFE740F6C470C2F20000C06CD8
:103BE000006846F25941C4F202018842C0F0EF80F9
:103BF000FFE740F6C470C2F20000C06C006846F2F5
:103C00001001C4F20201884203D1FFE720202E9068
:103C1000D6E040F6C470C2F20000C06C006846F204
:103C20001041C4F20201884203D1FFE720202D9009
:103C3000C3E040F6C470C2F20000C06C006846F2F7
:103C40007001C4F20201884203D1FFE720202C90CA
:103C5000B0E040F6C470C2F20000C06C006846F2EA
:103C60007041C4F20201884203D1FFE720202B906B
:103C70009DE040F6C470C2F20000C06C006846F2DD
:103C80002801C4F20201884204D1FFE74FF400602A
:103C90002A9089E040F6C470C2F20000C06C00684F
:103CA00046F22841C4F20201884204D1FFE74FF4F2
:103CB0000060299075E040F6C470C2F20000C06C4C
:103CC000006846F28801C4F20201884204D1FFE78D
:103CD0004FF40060289061E040F6C470C2F200002A
:103CE000C06C006846F28841C4F20201884204D1E7
:103CF000FFE74FF4006027904DE040F6C470C2F239
:103D00000000C06C006846F24001C4F20201884223
:103D100004D1FFE74FF40010269039E040F6C4705C
:103D2000C2F20000C06C006846F24041C4F20201D9
:103D3000884204D1FFE74FF40010259025E040F6BB
:103D4000C470C2F20000C06C006846F2A001C4F268
:103D50000201884204D1FFE74FF40010249011E0E3
:103D600040F6C470C2F20000C06C016846F2A04286
:103D7000C4F202024FF00060914208BF4FF40010FD
:103D80002490FFE724982590FFE725982690FFE7E9
:103D900026982790FFE727982890FFE728982990F2
:103DA000FFE729982A90FFE72A982B90FFE72B98A6
:103DB0002C90FFE72C982D90FFE72D982E90FFE791
:103DC0002E9846F20C41C4F202010860EDE240F682
:103DD000C470C2F20000C06C006846F2B901C4F2BF
:103DE00002018842C0F0F080FFE740F6C470C2F2E2
:103DF0000000C06C006846F21001C4F20201884263
:103E000003D1FFE720202390D6E040F6C470C2F231
:103E10000000C06C006846F21041C4F20201884202
:103E200003D1FFE720202290C3E040F6C470C2F225
:103E30000000C06C006846F27001C4F202018842C2
:103E400003D1FFE720202190B0E040F6C470C2F219
:103E50000000C06C006846F27041C4F20201884262
:103E600003D1FFE7202020909DE040F6C470C2F20D
:103E70000000C06C006846F22801C4F202018842CA
:103E800004D1FFE74FF400601F9089E040F6C47052
:103E9000C2F20000C06C006846F22841C4F2020180
:103EA000884204D1FFE74FF400601E9075E040F6B1
:103EB000C470C2F20000C06C006846F28801C4F20F
:103EC0000201884204D1FFE74FF400601D9061E0D9
:103ED00040F6C470C2F20000C06C006846F288412F
:103EE000C4F20201884204D1FFE74FF400601C9045
:103EF0004DE040F6C470C2F20000C06C006846F2AB
:103F00004001C4F20201884204D1FFE74FF40010DF
:103F10001B9039E040F6C470C2F20000C06C00682B
:103F200046F24041C4F20201884204D1FFE74FF457
:103F300000101A9025E040F6C470C2F20000C06C78
:103F4000006846F2A001C4F20201884204D1FFE7F2
:103F50004FF40010199011E040F6C470C2F2000056
:103F6000C06C016846F2A042C4F202024FF0006049
:103F7000914208BF4FF400101990FFE719981A906A
:103F8000FFE71A981B90FFE71B981C90FFE71C980F
:103F90001D90FFE71D981E90FFE71E981F90FFE7FA
:103FA0001F982090FFE720982190FFE7219822900A
:103FB000FFE722982390FFE7239846F20841C4F2D6
:103FC000020108601890EEE140F6C470C2F20000F1
:103FD000C06C006846F25901C4F202018842C0F088
:103FE000F080FFE740F6C470C2F20000C06C0068C9
:103FF00046F21001C4F20201884203D1FFE72020FB
:104000001790D6E040F6C470C2F20000C06C0068A1
:1040100046F21041C4F20201884203D1FFE720209A
:104020001690C3E040F6C470C2F20000C06C006895
:1040300046F27001C4F20201884203D1FFE720205A
:104040001590B0E040F6C470C2F20000C06C006889
:1040500046F27041C4F20201884203D1FFE72020FA
:1040600014909DE040F6C470C2F20000C06C00687D
:1040700046F22801C4F20201884204D1FFE74FF45E
:104080000060139089E040F6C470C2F20000C06C7A
:10409000006846F22841C4F20201884204D1FFE7D9
:1040A0004FF40060129075E040F6C470C2F2000058
:1040B000C06C006846F28801C4F20201884204D153
:1040C000FFE74FF40060119061E040F6C470C2F267
:1040D0000000C06C006846F28841C4F202018842C8
:1040E00004D1FFE74FF4006010904DE040F6C4703B
:1040F000C2F20000C06C006846F24001C4F2020146
:10410000884204D1FFE74FF400100F9039E040F6E9
:10411000C470C2F20000C06C006846F24041C4F2B4
:104120000201884204D1FFE74FF400100E9025E011
:1041300040F6C470C2F20000C06C006846F2A001F4
:10414000C4F20201884204D1FFE74FF400100D9041
:1041500011E040F6C470C2F20000C06C016846F283
:10416000A042C4F202024FF00060914208BF4FF437
:1041700000100D90FFE70D980E90FFE70E980F903E
:10418000FFE70F981090FFE710981190FFE7119844
:104190001290FFE712981390FFE713981490FFE72F
:1041A00014981590FFE715981690FFE7169817904A
:1041B000FFE7179846F20C01C4F2020108600C9068
:1041C000EEE040F6C470C2F20000C06C006846F237
:1041D0001001C4F20201884203D1FFE720200B90B6
:1041E000D6E040F6C470C2F20000C06C006846F22F
:1041F0001041C4F20201884203D1FFE720200A9057
:10420000C3E040F6C470C2F20000C06C006846F221
:104210007001C4F20201884203D1FFE72020099017
:10422000B0E040F6C470C2F20000C06C006846F214
:104230007041C4F20201884203D1FFE720200890B8
:104240009DE040F6C470C2F20000C06C006846F207
:104250002801C4F20201884204D1FFE74FF4006054
:10426000079089E040F6C470C2F20000C06C00689C
:1042700046F22841C4F20201884204D1FFE74FF41C
:104280000060069075E040F6C470C2F20000C06C99
:10429000006846F28801C4F20201884204D1FFE7B7
:1042A0004FF40060059061E040F6C470C2F2000077
:1042B000C06C006846F28841C4F20201884204D111
:1042C000FFE74FF4006004904DE040F6C470C2F286
:1042D0000000C06C006846F24001C4F2020188424E
:1042E00004D1FFE74FF40010039039E040F6C470AA
:1042F000C2F20000C06C006846F24041C4F2020104
:10430000884204D1FFE74FF40010029025E040F608
:10431000C470C2F20000C06C006846F2A001C4F292
:104320000201884204D1FFE74FF40010019011E030
:1043300040F6C470C2F20000C06C016846F2A042B0
:10434000C4F202024FF00060914208BF4FF4001027
:104350000190FFE701980290FFE702980390FFE7C2
:1043600003980490FFE704980590FFE705980690EE
:10437000FFE706980790FFE707980890FFE708987F
:104380000990FFE709980A90FFE70A980B90FFE76A
:104390000B9846F20801C4F2020108600C90FFE796
:1043A0000C981890FFE71898FFE740F64F40C2F2CC
:1043B000000000788007002821D5FFE740F64F4134
:1043C000C2F20001087800F0FD00087040F20040E1
:1043D000C4F202000122114602F038F840F64740CC
:1043E000C2F20000013040F67C21C2F2000114311B
:1043F00040F23C32C2F20002FCF7A2FCFFE740F6BA
:104400001A20C2F200000078800700281DD5FFE7BF
:1044100040F61A21C2F20001087800F0FD00087091
:104420000020C4F202001021012202F00FF840F631
:104430000C20C2F20000023040F67C22C2F20002E0
:10444000111D2032FCF70AFCFFE740F61920C2F2EA
:10445000000000788007002822D5FFE740F61921E8
:10446000C2F20001087800F0FD0008700020C4F2DC
:1044700002001021012201F0E9FF40F61520C2F2EE
:104480000000023040F67C21C2F2000100911031A0
:10449000FCF72EFE009890ED040A10F047FBFFE7B2
:1044A00010F020FAFFE762B080BD000080B540F652
:1044B0008060C2F2000001F027FB80BD80B540F6AD
:1044C0006050C2F2000001F01FFB80BD80B540F6D5
:1044D0000050C2F2000001F017FB80BD80B540F62D
:1044E000E060C2F2000001F00FFB80BD80B540F635
:1044F000C050C2F2000001F007FB80BD82B0019005
:104500000198007810384AF6AB21CAF6AA21A0FB20
:10451000011000090090009948F6E810C0F601006B
:10452000405C0199C8650098042807D3FFE701990A
:104530000868042262F30900886506E001990868AA
:1045400040F2FF3290438865FFE70198806D02B02A
:104550007047000086B0059000208DF81300059884
:10456000806A03900598806910BBFFE7039802906A
:1045700003281BD80299DFE801F0020D0218059804
:1045800090F82F00C00720B1FFE701208DF813003D
:10459000FFE70CE00598C06AB0F1C07F04D1FFE7E7
:1045A00001208DF81300FFE701E000E0FFE745E0A0
:1045B00005988069B0F5005F25D1FFE70398019069
:1045C00003281ED80199DFE801F00206021101203C
:1045D0008DF8130016E0059890F82F00C00720B161
:1045E000FFE701208DF81300FFE70BE00598C06A94
:1045F000B0F1C07F04D1FFE701208DF81300FFE781
:1046000000E0FFE719E003980090032804D3FFE7D8
:104610000098032804D00EE001208DF813000BE071
:10462000059890F82F00C00720B1FFE701208DF812
:104630001300FFE700E0FFE7FFE7FFE79DF8130047
:1046400006B070477047000081B00090009940F2BA
:104650003052C2F20002107A0872106852684A6042
:10466000086001B07047000080B5102001F0F6FC32
:1046700080BD000080B5202001F0F0FC80BD00006E
:1046800080B584B0039002918DF8072000208DF84A
:104690000600039804F026FC08B1FFE737E0039812
:1046A000D0F80D02B0F5FD7F01D9FFE72FE0FFE75D
:1046B0009DF806009DF80710884228DAFFE7039965
:1046C000D1F80902431C4CF21160C1F6B07053FBE3
:1046D00000F2901100EBD27040F2052200FB123084
:1046E000C1F8090202989DF80610405C0399D1F8C0
:1046F000092288540399D1F80D020130C1F80D0246
:10470000FFE79DF8060001308DF80600D0E704B001
:1047100080BD000081B0EFF3108072B60090FFE71B
:10472000FEE7000082B08DED000A9DED000AB5EEB7
:10473000400AF1EE10FA07DAFFE79DED000AB1EE4C
:10474000400A8DED010A02E000980190FFE79DED1F
:10475000010A02B07047000084B002900191ADF8E8
:104760000220029828B9FFE74FF6FF70ADF80E005F
:1047700021E0FFE70198411E0191B8B1FFE70298DF
:10478000411C029100788DF80100BDF802109DF8DF
:1047900001004840C2B248F6E420C0F6010030F8FB
:1047A000120080EA1120ADF80200E3E7BDF8020034
:1047B000ADF80E00FFE7BDF80E0004B07047000032
:1047C00083B0029001918DF80320FFE70198411E0C
:1047D000019198B1FFE79DF8030002994A1C0292EB
:1047E000097848408DF802009DF8021048F2E87000
:1047F000C0F60100405C8DF80300E7E79DF8030078
:1048000003B0704781B0009040F23030C2F2000037
:1048100090ED020A9FED192A80EE020A9FED181A08
:1048200020EE010A009981ED020A90ED010A80EE66
:10483000020A20EE010A009981ED010A90ED000ABA
:1048400080EE020A20EE010A009880ED000A40F294
:104850003C30C2F2000090ED020AB1EE400A00992D
:1048600081ED050A90ED000AB1EE400A009981ED54
:10487000040A40680099C86001B07047DB0F4940E6
:104880000000344384B002900191029890F8200017
:104890008DF803009DF80300012805D0FFE79DF87F
:1048A000030002280AD1FFE7019A029801684869CB
:1048B0001043486100208DF80F0008E00299486A13
:1048C00040F48020486201208DF80F00FFE79DF83A
:1048D0000F0004B07047000088B006900591049264
:1048E0000393069890F820008DF80700069800685A
:1048F000806800900598806808B9FFE700E0FFE74E
:104900009DF80700012806D0FFE79DF80700022860
:1049100040F08D80FFE79DF80300400700280CD48D
:10492000FFE79DF803000007002806D4FFE79DF885
:104930000300C006002871D5FFE70098C0F30160AE
:1049400002900298032809D3FFE70699486A40F4C9
:104950000000486201208DF81F0071E002990120DB
:104960008840039908600598806868B9FFE7059852
:104970000168C06840EA415006990968029A01EB53
:104980000211C1F880010EE005994A688868C9687B
:1049900040EAC200084306990968029A01EB021135
:1049A000C1F88001FFE70598006906990968029A35
:1049B00001EB0211C1F884010598007D01280CD19A
:1049C000FFE706980068029900EB0111D1F8840115
:1049D00040F48070C1F88401FFE7049840680699AC
:1049E0000968029A01EB0211C1F88C010498006871
:1049F00006990968029A01EB0211C1F8880106982C
:104A00000068029900EB0111D1F8800140F001002B
:104A1000C1F8800100208DF81F0011E00699486A56
:104A200040F40010486201208DF81F0008E006994C
:104A3000486A40F48020486201208DF81F00FFE79B
:104A40009DF81F0008B0704786B004900391049849
:104A500000680190049890F820008DF803009DF8FC
:104A60000300012806D0FFE79DF80300022840F06C
:104A7000B080FFE746F20040C4F2000001900199C7
:104A8000D1F8000240F00100C1F800020199D1F80C
:104A9000000220F47C50C1F800020398426A019998
:104AA000D1F8000240EA0220C1F8000203984069F0
:104AB00000F01F01012088400290029A0199D1F86C
:104AC0001C029043C1F81C020398C069F0B9FFE7CB
:104AD000029A0199D1F80C029043C1F80C02039A92
:104AE0009088D168526940EA0140019901EBC20106
:104AF000C1F84002039A10889168526940EA014067
:104B0000019901EBC201C1F84402FFE70398C069B3
:104B100001281ED1FFE7029A0199D1F80C02104337
:104B2000C1F80C02039A90881168526940EA01406A
:104B3000019901EBC201C1F84002039A9089916882
:104B4000526940EA0140019901EBC201C1F84402F7
:104B5000FFE70398806940B9FFE7029A0199D1F80D
:104B600004029043C1F8040207E0029A0199D1F8C7
:104B700004021043C1F80402FFE70398006940B93A
:104B8000FFE7029A0199D1F814029043C1F8140288
:104B900007E0029A0199D1F814021043C1F81402F7
:104BA000FFE70398006A012808D1FFE7029A0199FC
:104BB000D1F81C021043C1F81C02FFE70199D1F89B
:104BC000000220F00100C1F8000200208DF817005B
:104BD00008E00499486A40F48020486201208DF87A
:104BE0001700FFE79DF8170006B0704781B00090EE
:104BF00001B0704786B0049003910292019304982B
:104C000090F820008DF803009DF80300012806D0DD
:104C1000FFE79DF80300022840F0D780FFE70398E4
:104C200080B9FFE704980068C068800748B9FFE7CB
:104C30000499486A40F40010486201208DF817007A
:104C4000CCE00FE0049800680069800748B9FFE7EE
:104C50000499486A40F40010486201208DF817005A
:104C6000BCE0FFE704980068039900EB0110D0F85E
:104C7000B00100F00400029988600298806858B979
:104C8000FFE704980068039900EB0110D0F8B00129
:104C9000400D029908600AE004980068039900EB4F
:104CA0000110D0F8B001C00802994860FFE70498ED
:104CB0000068039900EB0110D0F8B00100F0020089
:104CC0000299C86004980068039900EB0110D0F8BD
:104CD000B40100F00F00029908610498006803997C
:104CE00000EB0110D0F8B40180B2000A029988618B
:104CF00004980068039900EB0110D0F8B401000C8F
:104D00000299486104980068039900EB0110D0F8FB
:104D1000B8010199087004980068039900EB01102C
:104D2000D0F8B801000A0199487004980068039906
:104D300000EB0110D0F8B801000C019988700498BC
:104D40000068039900EB0110D0F8B801000E01993A
:104D5000C87004980068039900EB0110D0F8BC01FA
:104D60000199087104980068039900EB0110D0F8CC
:104D7000BC01000A0199487104980068039900EB8E
:104D80000110D0F8BC01000C0199887104980068EA
:104D9000039900EB0110D0F8BC01000E0199C87115
:104DA000039838B9FFE704980168C86840F020000C
:104DB000C86006E004980168086940F020000861B6
:104DC000FFE700208DF8170008E00499486A40F4D6
:104DD0008020486201208DF81700FFE79DF817003A
:104DE00006B0704780B58AB00990002008900998F5
:104DF0000068406907900998006840680690099823
:104E000000688068059009980068C0680490099857
:104E100000680069039009980068806902909DF815
:104E20001C00C007002800F09480FFE79DF81400E4
:104E3000C00758B3FFE709980168012088609DF812
:104E400014008007002804D5FFE7099800F0ACFDA6
:104E50001BE09DF814004007002805D5FFE70898DF
:104E600040F4006008900FE09DF81400000700284F
:104E700005D5FFE7089840F48050089003E00998B2
:104E800000F08EFDFFE7FFE7FFE7FFE79DF8150065
:104E9000C00760B3FFE7099801684FF4807088602D
:104EA0009DF815008007002804D5FFE7099800F059
:104EB00083FD1BE09DF815004007002805D5FFE79E
:104EC000089840F4005008900FE09DF81500000786
:104ED000002805D5FFE7089840F48040089003E0DB
:104EE000099800F065FDFFE7FFE7FFE7FFE79DF8A2
:104EF0001600C00760B3FFE7099801684FF48030DF
:104F000088609DF816008007002804D5FFE70998FF
:104F100000F05AFD1BE09DF816004007002805D55B
:104F2000FFE7089840F4004008900FE09DF8160055
:104F30000007002805D5FFE7089840F48030089066
:104F400003E0099800F03CFDFFE7FFE7FFE7FFE71C
:104F5000FFE79DF81C000007002810D5FFE79DF82B
:104F60001000C006002809D5FFE7089840F400703B
:104F70000890099801681020C860FFE7FFE79DF8D6
:104F80001C00400700280FD5FFE79DF81000000720
:104F9000002808D5FFE7099801680820C86009982B
:104FA00000F0CCFAFFE7FFE79DF81C00800700281F
:104FB0000BD5FFE709980068C068800720B1FFE7BC
:104FC000099800F0BFFAFFE7FFE79DF81C004006D4
:104FD000002810D5FFE79DF80C00C006002809D571
:104FE000FFE7089840F48060089009980168102055
:104FF0000861FFE7FFE79DF81C00800600280FD539
:10500000FFE79DF80C000007002808D5FFE7099886
:10501000016808200861099800F070FCFFE7FFE7CD
:105020009DF81C00C00600280BD5FFE70998006812
:105030000069800720B1FFE7099800F063FCFFE7F3
:10504000FFE79DF81E00800700280FD5FFE79DF8B9
:105050001800C006002808D5FFE70998016810204D
:105060004860099800F052FCFFE7FFE79DF81E003A
:10507000C00778B1FFE79DF818000007002808D5A1
:10508000FFE70998016808204860099800F0A0FC33
:10509000FFE7FFE79DF81D000006002840F18D8026
:1050A000FFE79DF818004007002840F18180FFE7E6
:1050B0009DF81D00C00750B1FFE79DF80800C0072C
:1050C00028B1FFE7089840F001000890FFE79DF83D
:1050D0001D00800700280BD5FFE79DF8080080071A
:1050E000002805D5FFE7089840F002000890FFE788
:1050F0009DF81D00400700280BD5FFE79DF808002C
:105100004007002805D5FFE7089840F00400089004
:10511000FFE79DF81D000007002848D5FFE79DF830
:10512000080010F0700F42D0FFE7029800F0700006
:1051300001460191102814D0FFE70198202815D0CE
:10514000FFE70198302816D0FFE70198402817D0D4
:10515000FFE70198502818D0FFE70198602819D080
:105160001DE0089840F00800089019E0089840F009
:105170001000089014E0089840F0200008900FE01C
:10518000089840F0400008900AE0089840F080003D
:10519000089005E0089840F48070089000E0FFE770
:1051A00009980168886920F070008861FFE7FFE7CF
:1051B0000998016804204860FFE7089848B1FFE7B4
:1051C000089A0999486A104348620998FFF70EFD4A
:1051D000FFE70AB080BD000080B584B0029002985D
:1051E00020B9FFE701208DF80F00E0E0029890F869
:1051F000200020B9FFE7029800F0DEF8FFE70298F0
:105200000168086840F00100086001F037F901907A
:10521000FFE7029800684068C007A8B9FFE701F0FF
:105220002DF90199401A0B280DD3FFE70299486A1E
:1052300040F4003048620299052081F820000120E6
:105240008DF80F00B3E0E4E702980168086820F0E9
:105250000200086001F012F90190FFE7029800686F
:1052600040688007002815D5FFE701F007F901998C
:10527000401A0B280DD3FFE70299486A40F400302A
:1052800048620299052081F8200001208DF80F0066
:105290008DE0E3E70298007E012807D1FFE702983E
:1052A0000168086840F08000086006E00298016824
:1052B000086820F080000860FFE70298407E01281F
:1052C00007D1FFE702980168086840F040000860D5
:1052D00006E002980168086820F040000860FFE7D7
:1052E0000298807E012807D1FFE7029801680868CC
:1052F00040F02000086006E002980168086820F08D
:1053000020000860FFE70298C07E012807D1FFE770
:1053100002980168086820F01000086006E0029812
:105320000168086840F010000860FFE70298007FFD
:10533000012807D1FFE702980168086840F00800DB
:10534000086006E002980168086820F0080008601C
:10535000FFE70298407F012807D1FFE70298016824
:10536000086840F00400086006E0029801680868D8
:1053700020F004000860FFE7029B19685A689868EB
:10538000D3F80CC040EA0C00D3F810C040EA0C007F
:105390005B691843013A1043C861029900204862D2
:1053A000029A012182F820108DF80F00FFE79DF886
:1053B0000F0004B080BD000080B590B00F900020B9
:1053C0000E900D900C900B900A900F98006846F28A
:1053D0000041C4F20001884249D1FFE740F2FC20BD
:1053E000C2F200000168013101600068012812D199
:1053F000FFE7FFE70020099043F64000C4F20200F7
:10540000016841F000710160006800F000700990CF
:105410000998FFE7FFE7FFE70020089043F6300018
:10542000C4F20200016841F008010160006800F068
:10543000080008900898FFE703200A9002210B91CA
:10544000002103910C910D9009200E9040F6004030
:10545000C4F202000AA900F01DFE039A1420049071
:10546000052101F0E9F8049801F0DCF864E00F98F8
:10547000006846F60001C4F2000188425BD1FFE7F4
:10548000FFE70020079043F64000C4F202000168E5
:1054900041F080610160006800F08060079007982B
:1054A000FFE740F2FC20C2F2000001680131016018
:1054B0000068012812D1FFE7FFE70020069043F6BD
:1054C0004000C4F20200016841F000710160006810
:1054D00000F0007006900698FFE7FFE7FFE7002066
:1054E000059043F63000C4F20200016841F0020169
:1054F0000160006800F0020005900598FFE7602059
:105500000A9002200B90002001900C9003200D9037
:1055100009200E9040F20040C4F202000AA900F0F7
:10552000B9FD019A40200290052101F085F802980A
:1055300001F078F8FFE7FFE710B080BD81B0009080
:1055400001B0704780B58AB00990099841F6A05221
:10555000C2F2000241F69853C2F200030021FFF7A5
:1055600049FB0998006846F60001C4F20001884230
:1055700040F0E680FFE741F6A050C2F2000000686C
:10558000A0F2012001460791072800F2D780079971
:10559000DFE801F06C86A0BA041E385240F20C51CC
:1055A000C2F200010020086040F2CC21C2F20001EA
:1055B00008680130086041F6A050C2F2000000689F
:1055C000099941F69852C2F2000205F02BF9B6E0B3
:1055D00040F20C51C2F200010020486040F2CC21A0
:1055E000C2F2000148680130486041F6A050C2F2A2
:1055F00000000068099941F69852C2F2000205F0D5
:1056000011F99CE040F20C51C2F2000100208860C8
:1056100040F2CC21C2F2000188680130886041F676
:10562000A050C2F200000068099941F69852C2F2F7
:10563000000205F0F7F882E040F20C51C2F20001DE
:105640000020C86040F2CC21C2F20001C8680130DD
:10565000C86041F6A050C2F200000068099941F606
:105660009852C2F2000205F0DDF868E040F20C51F9
:10567000C2F200010020086140F2CC21C2F2000118
:1056800008690130086141F6A050C2F200000068CC
:10569000099941F69852C2F2000205F0C3F84EE0B3
:1056A00040F20C51C2F200010020486140F2CC21CE
:1056B000C2F2000148690130486141F6A050C2F2CF
:1056C00000000068099941F69852C2F2000205F004
:1056D000A9F834E040F20C51C2F2000100208861C8
:1056E00040F2CC21C2F2000188690130886141F6A4
:1056F000A050C2F200000068099941F69852C2F227
:10570000000205F08FF81AE040F20C51C2F20001DD
:105710000020C86140F2CC21C2F20001C86901300A
:10572000C86141F6A050C2F200000068099941F634
:105730009852C2F2000205F075F800E0FFE7D1E0F0
:105740000998006846F20041C4F20001884240F026
:10575000C880FFE741F6A050C2F200000068069042
:10576000102862D0FFE70698302874D0FFE706982B
:10577000B0F5837F4DD0FFE7069840F207118842CD
:1057800052D0FFE7069840F21111884262D0FFE73D
:10579000069840F20521884240F0A180FFE740F6DC
:1057A000F810C2F2000005900188018141F698517D
:1057B000C2F200010B784A7842EA032202808B7819
:1057C000CA7842EA032242800B794A7942EA0322EC
:1057D000828089798171018800EE101AB8EEC00AC2
:1057E0009FED431A80EE010A9FED421A20EE010A56
:1057F0009FED412A30EE020A80ED030AB0F9021053
:1058000000EE101AB8EEC00A20EE010A80ED040A7C
:1058100066E041F69850C2F20000008840F238116C
:10582000C2F2000108805BE05AE040F20C51C2F283
:1058300000010020086241F69851C2F20001086898
:10584000D1F8032040F23951C2F20001C1F803201F
:10585000086045E044E040F61031C2F2000100204B
:10586000088041F69850C2F2000003908278C17817
:1058700041EA0221ADF822100178407840EA012087
:10588000ADF82000BDF922004FF4FA41009148F232
:105890000032CFF6FF7201929FED130ADFED130A7B
:1058A000CDED020A0FF022FA0099019ADDED020A0D
:1058B00040F28810C2F20000049080ED010ABDF9A8
:1058C0002000B3EE0E0A0FF011FA0398049981ED4F
:1058D000000A0279407940EA0220088100E0FFE7EF
:1058E000FFE7FFE70AB080BD0000FA4300000000B8
:1058F00000F8FF450000B443000034C381B00090BD
:1059000001B0704781B0009001B0704781B0009045
:1059100001B0704780B584B00290029890F82000E2
:1059200001282FD1FFE70299022081F82000029878
:105930000168086820F00100086000F09FFD0190F8
:10594000FFE7029800684068C007A8B1FFE700F0D1
:1059500095FD0199401A0B280DD3FFE70299486A7B
:1059600040F4003048620299052081F820000120AF
:105970008DF80F000FE0E4E70299002048628DF8EF
:105980000F0008E00299486A40F4002048620120B4
:105990008DF80F00FFE79DF80F0004B080BD0000F8
:1059A00081B0009001B0704781B0009001B07047A5
:1059B00081B0009001B0704781B0009001B0704795
:1059C00081B0009001B0704781B0009001B0704785
:1059D00081B0009001B0704780B584B00290029809
:1059E000806D019000F04AFD0090029890F835001B
:1059F00002280DD0FFE7029980204865FFE7029951
:105A0000002081F83400FFE701208DF80F0055E0F9
:105A100002980168086820F0160008600298016882
:105A2000486920F0800048610298006C20B9FFE7C7
:105A30000298806C38B1FFE702980168086820F08E
:105A400008000860FFE702980168086820F001007C
:105A50000860FFE7029800680068C007C8B1FFE768
:105A600000F00CFD0099401A062811D3FFE70299B7
:105A7000202048650299032081F83500FFE702994C
:105A8000002081F83400FFE703208DF80F0015E0B7
:105A9000E0E70298C16D3F20884001998860029933
:105AA000012081F83500FFE70299002081F83400D9
:105AB000FFE7FFE700208DF80F00FFE79DF80F00DC
:105AC00004B080BD82B00090009890F835000228A4
:105AD00007D0FFE700998020486501208DF8070076
