:020000040800F2
:10000000F0E000209D01000835A2000815910008CD
:10001000519E0008650C0008B93D01080000000071
:1000200000000000000000000000000001010108C5
:10003000054900080000000051A50008350101082D
:10004000B7010008B7010008B7010008B7010008B0
:10005000B7010008B7010008B7010008B7010008A0
:10006000B7010008B701000829490008B7010008D6
:1000700039360008B7010008B7010008B7010008C9
:10008000B7010008B7010008B7010008B701000870
:10009000690C0008B7010008B701000835490008DD
:1000A000B7010008B7010008B7010008B701000850
:1000B000B70100084102010855020108B701000814
:1000C000B7010008B7010008B7010008B701000830
:1000D000B70100083D3B0108B70100084D3B01088E
:1000E000B7010008B7010008B7010008B701000810
:1000F000B7010008B7010008B7010008B701000800
:10010000B7010008B701000869020108B70100083B
:10011000B7010008B70100087D020108910201083B
:10012000493600081D4700082D4700083D470008D4
:10013000B7010008B7010008B7010008B7010008BF
:10014000790C0008B7010008B7010008B7010008E2
:10015000B70100084D4700085D470008793C0108D9
:10016000B7010008B7010008B7010008B70100088F
:10017000B7010008B7010008B7010008000000003F
:10018000B7010008B7010008DFF80CD000F0AAFBA7
:1001900000480047114F0108F0E000200648804762
:1001A00006480047FEE7FEE7FEE7FEE7FEE7FEE75C
:1001B000FEE7FEE7FEE7FEE72D02010889010008E1
:1001C0002DE9F05F0546002092469B46884606468C
:1001D000814640241BE0284641464746224600F01F
:1001E00082FA53465A46C01A914110D31146184616
:1001F000224600F069FA2D1A67EB01084F462246A5
:100200000120002100F060FA17EB00094E41201E8A
:10021000A4F10104DFDC484631462A464346BDE8E6
:10022000F09F40EA01039B0703D009E008C9121FB1
:1002300008C0042AFAD203E011F8013B00F8013BA0
:10024000521EF9D27047D2B201E000F8012B491ECC
:10025000FBD270470022F6E710B513460A46044663
:100260001946FFF7F0FF204610BD2DE9FE4F8046EE
:1002700081EA0300C00F0C46009021F0004123F0FA
:100280000045B8EB0200A94105D240462146904600
:100290001C460B46024623F00040104347D0270D72
:1002A000C7F30A00C3F30A510290401A0190402894
:1002B0006BDAC3F3130040F4801B0098924620B120
:1002C0000023D2EB030A63EB0B0B01985946C0F1F4
:1002D0004002504600F0F8F906460D465046594691
:1002E000019A00F010FA10EB08006141002487EA3F
:1002F000115284EAE7731A4340D0009A62B3019A1C
:10030000012A4FEA075215DC001B61EB02014FF096
:10031000004202EA0752CDE90042001C41F580117B
:1003200032462B4600F047FA03B0BDE8F08F404656
:100330002146F9E7001B61EB0201001C41F5801327
:1003400000185B412018A2F5001747EB030140EAB3
:10035000D570B6196D4111E06D084FEA360645EAD1
:10036000C0754FEA0752001B61EB0201001C41F50A
:10037000801149084FEA30000019514132462B469E
:1003800003B0BDE8F04F00F007BA0098012240002A
:100390000023D0EB020263EBE073009821464FEAA2
:1003A000E074B8EB000061EB0401E9E783F000437F
:1003B0005BE781F0004158E72DE9FE4F81EA030435
:1003C00004F0004421F0004100944FF0000B23F0B2
:1003D000004350EA01045ED052EA03045BD0C3F349
:1003E0000A54C1F30A552C44A4F2F3340194A0FB3F
:1003F0000254C1F3130141F48011C3F3130343F416
:10040000801301FB024400FB034E840A970A44EA6E
:10041000815447EA8357A4FB076802958D0A05FBC0
:1004200007854FEA932C04FB0C542705029D4FEAE5
:10043000065847EA1637B5EB08056EEB070C870E32
:10044000920E47EA811742EA8312A7FB0201B6EB3C
:100450000B0164EB00042B0D43EA0C335E1844EBF4
:100460001C50DA465146E7FB0201C5F313044FEA7C
:100470000B3343EA14534FEA0432019C43EA060368
:10048000A4F10C040294009CCDE900B400F093F9AF
:1004900003B0BDE8F08F00200146F9E72DE9F04DEB
:1004A00081EA030404F0004B21F0004514464FF0AC
:1004B000000A23F0004150EA050220D054EA01026C
:1004C0001DD0C5F30A570246C5F31303C1F3130049
:1004D000C1F30A5640F4801543F48013A7EB0608D5
:1004E000101BD64608F2FD3873EB050002D308F165
:1004F000010801E092185B41B8F1000F03DA002017
:100500000146BDE8F08D00204FF480110646844678
:100510000EE0171B73EB050705D3121B63EB0503F6
:1005200006434CEA010C49084FEA300092185B413F
:1005300050EA0107EDD152EA030012D082EA04002A
:1005400083EA0501084305D0101BAB4106D2012206
:10055000002306E000224FF0004302E06FF00102AA
:1005600053101AEB06004CEB085110EB0A0041EB5C
:100570000B01BDE8F04D00F00FB930B5041E71F16C
:10058000000404DB4FF00044404264EB0101141E00
:1005900073F1000405DB1C464FF00043524263EB4D
:1005A0000403801A994101D3012030BD002030BDE1
:1005B00030B5041E71F1000404DB4FF000444042EA
:1005C00064EB0101141E73F1000405DB1C464FF0BF
:1005D0000043524263EB0403101A8B4101D3012004
:1005E00030BD002030BD30B5041E71F1000404DBC5
:1005F0004FF00044404264EB0101141E73F100040B
:1006000005DB1C464FF00043524263EB0403801AA3
:10061000994101D2012030BD002030BD0EB5C10F7F
:1006200080EAE0700844CA07002140F233438DE8B5
:100630000E000A460B4600F0BEF803B000BD00F005
:10064000004230F000400AD0C10D01F56071C0F3E6
:10065000160042EA0151C2084007114370470020CA
:100660000146704701F0004330B421F0004150EAE8
:10067000010206D00A0DA2F56072C1F31301002A2F
:1006800002DC30BC00207047440F44EAC104C100C2
:10069000E01830BC00EBC25000F047B830B50B4654
:1006A000014600202022012409E021FA02F59D42A2
:1006B00005D303FA02F5491B04FA02F52844151E76
:1006C000A2F10102F1DC30BD202A04DB203A00FA5D
:1006D00002F1002070479140C2F1200320FA03F399
:1006E000194390407047202A04DB203A21FA02F097
:1006F0000021704721FA02F3D040C2F1200291405C
:10070000084319467047202A06DBCB17203A41FAE6
:1007100002F043EAE07306E041FA02F3D040C2F18E
:10072000200291400843194670470029A8BF70472E
:10073000401C490008BF20F00100704710B4B0FA17
:1007400080FC00FA0CF050EA010404BF10BC7047B2
:1007500049B1CCF1200421FA04F411FA0CF118BFCC
:10076000012121430843A3EB0C01CB1D4FEA00619B
:100770004FEA102042BF002010BC704700EBC3506E
:1007800010440029A4BF10BC7047401C490008BF9A
:1007900020F0010010BC704710B5141E73F1000466
:1007A00008DA401C41F1000192185B411A4301D163
:1007B00020F0010010BD2DE9F04D92469B4611B18D
:1007C000B1FA81F202E0B0FA80F220329046FFF7EF
:1007D0007BFF04460F4640EA0A0041EA0B015346FC
:1007E0005A46084313D0114653EA010019D0C8F104
:1007F00040025046FFF777FF05460E4650465946E1
:100800004246FFF761FF084305D0012004E020467F
:100810003946BDE8F08D0020054346EAE0762C43DA
:1008200037430A986305E40AA0EB08000022FD0A9A
:1008300044EA47540A3002D500200146E9E70105A1
:1008400010196941DDE9084500196941BDE8F04D1D
:10085000A2E7C1F30A52C1F3130140F2FF3341F49E
:1008600080119A4202DA00200146704740F2334379
:100870009A42A2F2334202DC5242FFF734BFFFF742
:1008800023BF000030B5041E71F1000404DB4FF0FB
:100890000044404264EB0101141E73F1000405DBC7
:1008A0001C464FF00043524263EB04038B4208BFE7
:1008B000824230BD30B5041E71F1000404DB4FF0FC
:1008C0000044404264EB0101141E73F1000405DB97
:1008D0001C464FF00043524263EB0403994208BFA9
:1008E000904230BD064C074D06E0E06840F0010341
:1008F00094E8070098471034AC42F6D3FFF748FC61
:1009000038940108589401080EB540F23341029121
:100910000021CDE900110A460B46FFF74CFF03B05A
:1009200000BD70B5C1F30A5201F000450024C1F3C7
:10093000130140F2FF3341F480119A4201DA0020A2
:1009400070BD40F233439A42A2F2334203DC52427A
:10095000FFF7C9FE00E090402C43F1D0404270BD4B
:1009600081B000208DF80300FFE79DF80300032805
:1009700070DCFFE79DF8031040F25C10C2F200004B
:1009800000EB810292ED3D0A01EB810100EB810059
:1009900090ED031A30EE410A9FED2F1AB4EE410A92
:1009A000F1EE10FA1BDDFFE79DF8031040F25C103A
:1009B000C2F2000000EB810191ED3D0A9FED271A84
:1009C00030EE010A81ED3D0A9DF8031000EB810035
:1009D00090ED390AB1EE400A80ED390AFFE79DF843
:1009E000031040F25C10C2F2000000EB810292EDB5
:1009F0003D0A01EB810100EB810090ED031A30EE1E
:100A0000410A9FED171AB4EE410AF1EE10FA1BDA13
:100A1000FFE79DF8031040F25C10C2F2000000EB0B
:100A2000810191ED3D0A9FED0F1A30EE010A81ED33
:100A30003D0A9DF8031000EB810090ED390AB1EEFC
:100A4000400A80ED390AFFE79DF8030001308DF878
:100A500003008AE701B070470000B442000034C3CD
:100A60000000B4C20000344385B0049003910292A8
:100A700004990878497840EA0120ADF80600BDF9EC
:100A8000060000EE100AB8EEC00A40F21400C2F2EE
:100A9000000090ED001A20EE010A039981ED000A92
:100AA000049A9178D27841EA0221ADF80610BDF996
:100AB000061000EE101AB8EEC00A90ED001A20EEF3
:100AC000010A039981ED010A049A1179527941EAE8
:100AD0000221ADF80610BDF9061000EE101AB8EEAE
:100AE000C00A90ED001A20EE010A039880ED020A78
:100AF00004988179C279007A000440EA022008440F
:100B000000909DED000AB8EE400A9FED041A20EE19
:100B1000010A029880ED000A05B0704700401C42AF
:100B200084B003900291019203990878497840EAD1
:100B30000120ADF80200BDF9020000EE100AB8EE87
:100B4000C00A40F21800C2F2000090ED001A20EE38
:100B5000010A029981ED000ABDF9021000EE101A97
:100B6000B8EEC00A9FED272A80EE020A9FED261AF2
:100B700020EE010A019981ED000A039A9178D2785A
:100B800041EA0221ADF80210BDF9021000EE101A80
:100B9000B8EEC00A90ED003A20EE030A029981ED0A
:100BA000010ABDF9021000EE101AB8EEC00A80EE7C
:100BB000020A20EE010A019981ED010A039A1179D6
:100BC000527941EA0221ADF80210BDF9021000EE9F
:100BD000101AB8EEC00A90ED003A20EE030A02980F
:100BE00080ED020ABDF9020000EE100AB8EEC00A5C
:100BF00080EE020A20EE010A019880ED020A04B09C
:100C0000704700BF000000470000FA4483B0029024
:100C10000191029908784978C00040EA5110ADF876
:100C20000200BDF90200B0F5806F07DBFFE7BDF8F9
:100C30000200A0F50060ADF80200FFE7BDF9020078
:100C400000EE100AB8EEC00AB4EE001A20EE010A57
:100C5000B3EE071A30EE010A019880ED000A03B0E6
:100C600070470000FFE7FEE780B540F67C70C2F2F7
:100C7000000004F0D5FA80BD80B540F6A470C2F241
:100C8000000004F0CDFA80BD80B582B0ADF806005A
:100C900040F61C61C2F200012E200860002088602E
:100CA000C860022008619DF8070040F61862C2F291
:100CB000000210709DF80600507040F67C70C2F281
:100CC00000006B4604F026F802B080BD80B584B009
:100CD000ADF80E00ADF80C10ADF80A20ADF80830F4
:100CE00040F64061C2F200012F20086000208860B9
:100CF000C860082008619DF80F0040F63862C2F213
:100D0000000210709DF80E0050709DF80D0090705C
:100D10009DF80C00D0709DF80B0010719DF80A0032
:100D200050719DF8090090719DF80800D07140F64F
:100D30007C70C2F2000001AB03F0ECFF04B080BD98
:100D400040F23410C2F2000090ED000AB2EE081A30
:100D5000B4EE410AF1EE10FA07DAFFE740F234117F
:100D6000C2F200010120887315E040F23410C2F293
:100D7000000090ED000AB3EE021AB4EE410AF1EE63
:100D800010FA07DDFFE740F23411C2F20001002043
:100D90008873FFE7FFE740F25C10C2F2000090F8B2
:100DA0001C01E0B1FFE740F23410C2F2000090ED08
:100DB000000AB2EE081AB4EE410AF1EE10FA0EDDA6
:100DC000FFE740F23410C2F20000807B38B9FFE741
:100DD00040F23411C2F200010120887206E040F2B4
:100DE0003411C2F2000100208872FFE741F62C1096
:100DF000C2F200000089052808DBFFE740F63660F4
:100E0000C2F200000088C92807DBFFE740F2341176
:100E1000C2F2000100208872FFE740F63661C2F29C
:100E200000010888013008807047000070B586B066
:100E3000059002F0B1F8FFE740F28F40C2F20000E7
:100E400003F062FD02F0E8F901F0F6FF40F24450D1
:100E5000C2F2000009F054FC40F2E420C2F20000AB
:100E600003F0EEFE00F0E4FA40F25C10C2F2000083
:100E7000049013F035F8FFF763FFDDF810E09EED06
:100E8000313A9EED322A9EED331A9EED340ABDEEC4
:100E9000C33A13EE100ABDEEC22A12EE101ABDEECE
:100EA000C11A11EE102ABDEEC00A10EE103A9EEDE6
:100EB000350ABDEEC00A10EE10CA9EED360ABDEE30
:100EC000C00A10EE104A9EED370ABDEEC00A10EEC1
:100ED000105A9EED380ABDEEC00A10EE106AEE46BA
:100EE000CEF80C60CEF80850CEF80440CEF800C022
:100EF00002F0FAF9012014F087F89DE780B584B07C
:100F00000390FFE740F26350C2F2000000F21121AB
:100F100040F28B22C2F2000209F04CFB012815D1ED
:100F2000FFE740F28B20C2F20000018849BA01912C
:100F300081788DF80B1001999DF80B20C31C40F6A9
:100F40007C70C2F2000000F005F8FFE7012014F009
:100F50005BF8D7E780B586B0059004918DF80F2037
:100F60000293049840F6E851C2F2000108600020A4
:100F70008860C8609DF80F0008610598029A01AB6F
:100F800003F0C8FE06B080BD86B0DDF830C0DDF8E5
:100F90002CC0DDF828C0DDF824C0DDF820C0DDF865
:100FA0001CC0DDF818C00590049103920293002044
:100FB0000190FFE7019900200229009008DCFFE77B
:100FC00004980199405C002818BF01200090FFE7B9
:100FD0000098C00758B1FFE70498019A805C059912
:100FE000891A8870FFE7019801300190E2E70599BE
:100FF000D1F80320D1F80730D1F80B0042F03802C5
:10100000C1F80730C1F80320C1F80B00DDF80CC0AF
:101010000599D1F80320D1F80730D1F80B006CF313
:101020000202C1F80730C1F80320C1F80B00DDF857
:1010300008C00599D1F80320D1F80730D1F80B008A
:101040000CF00F0C22F4707242EA8C12C1F80730D7
:10105000C1F80320C1F80B00DDF818C00599D1F8DC
:101060000320D1F80730D1F80B000CF00F0C22F45C
:10107000705242EA8C22C1F80730C1F80320C1F84F
:101080000B00DDF824C00599D1F80330D1F8072012
:10109000D1F80B006CF30902C1F80330C1F8072046
:1010A000C1F80B00DDF828C00599D1F80330D1F85C
:1010B0000720D1F80B006FF3DF2C6FF3942242EA84
:1010C0008C22C1F80330C1F80720C1F80B00DDF80D
:1010D0002CC00599D1F80330D1F80720D1F80B00C6
:1010E0006FF35F5242EA4C52C1F80330C1F8072057
:1010F000C1F80B00DDF81CC00599D1F80320D1F828
:101100000730D1F80B006FF35F2C6FF3963242EA91
:101110008C32C1F80730C1F80320C1F80B00DDF8AC
:1011200020C00599D1F80320D1F80730D1F80B0081
:101130006FF3DF5242EACC52C1F80730C1F8032006
:10114000C1F80B0000200190FFE701980899884240
:101150000ED2FFE70C9800780599019A1144C873E4
:101160000C9801300C90FFE7019801300190ECE7FA
:1011700006B070472DE9F047B6B0DDF81491DDF800
:101180001081439F429E419D409CDDF8FCE0DDF8CC
:10119000F8C0CDF8A490CDF8A08027972696259585
:1011A0002494CDF88CE0CDF888C0219320921F9133
:1011B0001E902AA807901EA92D220892FFF731F849
:1011C0000799089A4FF6FF70ADF83E0011A8FFF797
:1011D00028F80DA81090A5208DF834003320ADF824
:1011E000350040F68810C2F2000000788DF8370014
:1011F00010980421FF2203F001FD8DF8380040F221
:101200000130ADF839004FF48870ADF82C0042F28F
:101210006200C2F200000078012808D1FFE7012037
:10122000ADF82E0040F20110ADF8300076E042F249
:101230006200C2F200000078652808D1FFE765204F
:10124000ADF82E0040F26510ADF8300065E042F2D6
:101250006200C2F200000078032808D1FFE70320F3
:10126000ADF82E0040F20310ADF8300054E042F229
:101270006200C2F200000078672808D1FFE767200B
:10128000ADF82E0040F26710ADF8300043E042F2B6
:101290006200C2F200000078042808D1FFE70420B1
:1012A000ADF82E004FF48270ADF8300032E042F21B
:1012B0006200C2F200000078682808D1FFE76820C9
:1012C000ADF82E004FF4B470ADF8300021E042F2DA
:1012D0006200C2F200000078052808D1FFE705206F
:1012E000ADF82E0040F20510ADF8300010E042F2EB
:1012F0006200C2F200000078692808D1FFE7692087
:10130000ADF82E0040F26910ADF83000FFE7FFE7BE
:10131000FFE7FFE7FFE7FFE7FFE7FFE70DA8019023
:1013200010901098BDF83E20072103F033FCADF873
:101330003E000BA8029010901098BDF83E200621A8
:1013400003F028FCADF83E0011A80490109010980E
:10135000BDF83E202D21039103F01CFC019B029956
:10136000039A84460498ADF83EC040F2FC2CC2F2C9
:10137000000CCDF814C0CDF828C04FF0000CCDF80B
:1013800018C08DF827C01093DDF828C0DDF840E0C4
:10139000DEF80030DEF803E0CCF803E0CCF80030F3
:1013A0000A9B07330A939DF8273007338DF82730BF
:1013B00010910A9B1099B1F804C0A3F804C0096801
:1013C00019600A9906310A919DF8271006318DF8A7
:1013D000271010900A981099FEF723FF05980A9994
:1013E0002D310A919DF827102D318DF827100DF120
:1013F0003E0110910A9A1099098811800A990231C8
:101400000A919DF8271002318DF8271040F68812B6
:10141000C2F200021178013111709DF8271012F00C
:1014200023FB069836B0BDE8F087000000000000FE
:1014300080B5ADF52E7D40F25C10C2F2000090F850
:10144000B40040B1FFE740F28F40C2F20000007AE2
:10145000012819D1FFE740F25C11C2F20001AB9103
:101460000020AC90C1F8C400C1F8C800C1F8CC009D
:10147000C1F8D000C1F8D400C1F8D800C1F8DC0030
:10148000C1F8E00001F04ABB40F25C10C2F200007B
:1014900090F8B400022813D0FFE740F25C10C2F2CB
:1014A000000090F8B40003280AD0FFE740F25C1077
:1014B000C2F2000090F8B400012840F00B86FFE76C
:1014C00040F69050C2F2000090ED030A9FEDF81A2A
:1014D00070EE410A30EE011A9FEDF60A13F0AEFCF1
:1014E00040F6EC60C2F2000080ED000A40F25C10B1
:1014F000C2F2000090F8B400022840F05D82FFE7DD
:1015000040F69050C2F2000090ED031A9FEDE90AF8
:1015100030EE410A40F6B450C2F2000080ED000AFD
:1015200090ED000A9FEDE21AB4EE410AF1EE10FAD6
:101530000DDDFFE740F6B450C2F2000090ED000A66
:101540009FEDDD1A30EE010A80ED000A1BE040F647
:10155000B450C2F2000090ED000A9FEDD81AB4EE2C
:10156000410AF1EE10FA0DDAFFE740F6B450C2F28C
:10157000000090ED000A9FEDD21A30EE010A80EDD6
:10158000000AFFE7FFE740F2CE40C2F20000909071
:10159000B0F9010000EE100AB8EEC00A9FEDC91ABA
:1015A0008DED911A80EE010A10EE100AFFF747F850
:1015B00041EC100B8DED860B40F6B450C2F20000EA
:1015C00092900068FFF73BF841EC100B51EC100BC8
:1015D0009FEDBD0B53EC102B95939492FEF75EFF9D
:1015E00041EC100B51EC100B9FEDB90B53EC102B91
:1015F00097939692FEF7E0FE41EC100B16F0ECF894
:1016000090989DED911A8DED880BB0F9030000EED6
:10161000100AB8EEC00A80EE010A10EE100AFFF7B9
:101620000EF80246929883920A46839942EC101B68
:101630008DED840B0068FFF702F8949A959B41ECBE
:10164000100B51EC100BFEF729FF969A979B41EC7B
:10165000100B51EC100BFEF7AFFE41EC100B16F027
:101660001FF99DED841B51EC110B53EC102BFEF771
:10167000A3FE9DED861B9DED880B41EC120B8DEDBD
:101680008A2B51EC110B53EC102BFEF795FE9DEDC0
:101690008A0B41EC110B51EC110B53EC102BFEF7A4
:1016A00085FE41EC100B8DED8C0B49F67850C2F2A3
:1016B0000000A6900068FEF7C2FF9DED8C1B41EC78
:1016C000100B51EC110B53EC102BFEF775FE41EC97
:1016D000100B51EC100BFEF7C5FF9DED911A014662
:1016E000909840F25C12C2F20002A592C2F8B810C3
:1016F000B0F9010000EE100AB8EEC00A80EE010A4F
:1017000010EE100AFEF79BFF024692988F920A464F
:101710008F9942EC101B8DED9A0B0068FEF78FFF3E
:10172000949A959B41EC100B51EC100BFEF7B6FE12
:10173000969A979B41EC100B51EC100BFEF73CFE78
:1017400041EC100B16F0ACF890989DED911A8DEDD0
:101750009C0BB0F9030000EE100AB8EEC00A80EE50
:10176000010A10EE100AFEF76AFF02469298939261
:101770000A46939942EC101B8DED980B0068FEF71A
:101780005EFF949A959B41EC100B51EC100BFEF709
:1017900085FE969A979B41EC100B51EC100BFEF7CF
:1017A0000BFE41EC100B16F017F89DED981B51EC59
:1017B000110B53EC102BFEF7FFFD9DED9A1B9DEDD9
:1017C0009C0B41EC120B8DED9E2B51EC110B53EC4D
:1017D000102BFEF7F1FD9DED9E0B41EC110B51EC32
:1017E000110B53EC102BFEF740FD0246A698A19278
:1017F0000A46A19942EC101B8DEDA20B0068FEF782
:101800001EFF9DEDA21B41EC100B51EC110B53EC94
:10181000102BFEF7D1FD41EC100B51EC100BFEF735
:1018200021FFA599C1F8BC0040F69050C2F200001B
:1018300090ED030A40F6EC60C2F20000D0ED000A21
:1018400040F6A460C2F2000008F02CFDA598B1EEAD
:10185000400A80ED300A90ED300A03F0C3F810EE34
:10186000100AFEF7ECFE0246A698A7920A46A79930
:1018700042EC101B8DEDA80B0068FEF7E0FE41EC7A
:10188000100B9FED151B53EC112B51EC100BFEF7B9
:1018900093FD9DEDA80B41EC110B53EC112B51EC7A
:1018A000100BFEF785FE002840F0858034E000BF75
:1018B00000003443923E1EC30000B4C3000034C392
:1018C0000000B44300FEFF460000000000806640B8
:1018D00000000060FB210940000000000000E03F24
:1018E000FCA9F1D24D62503FCDCCCCCCCCCC104039
:1018F0009A999999999901400000000000000C40C4
:101900008FC2F5285C8FE2BF333333333333E3BF09
:10191000CDCCCCCCCCCCFC3F40F6B450C2F20000D5
:1019200090ED000A03F05EF810EE100AFEF787FE55
:1019300041EC100B1FED181B53EC112B51EC100B4D
:10194000FEF736FEB8BBFFE740F25C10C2F20000C3
:10195000829090ED300A8DED7F0A10EE100AFEF7AE
:101960006EFE41EC100B1FED221B53EC112B51ECC2
:10197000100BFEF721FD9DED7F0A41EC110B8DED63
:10198000801B03F02FF810EE100AFEF758FE9DEDB5
:10199000801B41EC100B51EC110B53EC102BFEF79C
:1019A0007DFD41EC100B51EC100BFEF75BFE8299B4
:1019B000C1F8C000FFE78CE340F25C10C2F2000007
:1019C00090F8B400032840F03E82FFE749F67850D3
:1019D000C2F200000068FEF732FE41EC100B1FED72
:1019E0003E1B53EC112B51EC100BFEF757FD41EC55
:1019F000100B15F055FF51EC100B1FED430B53EC82
:101A0000102BFEF7D9FC41EC100B51EC100BFEF73C
:101A100029FE40F25C11C2F20001C1F8C00040F2A0
:101A2000CE40C2F2000040794006002867D5FFE7AB
:101A300049F67850C2F200000068FEF700FE41EC63
:101A4000100B1FED571B53EC112B51EC100BFEF735
:101A500025FD41EC100B15F023FF51EC100B1FED91
:101A60005A0B53EC102BFEF7A7FC41EC100B51EC7A
:101A7000100BFEF7F7FD40F25C11C2F20001C1F855
:101A8000C00040F69050C2F200007A9090ED031A28
:101A90001FED780A30EE410A10EE100AFEF7CFFD76
:101AA00002467A987B920A467B9942EC101B8DED98
:101AB0007C0BB0F90200FEF7B1FD41EC100B1FEDFD
:101AC000701B53EC112B51EC100BFEF775FC9DEDC8
:101AD0007C0B02460B4651EC100B43EC102B53ECE5
:101AE000102BFEF7C2FB41EC100B51EC100BFEF774
:101AF000B9FD40F6B451C2F2000108603DE040F685
:101B00009050C2F20000769090ED031A1FED970AF4
:101B100030EE410A10EE100AFEF791FD024676986B
:101B200077920A46779942EC101B8DED780BB0F94D
:101B30000200FEF773FD41EC100B1FED8D1B53EC03
:101B4000112B51EC100BFEF737FC9DED780B024684
:101B50000B4651EC100B43EC102B53EC102BFEF703
:101B600084FB41EC100B51EC100BFEF77BFD40F6B3
:101B7000B451C2F200010860FFE740F2CE40C2F269
:101B800000005E90B0F9010000EE100AB8EEC00A45
:101B90001FEDB41A8DED5F1A80EE010A10EE100AE7
:101BA000FEF74DFD41EC100B8DED540B40F6B4509B
:101BB000C2F2000060900068FEF741FD41EC100B9E
:101BC00051EC100B1FEDC00B53EC102B6393629282
:101BD000FEF764FC41EC100B51EC100B1FEDC40B35
:101BE00053EC102B65936492FEF7E6FB41EC100B6F
:101BF00015F0F2FD5E989DED5F1A8DED560BB0F974
:101C0000030000EE100AB8EEC00A80EE010A10EEE2
:101C1000100AFEF714FD0246609851920A46519947
:101C200042EC101B8DED520B0068FEF708FD629A26
:101C3000639B41EC100B51EC100BFEF72FFC649AE8
:101C4000659B41EC100B51EC100BFEF7B5FB41EC22
:101C5000100B15F025FE9DED521B51EC110B53ECB2
:101C6000102BFEF7A9FB9DED541B9DED560B41EC8F
:101C7000120B8DED582B51EC110B53EC102BFEF782
:101C80009BFB9DED580B41EC110B51EC110B53ECF0
:101C9000102BFEF78BFB41EC100B8DED5A0B49F628
:101CA0007850C2F200006E900068FEF7C8FC9DED0F
:101CB0005A1B41EC100B51EC110B53EC102BFEF79F
:101CC0007BFB41EC100B51EC100B1FEDEF0B53ECB9
:101CD000102B74937392FEF7E1FB41EC100B51EC67
:101CE000100BFEF7BFFC9DED5F1A01465E9840F2B7
:101CF0005C12C2F200027592C2F8B810B0F901008D
:101D000000EE100AB8EEC00A80EE010A10EE100ACA
:101D1000FEF795FC024660985D920A465D9942EC9A
:101D2000101B8DED680B0068FEF789FC629A639BBF
:101D300041EC100B51EC100BFEF7B0FB649A659B65
:101D400041EC100B51EC100BFEF736FB41EC100B85
:101D500015F0A6FD5E989DED5F1A8DED6A0BB0F94A
:101D6000030000EE100AB8EEC00A80EE010A10EE81
:101D7000100AFEF764FC0246609861920A46619977
:101D800042EC101B8DED660B0068FEF758FC629A62
:101D9000639B41EC100B51EC100BFEF77FFB649A38
:101DA000659B41EC100B51EC100BFEF705FB41EC71
:101DB000100B15F011FD9DED661B51EC110B53EC52
:101DC000102BFEF7F9FA9DED681B9DED6A0B41ECB7
:101DD000120B8DED6C2B51EC110B53EC102BFEF70D
:101DE000EBFA9DED6C0B41EC110B51EC110B53EC2C
:101DF000102BFEF73AFA02466E986F920A466F99D8
:101E000042EC101B8DED700B0068FEF718FC9DED89
:101E1000701B41EC100B51EC110B53EC102BFEF727
:101E2000CBFA739A749B41EC100B51EC100BFEF73C
:101E300035FB41EC100B51EC100BFEF713FC7599C0
:101E4000C1F8BC0044E140F25C10C2F2000090F81E
:101E5000B400012840F03B81FFE740F69050C2F209
:101E6000000090ED031A9FEDCD0A30EE410A40F6D6
:101E7000B450C2F20000429080ED000A40F2CE4021
:101E8000C2F200004090B0F9010000EE100AB8EE76
:101E9000C00A9FEDC31A8DED411A80EE010A10EEC3
:101EA000100AFEF7CCFB0246429834920A46349957
:101EB00042EC101B8DED380B0068FEF7C0FB41ECC7
:101EC000100B51EC100B9FEDB80B53EC102B4593FE
:101ED0004492FEF7E3FA41EC100B51EC100B9FED2E
:101EE000B40B53EC102B47934692FEF765FA41EC86
:101EF000100B15F071FC40989DED411A8DED3A0BD9
:101F0000B0F9030000EE100AB8EEC00A80EE010A34
:101F100010EE100AFEF793FB0246429835920A46ED
:101F2000359942EC101B8DED360B0068FEF787FBF0
:101F3000449A459B41EC100B51EC100BFEF7AEFAA6
:101F4000469A479B41EC100B51EC100BFEF734FA0C
:101F500041EC100B15F0A4FC9DED361B51EC110B60
:101F600053EC102BFEF728FA9DED381B9DED3A0B34
:101F700041EC120B8DED3C2B51EC110B53EC102B63
:101F8000FEF71AFA9DED3C0B41EC110B51EC110BD5
:101F900053EC102BFEF70AFA41EC100B51EC100B2E
:101FA000FEF760FB9DED411A0146409840F25C123D
:101FB000C2F200025092C2F8B810B0F9010000EE6F
:101FC000100AB8EEC00A80EE010A10EE100AFEF701
:101FD00036FB024642983F920A463F9942EC101B5C
:101FE0008DED4A0B0068FEF72AFB449A459B41ECB5
:101FF000100B51EC100BFEF751FA469A479B41EC3F
:10200000100B51EC100BFEF7D7F941EC100B15F04B
:1020100047FC40989DED411A8DED4C0BB0F9030043
:1020200000EE100AB8EEC00A80EE010A10EE100AA7
:10203000FEF705FB0246429843920A46439942EC5A
:10204000101B8DED480B0068FEF7F9FA449A459B8A
:1020500041EC100B51EC100BFEF720FA469A479B0F
:1020600041EC100B51EC100BFEF7A6F941EC100BF4
:1020700015F0B2FB9DED481B51EC110B53EC102BEE
:10208000FEF79AF99DED4A1B9DED4C0B41EC120BAE
:102090008DED4E2B51EC110B53EC102BFEF78CF900
:1020A0009DED4E0B41EC110B51EC110B53EC102B31
:1020B000FEF7DBF841EC100B51EC100BFEF7D2FAF7
:1020C0005099C1F8BC000020C1F8C000FFE7FFE74D
:1020D000FFE7FFE740F2CE40C2F20000B0F9010096
:1020E000FEF79CFA41EC100B9FED331B53EC112BC8
:1020F00051EC100BFEF7D2F941EC100B51EC100B28
:10210000FEF7B0FA00EE100A02F06CFC10EE100AB6
:10211000FEF795FA41EC100B51EC100B9FED280BDC
:1021200053EC102BFEF75FFA70BBFFE740F2CE4096
:10213000C2F20000B0F90300FEF770FA41EC100B98
:102140009FED1D1B53EC112B51EC100BFEF7A6F964
:1021500041EC100B51EC100BFEF784FA00EE100A64
:1021600002F040FC10EE100AFEF769FA41EC100B89
:1021700051EC100B9FED120B53EC102BFEF7FDF9F9
:10218000002840F00F81FFE700208DF8B702FFE73D
:102190009DF8B702032800F3EC8023E0923E1EC3B3
:1021A00000FEFF4600BF00BF000000000080664048
:1021B00000000060FB21094000000000C0FFDF407C
:1021C0009A9999999999A93F213A7F669EA0F63FDD
:1021D000000000000000004097D17E5AFB2109401A
:1021E0000000C84240F25C11C2F200013391D1F804
:1021F000B8002490D1F8BC00D1F8C0101E91FEF7B1
:102200001EFA02461E981F920A461F9942EC101BA6
:102210008DED220BFEF713FA41EC100B1FED161B90
:1022200053EC112B51EC100BFEF7C6F841EC100BE0
:1022300051EC100B1FED1A0B53EC102BFEF72EF97F
:1022400041EC100B8DED200B9DF8B71240F22000F1
:10225000C2F2000000EB8102269250F82100FEF746
:10226000EEF99DED200B41EC110B53EC112B51ECD1
:10227000100B29912890FEF79FF89DED220B41EC61
:10228000110B51EC110B53EC102BFDF7EEFF024636
:10229000249825920A46259942EC101B8DED2C0BB3
:1022A000FEF7CDF90246269827920A46279942EC76
:1022B000101B8DED2A0B4068FEF7C1F902462898E5
:1022C0000B46299943EC102B53EC102BFEF774F8B6
:1022D0009DED2A0B41EC110B51EC110B53EC102B23
:1022E000FDF7C3FF9DED2C0B41EC110B15F074F9BC
:1022F00051EC100B1FED480B53EC102BFEF7CEF8F2
:1023000041EC100B8DED2E0B9DF8B712329140F27F
:102310000400C2F2000050F82100FEF790F99DED94
:102320002E0B41EC110B8DED301B51EC100B1FED02
:10233000620B53EC102BFEF73FF89DED300B41EC98
:10234000110B51EC110B53EC102BFDF78EFF41ECF0
:10235000100B51EC100BFEF785F9329A339901EB13
:102360008201C1F8F4009DF8B70201308DF8B70280
:102370000EE740F25C10C2F20000D0F8B81049F647
:102380007C52C2F200021160D0F8BC0049F68051C4
:10239000C2F20001086042F22A11C2F200010120DB
:1023A0000870F2E142F22A10C2F20000007801281F
:1023B0002FD1FFE740F25C10C2F2000090F8B400A9
:1023C000022826D1FFE740F6B450C2F2000090ED9B
:1023D000000A02F007FB10EE100AFEF730F941EC9C
:1023E000100B1FED851B53EC112B51EC100BFEF75E
:1023F000DFF870B9FFE742F22A11C2F200010220B1
:10240000087042F22811C2F200014FF47A7008807D
:102410001FE040F6B450C2F2000090ED000A02F056
:10242000E1FA10EE100AFEF70AF941EC100B1FED6D
:10243000981B53EC112B51EC100BFEF79EF838B99A
:10244000FFE742F22A11C2F2000100200870FFE704
:10245000FFE742F22810C2F20000B0F900000028A5
:1024600007DCFFE742F22A11C2F2000100200870E7
:10247000FFE742F22A10C2F200000078022840F082
:10248000CD80FFE740F20040C2F20000B0F9020048
:1024900000EE100AB8EEC00A02F0A4FA1FEDB01A5E
:1024A000B4EE410AF1EE10FA3CDCFFE740F2F440F2
:1024B000C2F20000B0F9020000EE100AB8EEC00A45
:1024C00002F090FA1FEDBA1AB4EE410AF1EE10FADA
:1024D00028DCFFE740F22840C2F20000B0F9020019
:1024E00000EE100AB8EEC00A02F07CFA1FEDC41A22
:1024F000B4EE410AF1EE10FA14DCFFE740F21C5092
:10250000C2F20000B0F9020000EE100AB8EEC00AF4
:1025100002F068FA1FEDCE1AB4EE410AF1EE10FA9D
:102520007CDDFFE740F25C10C2F2000090F8B400DE
:10253000022873D1FFE740F25C11C2F200010020D3
:10254000C1F8C0008DF8B602FFE79DF8B602032877
:102550005CDCFFE749F68050C2F200000068FEF73D
:102560006EF841EC100B8DED160B49F67C50C2F263
:1025700000000068FEF763F89DED160B41EC110BAF
:1025800015F02AF851EC100B1FEDED0B53EC102B4E
:10259000FDF784FF41EC100B8DED180B9DF8B61282
:1025A0001D9140F20400C2F2000050F82100FEF735
:1025B00046F89DED180B41EC110B8DED1A1B51ECFB
:1025C000100B9FEDBB0B53EC102BFDF7F5FE9DEDB3
:1025D0001A0B53EC102B41EC100B51EC100BFDF7C8
:1025E00044FE41EC100B51EC100BFEF73BF81D9A2A
:1025F00040F25C11C2F2000101EB8201C1F8F4006B
:102600009DF8B60201308DF8B6029EE742F228111D
:10261000C2F20001088801380880B5E049F67C5113
:10262000C2F200010020086049F68051C2F20001A8
:10263000086042F22A11C2F20001087040F25C10F8
:10264000C2F2000090ED300AB5EE400AF1EE10FA49
:102650002DD1FFE740F20402C2F2000292ED000A1F
:1026600040F6B451C2F2000191ED001A30EE010AB9
:1026700040F25C10C2F2000080ED3D0A92ED010ACA
:1026800091ED001A30EE010A80ED3E0A92ED020A49
:1026900091ED001A30EE010A80ED3F0A92ED030A37
:1026A00091ED001A30EE010A80ED400A6BE040F235
:1026B0005C10C2F2000090ED300AB5EE400AF1EE77
:1026C00010FA29DDFFE740F20401C2F2000191EDAA
:1026D000000A9FED791A30EE010A40F25C10C2F256
:1026E000000080ED3D0A91ED010A9FED741A30EE75
:1026F000010A80ED3E0A91ED020A9FED711A30EE5B
:10270000010A80ED3F0A91ED030A9FED6E1A30EE4B
:10271000010A80ED400A35E040F25C10C2F2000090
:1027200090ED300AB5EE400AF1EE10FA29DAFFE733
:1027300040F20401C2F2000191ED000A9FED601A1F
:1027400030EE010A40F25C10C2F2000080ED3D0A5A
:1027500091ED010A9FED5B1A30EE010A80ED3E0A11
:1027600091ED020A9FED541A30EE010A80ED3F0A06
:1027700091ED030A9FEDF11A30EE010A80ED400A57
:10278000FFE7FFE7FFE7FFE7FFE740F25C10C2F279
:102790000000159090ED3D0A40F23C40C2F200006E
:1027A00090ED031A9FEDE42A8DED142A71EE420A92
:1027B00031EE021A12F042FB9DED142A159880EDBD
:1027C0003D0A90ED3E0A40F23050C2F2000090ED1A
:1027D000031A71EE420A31EE021A12F02FFB9DED40
:1027E000142A159880ED3E0A90ED3F0A40F20850F9
:1027F000C2F2000090ED031A71EE420A31EE021AA5
:1028000012F01CFB9DED142A159880ED3F0A90ED07
:10281000400A40F21440C2F2000090ED031A71EE3B
:10282000420A31EE021A12F009FB159880ED400AB7
:1028300040F23410C2F200000089C00738BBFFE745
:1028400040F23410C2F20000807A01281FD1FFE765
:1028500040F25001C2F2000191ED000A40F25C101A
:10286000C2F2000090ED2E1A20EE010A80ED2E0A31
:1028700091ED000A90ED2F1A20EE010A80ED2F0A4B
:1028800040F23411C2F200010120C87206E040F2A9
:102890003411C2F200010020C872FFE700208DF859
:1028A000B502FFE79DF8B502032800F3C4800BE0F2
:1028B0000000000000806640000007C3000034C232
:1028C000000034420000074340F25C11C2F20001F4
:1028D000D1F8B8000890D1F8BC00D1F8C01002912E
:1028E000FDF7ADFE0246029803920A46039942ECB8
:1028F000101B8DED060BFDF7A2FE41EC100B9FEDBA
:102900008C1B53EC112B51EC100BFDF755FD41ECDA
:10291000100B51EC100B9FED840B53EC102BFDF7BB
:10292000BDFD41EC100B8DED040B9DF8B51240F28E
:102930002000C2F2000000EB81020A9250F8210050
:10294000FDF77DFE9DED040B41EC110B53EC112BBB
:1029500051EC100B0D910C90FDF72EFD9DED060B2B
:1029600041EC110B51EC110B53EC102BFDF77DFCDE
:102970000246089809920A46099942EC101B8DED0F
:10298000100BFDF75CFE02460A980B920A460B9963
:1029900042EC101B8DED0E0B4068FDF750FE024619
:1029A0000C980B460D9943EC102B53EC102BFDF7B4
:1029B00003FD9DED0E0B41EC110B51EC110B53EC93
:1029C000102BFDF752FC41EC100B53EC102B104672
:1029D0001946FDF7F1FC9DED100B41EC110B8DED4F
:1029E000121B53EC102B10461946FDF7E5FC9DED2C
:1029F000120B41EC110B51EC110B53EC102BFDF7AA
:102A000034FC41EC100B51EC100BFDF72BFE00EEEB
:102A1000100A14F0A9FF9DF8B51242F21810C2F284
:102A2000000000EB810080ED000A9DF8B502013046
:102A30008DF8B50236E742F21811C2F2000191EDAD
:102A4000000AB1EE400A40F25C10C2F200000190B0
:102A500080ED390A4A68C0F8E8208A68C0F8EC209E
:102A600091ED030AB1EE400A80ED3C0AFDF778FFD4
:102A7000019840F23C41C2F2000191ED030AD0ED11
:102A80003D0A41F2DC70C2F2000007F00BFC019835
:102A900080ED410A40F23051C2F2000191ED030A8B
:102AA000D0ED3E0A41F6C870C2F2000007F0FAFB12
:102AB000019880ED420A40F20851C2F2000191ED06
:102AC000030AD0ED3F0A41F6F060C2F2000007F0C1
:102AD000E9FB019880ED430A40F21441C2F2000183
:102AE00091ED030AD0ED400A41F20470C2F20000F9
:102AF00007F0D8FB019880ED440A00F021F8019816
:102B000040F27E41C2F200010A7840F27D43C2F2F7
:102B100000031A7090F8B4000870FFE70DF52E7DE1
:102B200080BD00BF00BF00BF0000000000000040EB
:102B3000213A7F669EA0F63F00003443000034C275
:102B400080B586B042F22A10C2F200000078022856
:102B500026D1FFE740F25C11C2F200010020C1F86B
:102B6000E400C1F8E800C1F8EC00C1F8F00041F25F
:102B70009471C2F2000148F20000C4F2BB504860F8
:102B800041F68071C2F20001486041F6A861C2F2CC
:102B90000001486041F2BC61C2F20001486017E0E8
:102BA00041F29471C2F200010020C4F26150486009
:102BB00041F68071C2F20001486041F6A861C2F29C
:102BC0000001486041F2BC61C2F200014860FFE7C9
:102BD00040F23C40C2F20000B0F9020000EE100AE0
:102BE000B8EEC00A40F25C10C2F200000590D0EDD1
:102BF000410A41F62400C2F2000007F053FB059899
:102C000080ED310A40F23051C2F20001B1F90210F8
:102C100000EE101AB8EEC00AD0ED420A42F21000DF
:102C2000C2F2000007F03EFB059880ED320A40F248
:102C30000851C2F20001B1F9021000EE101AB8EE0C
:102C4000C00AD0ED430A41F63870C2F2000007F026
:102C500029FB059880ED330A40F21441C2F20001CD
:102C6000B1F9021000EE101AB8EEC00AD0ED440A15
:102C700041F24C70C2F2000007F014FB059880EDA1
:102C8000340A40F22841C2F20001B1F9021000EE0C
:102C9000101AB8EEC00A40F23401C2F200010491E9
:102CA00091ED001A80EE010AD0ED390A41F29470DC
:102CB000C2F2000007F0F6FA0499059880ED350A93
:102CC00040F21C52C2F20002B2F9022000EE102AB9
:102CD000B8EEC00A91ED001A80EE010AD0ED3A0A72
:102CE00041F68070C2F2000007F0DCFA0499059802
:102CF00080ED360A40F2F442C2F20002B2F902203C
:102D000000EE102AB8EEC00A91ED001A80EE010A1A
:102D1000D0ED3B0A41F6A860C2F2000007F0C2FA0B
:102D20000499059880ED370A40F20042C2F2000291
:102D3000B2F9022000EE102AB8EEC00A91ED001A96
:102D400080EE010AD0ED3C0A41F2BC60C2F2000004
:102D500007F0A8FA059880ED380A42F22A10C2F26C
:102D600000000078022861D1FFE740F25C10C2F257
:102D700000000390D0F8C400FDF761FC41EC100B9B
:102D800051EC100B9FED2A0B53EC102B0293019288
:102D9000FDF712FB41EC100B51EC100BFDF762FC40
:102DA00001460398C0F8C410D0F8C800FDF747FCEE
:102DB000019A029B41EC100B51EC100BFDF7FCFA51
:102DC00041EC100B51EC100BFDF74CFC0146039845
:102DD000C0F8C810D0F8CC00FDF731FC019A029B76
:102DE00041EC100B51EC100BFDF7E6FA41EC100B27
:102DF00051EC100BFDF736FC01460398C0F8CC10DF
:102E0000D0F8D000FDF71BFC019A029B41EC100B9F
:102E100051EC100BFDF7D0FA41EC100B51EC100BFC
:102E2000FDF720FC0399C1F8D000FFE706B080BD94
:102E3000333333333333F33F80B540F22841C2F2AA
:102E4000000108684A688B68D1F80CC0D1F810E01E
:102E500040F25C11C2F20001C1F860E0C1F85CC050
:102E60008B654A65086540F21C5EC2F2000EDEF812
:102E70000000DEF80420DEF80830DEF80CC0DEF8D2
:102E800010E0C1F874E0C1F870C0CB668A6648668D
:102E900040F2F44EC2F2000EDEF80000DEF804202C
:102EA000DEF80830DEF80CC0DEF810E0C1F888E08B
:102EB000C1F884C0C1F88030CA67886740F2004E0C
:102EC000C2F2000EDEF80000DEF80420DEF8083062
:102ED000DEF80CC0DEF810E0C1F89CE0C1F898C044
:102EE000C1F89430C1F89020C1F88C0040F23C4EFB
:102EF000C2F2000EDEF80000DEF80420DEF8083032
:102F0000DEF80CC0DEF810E0C1F810E0C1F80CC02B
:102F10008B604A60086040F2305EC2F2000EDEF85C
:102F20000000DEF80420DEF80830DEF80CC0DEF821
:102F300010E0C1F824E0C1F820C0CB618A6148618B
:102F400040F2085EC2F2000EDEF80000DEF8042057
:102F5000DEF80830DEF80CC0DEF810E0C1F838E02A
:102F6000C1F834C00B63CA62886240F2144EC2F2E8
:102F7000000EDEF80000DEF80420DEF80830DEF88F
:102F80000CC0DEF810E0C1F84CE0C1F848C04B645A
:102F90000A64C86380BD000080B58CB041F624008F
:102FA000C2F2000040F2B402C2F200020021079116
:102FB0009FED900A8DED010ADFED8F0ACDED020A3B
:102FC00007F096FA9DED010ADDED020A079942F23B
:102FD0001000C2F2000040F2FC02C2F2000207F050
:102FE00087FA9DED010ADDED020A079941F6387076
:102FF000C2F2000040F2D802C2F2000207F078FAF2
:103000009DED010ADDED020A079941F24C70C2F212
:10301000000040F29002C2F2000207F069FA07993C
:1030200041F2DC70C2F2000040F2A802C2F20002DB
:103030009FED720A8DED030ADFED710ACDED040AF2
:1030400007F056FA9DED030ADDED040A079941F6F3
:10305000C870C2F2000040F2F002C2F2000207F0B3
:1030600047FA9DED030ADDED040A079941F6F06089
:10307000C2F2000040F2CC02C2F2000207F038FABD
:103080009DED030ADDED040A079941F20470C2F2D6
:10309000000040F28402C2F2000207F029FA079908
:1030A00041F29470C2F2000040F29C02C2F20002AF
:1030B0009FED540A8DED050ADFED530ACDED060AAA
:1030C00007F016FA9DED050ADDED060A079941F6AF
:1030D0008070C2F2000040F2E402C2F2000207F087
:1030E00007FA9DED050ADDED060A079941F6A8608D
:1030F000C2F2000040F2C002C2F2000207F0F8F98A
:103100009DED050ADDED060A079941F2BC60C2F2A9
:10311000000040F27802C2F2000207F0E9F90799D4
:1031200040F6F060C2F2000040F26002C2F200021B
:10313000F7EE000ACDED080AB0EE600A07F0D8F904
:103140000799DDED080A40F6A460C2F2000040F2E3
:103150005402C2F20002B0EE000A07F0C9F940F6CC
:103160007460C2F200009FED290A8DED090ADFEDBF
:10317000280ACDED0B0A11F0C5FB9DED090ADDED26
:103180000B0A40F66460C2F2000011F0BBFBDDEDFB
:103190000B0A49F68450C2F200009FED1E0A8DED25
:1031A0000A0A11F0AFFB9DED0A0ADDED0B0A49F6A4
:1031B0009450C2F2000011F0A5FB9DED0A0ADDED6E
:1031C0000B0A49F6A450C2F2000011F09BFB9DEDE2
:1031D0000A0ADDED0B0A49F6B450C2F2000011F004
:1031E00091FB40F23411C2F20001012088730CB04F
:1031F00080BD00BF0060EA4600401C4600009643C8
:10320000000070420000804600007A446F12033BC9
:10321000CDCCCC3D6F12833A81B040F2CE40C2F2A9
:103220000000407901460091012820D0FFE7009876
:10323000062834D0FFE700980A2828D0FFE7009836
:1032400012281CD0FFE70098262828D0FFE7009816
:103250002A281CD0FFE70098322810D0FFE70098FA
:1032600052280CD0FFE70098722808D01FE040F2E7
:103270005C11C2F20001002081F8B40018E040F2B5
:103280005C11C2F20001032081F8B40010E040F2AA
:103290005C11C2F20001022081F8B40008E040F2A3
:1032A0005C11C2F20001012081F8B40000E0FFE7E8
:1032B00040F2CE40C2F2000040798006002808D5D6
:1032C000FFE740F25C11C2F20001012081F81C010D
:1032D00007E040F25C11C2F20001002081F81C01FD
:1032E000FFE701B07047000070B588B09C46964675
:1032F0000C4605460F980E990D9A0C9BADF81E5082
:10330000ADF81C40ADF81AE0ADF818C0ADF81630B5
:10331000ADF81420ADF81210ADF8100040F60061C1
:10332000C2F20001019100208860C8600820086195
:103330009DF81F3040F27F42C2F20002104600F8B2
:10334000083F02909DF81E0050729DF81D0090727B
:103350009DF81C00D0729DF81B0010739DF81A0098
:1033600050739DF8190090739DF81800D0739DF864
:10337000170010709DF8160050709DF815009070A1
:103380009DF81400D0709DF8130010719DF8120084
:1033900050719DF8110090719DF81000D0714FF49C
:1033A0000070086040F6A470C2F20000039042F280
:1033B0000813C2F2000301F0ADFC012011F024FE5D
:1033C0000199029A039840F2FF130B6042F20C132A
:1033D000C2F2000301F09EFC08B070BD86B0DDF8BB
:1033E00028C0DDF824C0DDF820C0DDF81CC0DDF801
:1033F00018C0059004910392029300200190FFE70A
:10340000019900200229009008DCFFE70498019947
:10341000405C002818BF01200090FFE70098C0071B
:1034200058B1FFE70498019A805C0599891A887061
:10343000FFE7019801300190E2E70599D1F80320F8
:10344000D1F80730D1F80B004FF0020C6CF3C50235
:10345000C1F80730C1F80320C1F80B00DDF80CC03B
:103460000599D1F80320D1F80730D1F80B006CF39F
:103470000202C1F80730C1F80320C1F80B00DDF8E3
:1034800008C00599D1F80320D1F80730D1F80B0016
:103490000CF00F0C22F4707242EA8C12C1F8073063
:1034A000C1F80320C1F80B00DDF818C00599D1F868
:1034B0000320D1F80730D1F80B000CF00F0C22F4E8
:1034C000705242EA8C22C1F80730C1F80320C1F8DB
:1034D0000B00DDF81CC00599D1F80330D1F80720A6
:1034E000D1F80B006CF30902C1F80330C1F80720D2
:1034F000C1F80B00DDF820C00599D1F80330D1F8F0
:103500000720D1F80B006FF3DF2C6FF3942242EA0F
:103510008C22C1F80330C1F80720C1F80B00DDF898
:1035200024C00599D1F80330D1F80720D1F80B0059
:103530006FF35F5242EA4C52C1F80330C1F80720E2
:10354000C1F80B00DDF828C00599D1F80320D1F8A7
:103550000730D1F80B006CF30900C1F80730C1F84F
:103560000320C1F80B0006B07047000040F29C41F8
:10357000C2F2000108680130086048680130486004
:10358000886801308860C8680130C8600869013007
:103590000861486901304861886901308861C869FB
:1035A0000130C861086A01300862704781B00020AC
:1035B0008DF80300FFE79DF80300072824DCFFE7F0
:1035C0009DF8031040F29C40C2F2000050F8210028
:1035D000332809D3FFE79DF8032040F2C441C2F22B
:1035E00000010120885408E09DF8032040F2C44106
:1035F000C2F2000100208854FFE7FFE79DF80300B6
:1036000001308DF80300D6E740F29C40C2F2000082
:10361000006A332807D3FFE740F2C441C2F2000139
:103620000120087206E040F2C441C2F2000100200D
:103630000872FFE701B0704780B541F24C10C2F24A
:10364000000002F055FC80BD80B5E2B041F2F020F0
:10365000C2F20000C06C006846F25941C4F2020197
:103660008842C0F0F380FFE746F20440C4F2020053
:103670000068619041F2F020C2F20000C06C006866
:1036800046F21001C4F20201884203D1FFE7202074
:103690006090D6E041F2F020C2F20000C06C0068F9
:1036A00046F21041C4F20201884203D1FFE7202014
:1036B0005F90C3E041F2F020C2F20000C06C0068ED
:1036C00046F27001C4F20201884203D1FFE72020D4
:1036D0005E90B0E041F2F020C2F20000C06C0068E1
:1036E00046F27041C4F20201884203D1FFE7202074
:1036F0005D909DE041F2F020C2F20000C06C0068D5
:1037000046F22801C4F20201884204D1FFE74FF4D7
:1037100000605C9089E041F2F020C2F20000C06CD1
:10372000006846F22841C4F20201884204D1FFE752
:103730004FF400605B9075E041F2F020C2F20000AF
:10374000C06C006846F28801C4F20201884204D1CC
:10375000FFE74FF400605A9061E041F2F020C2F2BE
:103760000000C06C006846F28841C4F20201884241
:1037700004D1FFE74FF4006059904DE041F2F02092
:10378000C2F20000C06C006846F24001C4F20201BF
:10379000884204D1FFE74FF40010589039E041F21D
:1037A000F020C2F20000C06C006846F24041C4F252
:1037B0000201884204D1FFE74FF40010579025E042
:1037C00041F2F020C2F20000C06C006846F2A00195
:1037D000C4F20201884204D1FFE74FF40010569072
:1037E00011E041F2F020C2F20000C06C016846F224
:1037F000A042C4F202024FF00060914208BF4FF4B1
:1038000000105690FFE756985790FFE7579858904A
:10381000FFE758985990FFE759985A90FFE75A9850
:103820005B90FFE75B985C90FFE75C985D90FFE73B
:103830005D985E90FFE75E985F90FFE75F9860900D
:10384000FFE76198609908405590F7E241F2F02057
:10385000C2F20000C06C006846F2B901C4F2020175
:103860008842C0F0F380FFE746F20040C4F2020055
:103870000068549041F2F020C2F20000C06C006871
:1038800046F21001C4F20201884203D1FFE7202072
:103890005390D6E041F2F020C2F20000C06C006804
:1038A00046F21041C4F20201884203D1FFE7202012
:1038B0005290C3E041F2F020C2F20000C06C0068F8
:1038C00046F27001C4F20201884203D1FFE72020D2
:1038D0005190B0E041F2F020C2F20000C06C0068EC
:1038E00046F27041C4F20201884203D1FFE7202072
:1038F00050909DE041F2F020C2F20000C06C0068E0
:1039000046F22801C4F20201884204D1FFE74FF4D5
:1039100000604F9089E041F2F020C2F20000C06CDC
:10392000006846F22841C4F20201884204D1FFE750
:103930004FF400604E9075E041F2F020C2F20000BA
:10394000C06C006846F28801C4F20201884204D1CA
:10395000FFE74FF400604D9061E041F2F020C2F2C9
:103960000000C06C006846F28841C4F2020188423F
:1039700004D1FFE74FF400604C904DE041F2F0209D
:10398000C2F20000C06C006846F24001C4F20201BD
:10399000884204D1FFE74FF400104B9039E041F228
:1039A000F020C2F20000C06C006846F24041C4F250
:1039B0000201884204D1FFE74FF400104A9025E04D
:1039C00041F2F020C2F20000C06C006846F2A00193
:1039D000C4F20201884204D1FFE74FF4001049907D
:1039E00011E041F2F020C2F20000C06C016846F222
:1039F000A042C4F202024FF00060914208BF4FF4AF
:103A000000104990FFE749984A90FFE74A984B9089
:103A1000FFE74B984C90FFE74C984D90FFE74D988F
:103A20004E90FFE74E984F90FFE74F985090FFE77A
:103A300050985190FFE751985290FFE75298539059
:103A4000FFE75498539908404890F4E141F2F02080
:103A5000C2F20000C06C006846F25901C4F20201D3
:103A60008842C0F0F380FFE746F20400C4F202008F
:103A70000068479041F2F020C2F20000C06C00687C
:103A800046F21001C4F20201884203D1FFE7202070
:103A90004690D6E041F2F020C2F20000C06C00680F
:103AA00046F21041C4F20201884203D1FFE7202010
:103AB0004590C3E041F2F020C2F20000C06C006803
:103AC00046F27001C4F20201884203D1FFE72020D0
:103AD0004490B0E041F2F020C2F20000C06C0068F7
:103AE00046F27041C4F20201884203D1FFE7202070
:103AF00043909DE041F2F020C2F20000C06C0068EB
:103B000046F22801C4F20201884204D1FFE74FF4D3
:103B10000060429089E041F2F020C2F20000C06CE7
:103B2000006846F22841C4F20201884204D1FFE74E
:103B30004FF40060419075E041F2F020C2F20000C5
:103B4000C06C006846F28801C4F20201884204D1C8
:103B5000FFE74FF40060409061E041F2F020C2F2D4
:103B60000000C06C006846F28841C4F2020188423D
:103B700004D1FFE74FF400603F904DE041F2F020A8
:103B8000C2F20000C06C006846F24001C4F20201BB
:103B9000884204D1FFE74FF400103E9039E041F233
:103BA000F020C2F20000C06C006846F24041C4F24E
:103BB0000201884204D1FFE74FF400103D9025E058
:103BC00041F2F020C2F20000C06C006846F2A00191
:103BD000C4F20201884204D1FFE74FF400103C9088
:103BE00011E041F2F020C2F20000C06C016846F220
:103BF000A042C4F202024FF00060914208BF4FF4AD
:103C000000103C90FFE73C983D90FFE73D983E90C8
:103C1000FFE73E983F90FFE73F984090FFE74098CE
:103C20004190FFE741984290FFE742984390FFE7B9
:103C300043984490FFE744984590FFE745984690A5
:103C4000FFE74798469908403B90F1E046F20000B4
:103C5000C4F2020000683A9041F2F020C2F2000083
:103C6000C06C006846F21001C4F20201884203D120
:103C7000FFE720203990D6E041F2F020C2F20000A8
:103C8000C06C006846F21041C4F20201884203D1C0
:103C9000FFE720203890C3E041F2F020C2F200009C
:103CA000C06C006846F27001C4F20201884203D180
:103CB000FFE720203790B0E041F2F020C2F2000090
:103CC000C06C006846F27041C4F20201884203D120
:103CD000FFE7202036909DE041F2F020C2F2000084
:103CE000C06C006846F22801C4F20201884204D187
:103CF000FFE74FF40060359089E041F2F020C2F216
:103D00000000C06C006846F22841C4F202018842FB
:103D100004D1FFE74FF40060349075E041F2F020E9
:103D2000C2F20000C06C006846F28801C4F20201D1
:103D3000884204D1FFE74FF40060339061E041F224
:103D4000F020C2F20000C06C006846F28841C4F264
:103D50000201884204D1FFE74FF4006032904DE049
:103D600041F2F020C2F20000C06C006846F240014F
:103D7000C4F20201884204D1FFE74FF400103190F1
:103D800039E041F2F020C2F20000C06C006846F257
:103D90004041C4F20201884204D1FFE74FF4001011
:103DA000309025E041F2F020C2F20000C06C0068C3
:103DB00046F2A001C4F20201884204D1FFE74FF4A9
:103DC00000102F9011E041F2F020C2F20000C06C10
:103DD000016846F2A042C4F202024FF00060914234
:103DE00008BF4FF400102F90FFE72F983090FFE7A7
:103DF00030983190FFE731983290FFE73298339056
:103E0000FFE733983490FFE734983590FFE7359813
:103E10003690FFE736983790FFE737983890FFE7FE
:103E200038983990FFE73A98399908403B90FFE776
:103E30003B984890FFE748985590FFE75598002831
:103E400000F06984FFE741F2F020C2F20000C06C8C
:103E5000006846F25941C4F202018842C0F0EF8086
:103E6000FFE741F2F020C2F20000C06C006846F2A9
:103E70001001C4F20201884203D1FFE720202E90F6
:103E8000D6E041F2F020C2F20000C06C006846F2B9
:103E90001041C4F20201884203D1FFE720202D9097
:103EA000C3E041F2F020C2F20000C06C006846F2AC
:103EB0007001C4F20201884203D1FFE720202C9058
:103EC000B0E041F2F020C2F20000C06C006846F29F
:103ED0007041C4F20201884203D1FFE720202B90F9
:103EE0009DE041F2F020C2F20000C06C006846F292
:103EF0002801C4F20201884204D1FFE74FF40060B8
:103F00002A9089E041F2F020C2F20000C06C006803
:103F100046F22841C4F20201884204D1FFE74FF47F
:103F20000060299075E041F2F020C2F20000C06C00
:103F3000006846F28801C4F20201884204D1FFE71A
:103F40004FF40060289061E041F2F020C2F20000DE
:103F5000C06C006846F28841C4F20201884204D174
:103F6000FFE74FF4006027904DE041F2F020C2F2ED
:103F70000000C06C006846F24001C4F202018842B1
:103F800004D1FFE74FF40010269039E041F2F02011
:103F9000C2F20000C06C006846F24041C4F2020167
:103FA000884204D1FFE74FF40010259025E041F24C
:103FB000F020C2F20000C06C006846F2A001C4F21A
:103FC0000201884204D1FFE74FF40010249011E071
:103FD00041F2F020C2F20000C06C016846F2A0423B
:103FE000C4F202024FF00060914208BF4FF400108B
:103FF0002490FFE724982590FFE725982690FFE777
:1040000026982790FFE727982890FFE7289829907F
:10401000FFE729982A90FFE72A982B90FFE72B9833
:104020002C90FFE72C982D90FFE72D982E90FFE71E
:104030002E9846F20C41C4F202010860EDE241F212
:10404000F020C2F20000C06C006846F2B901C4F270
:1040500002018842C0F0F080FFE741F2F020C2F296
:104060000000C06C006846F21001C4F202018842F0
:1040700003D1FFE720202390D6E041F2F020C2F2E6
:104080000000C06C006846F21041C4F20201884290
:1040900003D1FFE720202290C3E041F2F020C2F2DA
:1040A0000000C06C006846F27001C4F20201884250
:1040B00003D1FFE720202190B0E041F2F020C2F2CE
:1040C0000000C06C006846F27041C4F202018842F0
:1040D00003D1FFE7202020909DE041F2F020C2F2C2
:1040E0000000C06C006846F22801C4F20201884258
:1040F00004D1FFE74FF400601F9089E041F2F02007
:10410000C2F20000C06C006846F22841C4F202010D
:10411000884204D1FFE74FF400601E9075E041F241
:10412000F020C2F20000C06C006846F28801C4F2C0
:104130000201884204D1FFE74FF400601D9061E066
:1041400041F2F020C2F20000C06C006846F28841E3
:10415000C4F20201884204D1FFE74FF400601C90D2
:104160004DE041F2F020C2F20000C06C006846F25F
:104170004001C4F20201884204D1FFE74FF400106D
:104180001B9039E041F2F020C2F20000C06C0068E0
:1041900046F24041C4F20201884204D1FFE74FF4E5
:1041A00000101A9025E041F2F020C2F20000C06C2D
:1041B000006846F2A001C4F20201884204D1FFE780
:1041C0004FF40010199011E041F2F020C2F200000B
:1041D000C06C016846F2A042C4F202024FF00060D7
:1041E000914208BF4FF400101990FFE719981A90F8
:1041F000FFE71A981B90FFE71B981C90FFE71C989D
:104200001D90FFE71D981E90FFE71E981F90FFE787
:104210001F982090FFE720982190FFE72198229097
:10422000FFE722982390FFE7239846F20841C4F263
:10423000020108601890EEE141F2F020C2F20000A5
:10424000C06C006846F25901C4F202018842C0F015
:10425000F080FFE741F2F020C2F20000C06C00687D
:1042600046F21001C4F20201884203D1FFE7202088
:104270001790D6E041F2F020C2F20000C06C006856
:1042800046F21041C4F20201884203D1FFE7202028
:104290001690C3E041F2F020C2F20000C06C00684A
:1042A00046F27001C4F20201884203D1FFE72020E8
:1042B0001590B0E041F2F020C2F20000C06C00683E
:1042C00046F27041C4F20201884203D1FFE7202088
:1042D00014909DE041F2F020C2F20000C06C006832
:1042E00046F22801C4F20201884204D1FFE74FF4EC
:1042F0000060139089E041F2F020C2F20000C06C2F
:10430000006846F22841C4F20201884204D1FFE766
:104310004FF40060129075E041F2F020C2F200000C
:10432000C06C006846F28801C4F20201884204D1E0
:10433000FFE74FF40060119061E041F2F020C2F21B
:104340000000C06C006846F28841C4F20201884255
:1043500004D1FFE74FF4006010904DE041F2F020EF
:10436000C2F20000C06C006846F24001C4F20201D3
:10437000884204D1FFE74FF400100F9039E041F27A
:10438000F020C2F20000C06C006846F24041C4F266
:104390000201884204D1FFE74FF400100E9025E09F
:1043A00041F2F020C2F20000C06C006846F2A001A9
:1043B000C4F20201884204D1FFE74FF400100D90CF
:1043C00011E041F2F020C2F20000C06C016846F238
:1043D000A042C4F202024FF00060914208BF4FF4C5
:1043E00000100D90FFE70D980E90FFE70E980F90CC
:1043F000FFE70F981090FFE710981190FFE71198D2
:104400001290FFE712981390FFE713981490FFE7BC
:1044100014981590FFE715981690FFE716981790D7
:10442000FFE7179846F20C01C4F2020108600C90F5
:10443000EEE041F2F020C2F20000C06C006846F2EB
:104440001001C4F20201884203D1FFE720200B9043
:10445000D6E041F2F020C2F20000C06C006846F2E3
:104460001041C4F20201884203D1FFE720200A90E4
:10447000C3E041F2F020C2F20000C06C006846F2D6
:104480007001C4F20201884203D1FFE720200990A5
:10449000B0E041F2F020C2F20000C06C006846F2C9
:1044A0007041C4F20201884203D1FFE72020089046
:1044B0009DE041F2F020C2F20000C06C006846F2BC
:1044C0002801C4F20201884204D1FFE74FF40060E2
:1044D000079089E041F2F020C2F20000C06C006851
:1044E00046F22841C4F20201884204D1FFE74FF4AA
:1044F0000060069075E041F2F020C2F20000C06C4E
:10450000006846F28801C4F20201884204D1FFE744
:104510004FF40060059061E041F2F020C2F200002B
:10452000C06C006846F28841C4F20201884204D19E
:10453000FFE74FF4006004904DE041F2F020C2F23A
:104540000000C06C006846F24001C4F202018842DB
:1045500004D1FFE74FF40010039039E041F2F0205E
:10456000C2F20000C06C006846F24041C4F2020191
:10457000884204D1FFE74FF40010029025E041F299
:10458000F020C2F20000C06C006846F2A001C4F244
:104590000201884204D1FFE74FF40010019011E0BE
:1045A00041F2F020C2F20000C06C016846F2A04265
:1045B000C4F202024FF00060914208BF4FF40010B5
:1045C0000190FFE701980290FFE702980390FFE750
:1045D00003980490FFE704980590FFE7059806907C
:1045E000FFE706980790FFE707980890FFE708980D
:1045F0000990FFE709980A90FFE70A980B90FFE7F8
:104600000B9846F20801C4F2020108600C90FFE723
:104610000C981890FFE71898FFE740F67B70C2F2FD
:10462000000000788007002821D5FFE740F67B7165
:10463000C2F20001087800F0FD00087040F200406E
:10464000C4F202000122114602F056F940F67370DE
:10465000C2F20000013040F6B851C2F2000114313C
:1046600040F2D822C2F20002FCF75AFAFFE740F605
:10467000B250C2F200000078800700281DD5FFE785
:1046800040F6B251C2F20001087800F0FD00087057
:104690000020C4F202001021012202F02DF940F6A0
:1046A000A450C2F20000023040F6B852C2F200023A
:1046B000111D2032FCF7D8F9FFE740F6B150C2F2E5
:1046C000000000788007002822D5FFE740F6B151AE
:1046D000C2F20001087800F0FD0008700020C4F26A
:1046E00002001021012202F007F940F6AD50C2F29B
:1046F0000000023040F6B851C2F2000100911031C2
:10470000FCF784FA009890ED040A10F089FAFFE7AC
:1047100010F062F9FFE762B080BD000080B541F2A1
:10472000AC10C2F2000001F0E3FB80BD80B541F2A5
:104730008C00C2F2000001F0DBFB80BD80B541F2CD
:104740002C00C2F2000001F0D3FB80BD80B541F225
:104750000C20C2F2000001F0CBFB80BD80B541F21D
:10476000EC00C2F2000001F0C3FB80BD82B00190FA
:104770000198007810384AF6AB21CAF6AA21A0FBAE
:10478000011000090090009948F65C70C0F6010025
:10479000405C0199C8650098042807D3FFE7019998
:1047A0000868042262F30900886506E00199086838
:1047B00040F2FF3290438865FFE70198806D02B0B8
:1047C0007047000086B0059000208DF81300059812
:1047D000806A03900598806910BBFFE703980290F8
:1047E00003281BD80299DFE801F0020D0218059892
:1047F00090F82F00C00720B1FFE701208DF81300CB
:10480000FFE70CE00598C06AB0F1C07F04D1FFE774
:1048100001208DF81300FFE701E000E0FFE745E02D
:1048200005988069B0F5005F25D1FFE703980190F6
:1048300003281ED80199DFE801F0020602110120C9
:104840008DF8130016E0059890F82F00C00720B1EE
:10485000FFE701208DF81300FFE70BE00598C06A21
:10486000B0F1C07F04D1FFE701208DF81300FFE70E
:1048700000E0FFE719E003980090032804D3FFE766
:104880000098032804D00EE001208DF813000BE0FF
:10489000059890F82F00C00720B1FFE701208DF8A0
:1048A0001300FFE700E0FFE7FFE7FFE79DF81300D5
:1048B00006B0704784B00390029101920093039870
:1048C0000168086820F4802008600098039909684E
:1048D000486003988068402809D1FFE70198039950
:1048E00009688860029803990968C86008E002981E
:1048F000039909688860019803990968C860FFE70F
:1049000004B070477047000081B00090009940F2F9
:10491000C442C2F2000210890881106852684A60DD
:10492000086001B07047000080B5102001F0ECFD78
:1049300080BD000080B5202001F0E6FD80BD0000B4
:1049400080B584B0039002918DF8072000208DF887
:104950000600039804F0F4FB08B1FFE737E0039882
:10496000D0F80D02B0F5FD7F01D9FFE72FE0FFE79A
:104970009DF806009DF80710884228DAFFE70399A2
:10498000D1F80902431C4CF21160C1F6B07053FB20
:1049900000F2901100EBD27040F2052200FB1230C1
:1049A000C1F8090202989DF80610405C0399D1F8FD
:1049B000092288540399D1F80D020130C1F80D0283
:1049C000FFE79DF8060001308DF80600D0E704B03F
:1049D00080BD000081B0EFF3108072B60090FFE759
:1049E000FEE7000082B08DED000A9DED000AB5EEF5
:1049F000400AF1EE10FA07DAFFE79DED000AB1EE8A
:104A0000400A8DED010A02E000980190FFE79DED5C
:104A1000010A02B07047000087B0DDF830C0DDF851
:104A20002CC0DDF828C0DDF824C0DDF820C0DDF89A
:104A30001CC006900591049203938DED020A00209C
:104A40000190FFE7019900200229009008DCFFE7B0
:104A500005980199405C002818BF01200090FFE7ED
:104A60000098C00758B1FFE70598019A805C069945
:104A7000891A8870FFE7019801300190E2E70699F2
:104A8000D1F80300D1F80720052363F3C500C1F86E
:104A90000720C1F803000699049BD1F80300D1F860
:104AA000072063F30200C1F80720C1F8030006994C
:104AB000039BD1F80300D1F8072003F00F0320F483
:104AC000707040EA8310C1F80720C1F8030006990E
:104AD000079BD1F80300D1F8072003F00F0320F45F
:104AE000705040EA8320C1F80720C1F803000699FE
:104AF0000A9BD1F80320D1F8070063F30900C1F83D
:104B00000320C1F8070006990B9BD1F80320D1F8C8
:104B100007006FF3DF236FF3942040EA8320C1F88E
:104B20000320C1F8070006990C9BD1F80320D1F8A7
:104B300007006FF35F5040EA4350C1F80320C1F80B
:104B400007000699089BD1F80300D1F807206FF3FE
:104B50005F236FF3963040EA8330C1F80720C1F835
:104B600003000699099BD1F80300D1F807206FF3E1
:104B7000DF5040EAC350C1F80720C1F803009DEDA3
:104B8000020ABDEEC00A10EE100A0699C1F80B0029
:104B900007B0704784B002900191ADF802200298EE
:104BA00028B9FFE74FF6FF70ADF80E0021E0FFE7F0
:104BB0000198411E0191B8B1FFE70298411C029192
:104BC00000788DF80100BDF802109DF80100484002
:104BD000C2B249F23800C0F6010030F8120080EA93
:104BE0001120ADF80200E3E7BDF80200ADF80E00B9
:104BF000FFE7BDF80E0004B07047000083B00290DC
:104C000001918DF80320FFE70198411E019198B1B1
:104C1000FFE79DF8030002994A1C02920978484078
:104C20008DF802009DF8021048F65C50C0F60100B5
:104C3000405C8DF80300E7E79DF8030003B0704780
:104C400081B0009040F2CC20C2F2000090ED020A48
:104C50009FED192A80EE020A9FED181A20EE010A34
:104C6000009981ED020A90ED010A80EE020A20EE21
:104C7000010A009981ED010A90ED000A80EE020A16
:104C800020EE010A009880ED000A40F2D820C2F21E
:104C9000000090ED020AB1EE400A009981ED050A8C
:104CA00090ED000AB1EE400A009981ED040A4068D7
:104CB0000099C86001B07047DB0F494000003443E1
:104CC00084B002900191029890F820008DF80300C2
:104CD0009DF80300012805D0FFE79DF80300022896
:104CE0000AD1FFE7019A02980168486910434861B8
:104CF00000208DF80F0008E00299486A40F48020F7
:104D0000486201208DF80F00FFE79DF80F0004B006
:104D10007047000088B006900591049203930698AE
:104D200090F820008DF807000698006880680090D1
:104D30000598806808B9FFE700E0FFE79DF80700E5
:104D4000012806D0FFE79DF80700022840F08D807B
:104D5000FFE79DF80300400700280CD4FFE79DF80B
:104D600003000007002806D4FFE79DF80300C006F3
:104D7000002871D5FFE70098C0F301600290029807
:104D8000032809D3FFE70699486A40F40000486207
:104D900001208DF81F0071E00299012088400399DD
:104DA00008600598806868B9FFE705980168C068E1
:104DB00040EA415006990968029A01EB0211C1F8D4
:104DC00080010EE005994A688868C96840EAC20017
:104DD000084306990968029A01EB0211C1F88001A3
:104DE000FFE70598006906990968029A01EB02112C
:104DF000C1F884010598007D01280CD1FFE70698D1
:104E00000068029900EB0111D1F8840140F4807030
:104E1000C1F88401FFE70498406806990968029A7E
:104E200001EB0211C1F88C01049800680699096829
:104E3000029A01EB0211C1F88801069800680299F4
:104E400000EB0111D1F8800140F00100C1F88001B0
:104E500000208DF81F0011E00699486A40F4001008
:104E6000486201208DF81F0008E00699486A40F466
:104E70008020486201208DF81F00FFE79DF81F0089
:104E800008B0704786B004900391049800680190C0
:104E9000049890F820008DF803009DF80300012885
:104EA00006D0FFE79DF80300022840F0B080FFE73E
:104EB00046F20040C4F2000001900199D1F80002CE
:104EC00040F00100C1F800020199D1F8000220F47D
:104ED0007C50C1F800020398426A0199D1F800029F
:104EE00040EA0220C1F800020398406900F01F0167
:104EF000012088400290029A0199D1F81C02904347
:104F0000C1F81C020398C069F0B9FFE7029A019941
:104F1000D1F80C029043C1F80C02039A9088D16832
:104F2000526940EA0140019901EBC201C1F8400217
:104F3000039A10889168526940EA0140019901EB97
:104F4000C201C1F84402FFE70398C06901281ED1DD
:104F5000FFE7029A0199D1F80C021043C1F80C0244
:104F6000039A90881168526940EA0140019901EB67
:104F7000C201C1F84002039A90899168526940EADF
:104F80000140019901EBC201C1F84402FFE7039817
:104F9000806940B9FFE7029A0199D1F80402904371
:104FA000C1F8040207E0029A0199D1F80402104303
:104FB000C1F80402FFE70398006940B9FFE7029ACD
:104FC0000199D1F814029043C1F8140207E0029A43
:104FD0000199D1F814021043C1F81402FFE70398B5
:104FE000006A012808D1FFE7029A0199D1F81C0252
:104FF0001043C1F81C02FFE70199D1F8000220F02C
:105000000100C1F8000200208DF8170008E00499A3
:10501000486A40F48020486201208DF81700FFE7BD
:105020009DF8170006B0704781B0009001B070473E
:1050300086B00490039102920193049890F82000A6
:105040008DF803009DF80300012806D0FFE79DF8C6
:105050000300022840F0D780FFE7039880B9FFE7FC
:1050600004980068C068800748B9FFE70499486A57
:1050700040F40010486201208DF81700CCE00FE0EA
:10508000049800680069800748B9FFE70499486AF6
:1050900040F40010486201208DF81700BCE0FFE7E3
:1050A00004980068039900EB0110D0F8B00100F0FB
:1050B0000400029988600298806858B9FFE7049854
:1050C0000068039900EB0110D0F8B001400D02997F
:1050D00008600AE004980068039900EB0110D0F81A
:1050E000B001C00802994860FFE70498006803997E
:1050F00000EB0110D0F8B00100F002000299C86086
:1051000004980068039900EB0110D0F8B40100F096
:105110000F000299086104980068039900EB0110E0
:10512000D0F8B40180B2000A02998861049800683E
:10513000039900EB0110D0F8B401000C029948610A
:1051400004980068039900EB0110D0F8B8010199A8
:10515000087004980068039900EB0110D0F8B801BA
:10516000000A0199487004980068039900EB011047
:10517000D0F8B801000C0199887004980068039970
:1051800000EB0110D0F8B801000E0199C870049826
:105190000068039900EB0110D0F8BC010199087177
:1051A00004980068039900EB0110D0F8BC01000AD4
:1051B0000199487104980068039900EB0110D0F838
:1051C000BC01000C0199887104980068039900EBF8
:1051D0000110D0F8BC01000E0199C871039838B9CC
:1051E000FFE704980168C86840F02000C86006E046
:1051F00004980168086940F020000861FFE700207A
:105200008DF8170008E00499486A40F4802048624D
:1052100001208DF81700FFE79DF8170006B07047D2
:1052200080B58AB00990002008900998006840690C
:10523000079009980068406806900998006880689F
:10524000059009980068C068049009980068006992
:10525000039009980068806902909DF81C00C007BF
:10526000002800F09480FFE79DF81400C00758B3B1
:10527000FFE709980168012088609DF81400800705
:10528000002804D5FFE7099800F082FD1BE09DF897
:1052900014004007002805D5FFE7089840F4006097
:1052A00008900FE09DF814000007002805D5FFE7DF
:1052B000089840F48050089003E0099800F064FDDD
:1052C000FFE7FFE7FFE7FFE79DF81500C00760B3C2
:1052D000FFE7099801684FF4807088609DF8150019
:1052E0008007002804D5FFE7099800F059FD1BE06E
:1052F0009DF815004007002805D5FFE7089840F401
:10530000005008900FE09DF815000007002805D513
:10531000FFE7089840F48040089003E0099800F007
:105320003BFDFFE7FFE7FFE7FFE79DF81600C0073B
:1053300060B3FFE7099801684FF4803088609DF8FA
:1053400016008007002804D5FFE7099800F030FD1B
:105350001BE09DF816004007002805D5FFE70898D8
:1053600040F4004008900FE09DF816000007002868
:1053700005D5FFE7089840F48030089003E00998CD
:1053800000F012FDFFE7FFE7FFE7FFE7FFE79DF80B
:105390001C000007002810D5FFE79DF81000C0068C
:1053A000002809D5FFE7089840F400700890099894
:1053B00001681020C860FFE7FFE79DF81C00400768
:1053C00000280FD5FFE79DF810000007002808D53A
:1053D000FFE7099801680820C860099800F0CCFA36
:1053E000FFE7FFE79DF81C00800700280BD5FFE7CB
:1053F00009980068C068800720B1FFE7099800F0AD
:10540000BFFAFFE7FFE79DF81C004006002810D513
:10541000FFE79DF80C00C006002809D5FFE70898B3
:1054200040F4806008900998016810200861FFE747
:10543000FFE79DF81C00800600280FD5FFE79DF8C8
:105440000C000007002808D5FFE70998016808202C
:105450000861099800F046FCFFE7FFE79DF81C0093
:10546000C00600280BD5FFE709980068006980078F
:1054700020B1FFE7099800F039FCFFE7FFE79DF84E
:105480001E00800700280FD5FFE79DF81800C00612
:10549000002808D5FFE7099801681020486009989E
:1054A00000F028FCFFE7FFE79DF81E00C00778B179
:1054B000FFE79DF818000007002808D5FFE70998C6
:1054C000016808204860099800F076FCFFE7FFE7D4
:1054D0009DF81D000006002840F18D80FFE79DF833
:1054E00018004007002840F18180FFE79DF81D006B
:1054F000C00750B1FFE79DF80800C00728B1FFE7DB
:10550000089840F001000890FFE79DF81D00800713
:1055100000280BD5FFE79DF808008007002805D577
:10552000FFE7089840F002000890FFE79DF81D0093
:10553000400700280BD5FFE79DF80800400700282A
:1055400005D5FFE7089840F004000890FFE79DF8B4
:105550001D000007002848D5FFE79DF8080010F05F
:10556000700F42D0FFE7029800F0700001460191F1
:10557000102814D0FFE70198202815D0FFE70198E4
:10558000302816D0FFE70198402817D0FFE7019890
:10559000502818D0FFE70198602819D01DE008981E
:1055A00040F00800089019E0089840F010000890BA
:1055B00014E0089840F0200008900FE0089840F0B0
:1055C000400008900AE0089840F08000089005E04C
:1055D000089840F48070089000E0FFE7099801689F
:1055E000886920F070008861FFE7FFE7099801688B
:1055F00004204860FFE7089848B1FFE7089A099936
:10560000486A104348620998FFF70EFDFFE70AB0A9
:1056100080BD000080B584B00290029820B9FFE7F9
:1056200001208DF80F00E0E0029890F8200020B9EA
:10563000FFE7029800F0DEF8FFE7029801680868CB
:1056400040F00100086001F06FF90190FFE7029857
:1056500000684068C007A8B9FFE701F065F9019943
:10566000401A0B280DD3FFE70299486A40F4003036
:1056700048620299052081F8200001208DF80F0072
:10568000B3E0E4E702980168086820F002000860CF
:1056900001F04AF90190FFE702980068406880072E
:1056A000002815D5FFE701F03FF90199401A0B28B2
:1056B0000DD3FFE70299486A40F40030486202992E
:1056C000052081F8200001208DF80F008DE0E3E730
:1056D0000298007E012807D1FFE702980168086858
:1056E00040F08000086006E002980168086820F039
:1056F00080000860FFE70298407E012807D1FFE79D
:1057000002980168086840F04000086006E00298CE
:105710000168086820F040000860FFE70298807E7A
:10572000012807D1FFE702980168086840F02000CF
:10573000086006E002980168086820F02000086010
:10574000FFE70298C07E012807D1FFE702980168B1
:10575000086820F01000086006E0029801680868F8
:1057600040F010000860FFE70298007F012807D191
:10577000FFE702980168086840F00800086006E04A
:1057800002980168086820F008000860FFE70298A6
:10579000407F012807D1FFE702980168086840F0C0
:1057A0000400086006E002980168086820F0040020
:1057B0000860FFE7029B19685A689868D3F80CC024
:1057C00040EA0C00D3F810C040EA0C005B691843B3
:1057D000013A1043C861029900204862029A0121EF
:1057E00082F820108DF80F00FFE79DF80F0004B03D
:1057F00080BD000080B590B00F9000200E900D90FD
:105800000C900B900A900F98006846F20041C4F289
:105810000001884249D1FFE740F2C820C2F20000EF
:105820000168013101600068012812D1FFE7FFE73C
:105830000020099043F64000C4F20200016841F0E4
:1058400000710160006800F0007009900998FFE79E
:10585000FFE7FFE70020089043F63000C4F20200A3
:10586000016841F008010160006800F0080008903C
:105870000898FFE703200A9002210B910021039171
:105880000C910D9009200E9040F60040C4F20200E9
:105890000AA900F055FE039A14200490052101F096
:1058A00021F9049801F014F964E00F98006846F6B5
:1058B0000001C4F2000188425BD1FFE7FFE700204E
:1058C000079043F64000C4F20200016841F0806195
:1058D0000160006800F0806007900798FFE740F2E1
:1058E000C820C2F20000016801310160006801288F
:1058F00012D1FFE7FFE70020069043F64000C4F214
:105900000200016841F000710160006800F0007061
:1059100006900698FFE7FFE7FFE70020059043F6B3
:105920003000C4F20200016841F002010160006829
:1059300000F0020005900598FFE760200A90022021
:105940000B90002001900C9003200D9009200E90E8
:1059500040F20040C4F202000AA900F0F1FD019AF1
:1059600040200290052101F0BDF8029801F0B0F846
:10597000FFE7FFE710B080BD81B0009001B0704735
:1059800080B586B00590059842F2A402C2F20002EA
:1059900042F29C03C2F200030021FFF749FB059885
:1059A000006846F60001C4F20001884240F0E6803B
:1059B000FFE742F2A400C2F200000068A0F201205A
:1059C00001460391072800F2D7800399DFE801F030
:1059D0006C86A0BA041E385240F29C41C2F200010B
:1059E0000020086040F29821C2F2000108680130EE
:1059F000086042F2A400C2F200000068059942F279
:105A00009C02C2F2000204F025FAB6E040F29C418A
:105A1000C2F200010020486040F29821C2F2000169
:105A200048680130486042F2A400C2F200000068F9
:105A3000059942F29C02C2F2000204F00BFA9CE0CB
:105A400040F29C41C2F200010020886040F298219F
:105A5000C2F2000188680130886042F2A400C2F2FC
:105A600000000068059942F29C02C2F2000204F0B4
:105A7000F1F982E040F29C41C2F200010020C860CE
:105A800040F29821C2F20001C8680130C86042F2B9
:105A9000A400C2F200000068059942F29C02C2F222
:105AA000000204F0D7F968E040F29C41C2F2000124
:105AB0000020086140F29821C2F20001086901301B
:105AC000086142F2A400C2F200000068059942F2A7
:105AD0009C02C2F2000204F0BDF94EE040F29C418B
