:020000040800F2
:10000000A0E000209D010008E1A00008C18F0008C9
:10001000FD9C0008D90B0008E53501080000000030
:10002000000000000000000000000000A1FF000828
:100030008D49000800000000F1A30008D5FF00086A
:10004000B7010008B7010008B7010008B7010008B0
:10005000B7010008B7010008B7010008B7010008A0
:10006000B7010008B7010008B1490008B70100084E
:1000700011370008B7010008B7010008B7010008F0
:10008000B7010008B7010008B7010008B701000870
:10009000DD0B0008B7010008B7010008BD490008E2
:1000A000B7010008B7010008B7010008B701000850
:1000B000B7010008E1000108F5000108B7010008D8
:1000C000B7010008B7010008B7010008B701000830
:1000D000B701000869330108B70100087933010846
:1000E000B7010008B7010008B7010008B701000810
:1000F000B7010008B7010008B7010008B701000800
:10010000B7010008B701000809010108B70100089C
:10011000B7010008B70100081D01010831010108FD
:1001200021370008F5470008054800081548000871
:10013000B7010008B7010008B7010008B7010008BF
:10014000ED0B0008B7010008B7010008B70100086F
:10015000B70100082548000835480008A534010803
:10016000B7010008B7010008B7010008B70100088F
:10017000B7010008B7010008B7010008000000003F
:10018000B7010008B7010008DFF80CD000F064FBED
:100190000048004735470108A0E000200648804796
:1001A00006480047FEE7FEE7FEE7FEE7FEE7FEE75C
:1001B000FEE7FEE7FEE7FEE7CD0001088901000843
:1001C0002DE9F05F0546002092469B46884606468C
:1001D000814640241BE0284641464746224600F01F
:1001E0006CFA53465A46C01A914110D3114618462C
:1001F000224600F053FA2D1A67EB01084F462246BB
:100200000120002100F04AFA17EB00094E41201EA0
:10021000A4F10104DFDC484631462A464346BDE8E6
:10022000F09F40EA01039B0703D009E008C9121FB1
:1002300008C0042AFAD203E011F8013B00F8013BA0
:10024000521EF9D27047D2B201E000F8012B491ECC
:10025000FBD270470022F6E710B513460A46044663
:100260001946FFF7F0FF204610BD2DE9FE4F8046EE
:1002700081EA0300C00F0C46009021F0004123F0FA
:100280000045B8EB0200A94105D240462146904600
:100290001C460B46024623F00040104347D0270D72
:1002A000C7F30A00C3F30A510290401A0190402894
:1002B0006BDAC3F3130040F4801B0098924620B120
:1002C0000023D2EB030A63EB0B0B01985946C0F1F4
:1002D0004002504600F0E2F906460D4650465946A7
:1002E000019A00F0FAF910EB08006141002487EA56
:1002F000115284EAE7731A4340D0009A62B3019A1C
:10030000012A4FEA075215DC001B61EB02014FF096
:10031000004202EA0752CDE90042001C41F580117B
:1003200032462B4600F031FA03B0BDE8F08F40466C
:100330002146F9E7001B61EB0201001C41F5801327
:1003400000185B412018A2F5001747EB030140EAB3
:10035000D570B6196D4111E06D084FEA360645EAD1
:10036000C0754FEA0752001B61EB0201001C41F50A
:10037000801149084FEA30000019514132462B469E
:1003800003B0BDE8F04F00F0F1B900980122400041
:100390000023D0EB020263EBE073009821464FEAA2
:1003A000E074B8EB000061EB0401E9E783F000437F
:1003B0005BE781F0004158E72DE9FE4F81EA030435
:1003C00004F0004421F0004100944FF0000B23F0B2
:1003D000004350EA01045ED052EA03045BD0C3F349
:1003E0000A54C1F30A552C44A4F2F3340194A0FB3F
:1003F0000254C1F3130141F48011C3F3130343F416
:10040000801301FB024400FB034E840A970A44EA6E
:10041000815447EA8357A4FB076802958D0A05FBC0
:1004200007854FEA932C04FB0C542705029D4FEAE5
:10043000065847EA1637B5EB08056EEB070C870E32
:10044000920E47EA811742EA8312A7FB0201B6EB3C
:100450000B0164EB00042B0D43EA0C335E1844EBF4
:100460001C50DA465146E7FB0201C5F313044FEA7C
:100470000B3343EA14534FEA0432019C43EA060368
:10048000A4F10C040294009CCDE900B400F07DF9C5
:1004900003B0BDE8F08F00200146F9E72DE9F04DEB
:1004A00081EA030404F0004B21F0004514464FF0AC
:1004B000000A23F0004150EA050220D054EA01026C
:1004C0001DD0C5F30A570246C5F31303C1F3130049
:1004D000C1F30A5640F4801543F48013A7EB0608D5
:1004E000101BD64608F2FD3873EB050002D308F165
:1004F000010801E092185B41B8F1000F03DA002017
:100500000146BDE8F08D00204FF480110646844678
:100510000EE0171B73EB050705D3121B63EB0503F6
:1005200006434CEA010C49084FEA300092185B413F
:1005300050EA0107EDD152EA030012D082EA04002A
:1005400083EA0501084305D0101BAB4106D2012206
:10055000002306E000224FF0004302E06FF00102AA
:1005600053101AEB06004CEB085110EB0A0041EB5C
:100570000B01BDE8F04D00F0F9B830B5041E71F183
:10058000000404DB4FF00044404264EB0101141E00
:1005900073F1000405DB1C464FF00043524263EB4D
:1005A0000403801A994101D3012030BD002030BDE1
:1005B00030B5041E71F1000404DB4FF000444042EA
:1005C00064EB0101141E73F1000405DB1C464FF0BF
:1005D0000043524263EB0403101A8B4101D3012004
:1005E00030BD002030BD30B5041E71F1000404DBC5
:1005F0004FF00044404264EB0101141E73F100040B
:1006000005DB1C464FF00043524263EB0403801AA3
:10061000994101D2012030BD002030BD0EB5C10F7F
:1006200080EAE0700844CA07002140F233438DE8B5
:100630000E000A460B4600F0A8F803B000BD00F01B
:10064000004230F000400AD0C10D01F56071C0F3E6
:10065000160042EA0151C2084007114370470020CA
:100660000146704701F0004330B421F0004150EAE8
:10067000010206D00A0DA2F56072C1F31301002A2F
:1006800002DC30BC00207047440F44EAC104C100C2
:10069000E01830BC00EBC25000F031B8202A04DB77
:1006A000203A00FA02F1002070479140C2F1200385
:1006B00020FA03F3194390407047202A04DB203AC4
:1006C00021FA02F00021704721FA02F3D040C2F172
:1006D00020029140084319467047202A06DBCB17B9
:1006E000203A41FA02F043EAE07306E041FA02F3ED
:1006F000D040C2F1200291400843194670470029BA
:10070000A8BF7047401C490008BF20F00100704797
:1007100010B4B0FA80FC00FA0CF050EA010404BFF7
:1007200010BC704749B1CCF1200421FA04F411FA4D
:100730000CF118BF012121430843A3EB0C01CB1D91
:100740004FEA00614FEA102042BF002010BC704702
:1007500000EBC35010440029A4BF10BC7047401CDC
:10076000490008BF20F0010010BC704710B5141EEE
:1007700073F1000408DA401C41F1000192185B415A
:100780001A4301D120F0010010BD2DE9F04D924631
:100790009B4611B1B1FA81F202E0B0FA80F2203248
:1007A0009046FFF77BFF04460F4640EA0A0041EA05
:1007B0000B0153465A46084313D0114653EA010031
:1007C00019D0C8F140025046FFF777FF05460E46A4
:1007D000504659464246FFF761FF084305D00120C5
:1007E00004E020463946BDE8F08D0020054346EA86
:1007F000E0762C4337430A986305E40AA0EB08002F
:100800000022FD0A44EA47540A3002D5002001467E
:10081000E9E7010510196941DDE908450019694159
:10082000BDE8F04DA2E7000030B5041E71F10004F0
:1008300004DB4FF00044404264EB0101141E73F1ED
:10084000000405DB1C464FF00043524263EB0403F7
:100850008B4208BF824230BD064C074D06E0E0687F
:1008600040F0010394E8070098471034AC42F6D3F7
:10087000FFF78EFC74830108948301080EB540F2E3
:10088000334102910021CDE900110A460B46FFF7E2
:100890007CFF03B000BD70B5C1F30A5201F0004502
:1008A0000024C1F3130140F2FF3341F480119A4256
:1008B00001DA002070BD40F233439A42A2F2334283
:1008C00003DC5242FFF7F9FE00E090402C43F1D0E8
:1008D000404270BD81B000208DF80300FFE79DF815
:1008E0000300032870DCFFE79DF8031040F2581066
:1008F000C2F2000000EB810292ED3D0A01EB8101A2
:1009000000EB810090ED031A30EE410A9FED2F1AA3
:10091000B4EE410AF1EE10FA1BDDFFE79DF803107B
:1009200040F25810C2F2000000EB810191ED3D0A47
:100930009FED271A30EE010A81ED3D0A9DF8031064
:1009400000EB810090ED390AB1EE400A80ED390AE2
:10095000FFE79DF8031040F25810C2F2000000EBD0
:10096000810292ED3D0A01EB810100EB810090EDE7
:10097000031A30EE410A9FED171AB4EE410AF1EE68
:1009800010FA1BDAFFE79DF8031040F25810C2F28C
:10099000000000EB810191ED3D0A9FED0F1A30EE52
:1009A000010A81ED3D0A9DF8031000EB810090EDF6
:1009B000390AB1EE400A80ED390AFFE79DF80300DD
:1009C00001308DF803008AE701B070470000B4429F
:1009D000000034C30000B4C20000344385B004906A
:1009E0000391029204990878497840EA0120ADF811
:1009F0000600BDF9060000EE100AB8EEC00A40F28B
:100A00001400C2F2000090ED001A20EE010A0399D2
:100A100081ED000A049A9178D27841EA0221ADF87A
:100A20000610BDF9061000EE101AB8EEC00A90EDDF
:100A3000001A20EE010A039981ED010A049A117946
:100A4000527941EA0221ADF80610BDF9061000EE18
:100A5000101AB8EEC00A90ED001A20EE010A0398B1
:100A600080ED020A04988179C279007A000440EA94
:100A70000220084400909DED000AB8EE400A9FED68
:100A8000041A20EE010A029880ED000A05B07047B2
:100A900000401C4284B003900291019203990878AF
:100AA000497840EA0120ADF80200BDF9020000EEED
:100AB000100AB8EEC00A40F21800C2F2000090ED31
:100AC000001A20EE010A029981ED000ABDF9021018
:100AD00000EE101AB8EEC00A9FED272A80EE020A37
:100AE0009FED261A20EE010A019981ED000A039A72
:100AF0009178D27841EA0221ADF80210BDF90210D6
:100B000000EE101AB8EEC00A90ED003A20EE030A8B
:100B1000029981ED010ABDF9021000EE101AB8EE3B
:100B2000C00A80EE020A20EE010A019981ED010A55
:100B3000039A1179527941EA0221ADF80210BDF908
:100B4000021000EE101AB8EEC00A90ED003A20EE46
:100B5000030A029880ED020ABDF9020000EE100AB5
:100B6000B8EEC00A80EE020A20EE010A019880ED7C
:100B7000020A04B0704700BF000000470000FA44BA
:100B800083B002900191029908784978C00040EA48
:100B90005110ADF80200BDF90200B0F5806F07DB1F
:100BA000FFE7BDF80200A0F50060ADF80200FFE726
:100BB000BDF9020000EE100AB8EEC00AB4EE001A49
:100BC00020EE010AB3EE071A30EE010A019880ED1B
:100BD000000A03B070470000FFE7FEE780B540F66B
:100BE0007870C2F2000004F05FFB80BD80B540F673
:100BF000A070C2F2000004F057FB80BD80B582B047
:100C0000ADF8060040F61861C2F200012E2008601F
:100C100000208860C860022008619DF8070040F647
:100C20001462C2F2000210709DF80600507040F687
:100C30007870C2F200006B4604F0B0F802B080BDDC
:100C400080B584B0ADF80E00ADF80C10ADF80A20F8
:100C5000ADF8083040F63C61C2F200012F20086078
:100C600000208860C860082008619DF80F0040F6E9
:100C70003462C2F2000210709DF80E0050709DF8B0
:100C80000D0090709DF80C00D0709DF80B00107155
:100C90009DF80A0050719DF8090090719DF80800B8
:100CA000D07140F67870C2F2000001AB04F076F823
:100CB00004B080BD40F23410C2F2000090ED000A92
:100CC000B2EE081AB4EE410AF1EE10FA07DAFFE7C5
:100CD00040F23411C2F200010020C87261E040F21B
:100CE0003410C2F2000090ED000AB3EE021AB4EE26
:100CF000410AF1EE10FA0FDDFFE740F25810C2F2A0
:100D0000000090F81C0138B1FFE740F23411C2F244
:100D100000010120C87243E040F23410C2F200002A
:100D200090ED000AB2EE0E1AB4EE410AF1EE10FA9E
:100D30000FDDFFE740F25810C2F2000090F81C01EE
:100D400038B9FFE740F23411C2F200010220C87244
:100D500025E040F23410C2F20000C07A01281DD113
:100D6000FFE740F23410C2F2000090ED000AB2EE4C
:100D7000081AB4EE410AF1EE10FA0FDDFFE740F277
:100D80005810C2F2000090F81C0138B9FFE740F299
:100D90003411C2F200010220C872FFE7FFE7FFE74B
:100DA000FFE740F25810C2F2000090F81C01E8B1D1
:100DB000FFE740F23410C2F2000090ED000AB2EEFC
:100DC000081AB4EE410AF1EE10FA0FDDFFE740F227
:100DD0003410C2F20000C07A012807D1FFE740F2C8
:100DE0003411C2F200010220887235E040F258103E
:100DF000C2F2000090F81C0130BBFFE740F2341053
:100E0000C2F2000090ED000AB2EE081AB4EE410AF8
:100E1000F1EE10FA18DDFFE740F23410C2F20000E4
:100E2000C07A022810D1FFE740F2CA40C2F20000A7
:100E30008079C006002807D5FFE740F23411C2F2DE
:100E400000010120887206E040F23411C2F2000174
:100E500000208872FFE7FFE741F6FC00C2F20000C5
:100E60000089142808DBFFE740F63260C2F2000078
:100E70000088C92807DBFFE740F23411C2F2000105
:100E800000208872FFE741F6FC00C2F200000089F2
:100E9000472807DBFFE740F23411C2F200010220CD
:100EA0008872FFE740F63261C2F200010888013023
:100EB0000880704770B586B0059002F0D9F8FFE75A
:100EC00040F28B40C2F2000003F062FD02F010FA23
:100ED00002F01EF840F24050C2F2000009F060FB40
:100EE00040F2E020C2F2000003F0EEFE00F0E4FA6F
:100EF00040F25810C2F20000049012F009FCFFF713
:100F0000D9FEDDF810E09EED313A9EED322A9EEDDD
:100F1000331A9EED340ABDEEC33A13EE100ABDEE4D
:100F2000C22A12EE101ABDEEC11A11EE102ABDEE41
:100F3000C00A10EE103A9EED350ABDEEC00A10EE62
:100F400010CA9EED360ABDEEC00A10EE104A9EEDA4
:100F5000370ABDEEC00A10EE105A9EED380ABDEEFB
:100F6000C00A10EE106AEE46CEF80C60CEF80850BB
:100F7000CEF80440CEF800C002F022FA012013F0AF
:100F800055FC9DE780B584B00390FFE740F25F50C9
:100F9000C2F2000000F2112140F28722C2F20002E8
:100FA00009F058FA012815D1FFE740F28720C2F274
:100FB0000000018849BA019181788DF80B100199E0
:100FC0009DF80B20C31C40F67870C2F2000000F0C0
:100FD00005F8FFE7012013F029FCD7E780B586B0BC
:100FE000059004918DF80F200293049840F6E45187
:100FF000C2F20001086000208860C8609DF80F0000
:1010000008610598029A01AB03F0C8FE06B080BDE6
:1010100086B0DDF830C0DDF82CC0DDF828C0DDF882
:1010200024C0DDF820C0DDF81CC0DDF818C0059034
:1010300004910392029300200190FFE701990020A0
:101040000229009008DCFFE704980199405C002821
:1010500018BF01200090FFE70098C00758B1FFE7D4
:101060000498019A805C0599891A8870FFE70198B5
:1010700001300190E2E70599D1F80320D1F807305B
:10108000D1F80B0042F03802C1F80730C1F8032054
:10109000C1F80B00DDF80CC00599D1F80320D1F898
:1010A0000730D1F80B006CF30202C1F80730C1F829
:1010B0000320C1F80B00DDF808C00599D1F8032022
:1010C000D1F80730D1F80B000CF00F0C22F470723D
:1010D00042EA8C12C1F80730C1F80320C1F80B00B6
:1010E000DDF818C00599D1F80320D1F80730D1F800
:1010F0000B000CF00F0C22F4705242EA8C22C1F863
:101100000730C1F80320C1F80B00DDF824C00599B1
:10111000D1F80330D1F80720D1F80B006CF30902A5
:10112000C1F80330C1F80720C1F80B00DDF828C072
:101130000599D1F80330D1F80720D1F80B006FF3EF
:10114000DF2C6FF3942242EA8C22C1F80330C1F8FD
:101150000720C1F80B00DDF82CC00599D1F8033049
:10116000D1F80720D1F80B006FF35F5242EA4C52DE
:10117000C1F80330C1F80720C1F80B00DDF81CC02E
:101180000599D1F80320D1F80730D1F80B006FF39F
:101190005F2C6FF3963242EA8C32C1F80730C1F807
:1011A0000320C1F80B00DDF820C00599D1F8032019
:1011B000D1F80730D1F80B006FF3DF5242EACC527E
:1011C000C1F80730C1F80320C1F80B0000200190DE
:1011D000FFE70198089988420ED2FFE70C98007843
:1011E0000599019A1144C8730C9801300C90FFE7DF
:1011F000019801300190ECE706B070472DE9F04707
:10120000B6B0DDF81491DDF81081439F429E419DF8
:10121000409CDDF8FCE0DDF8F8C0CDF8A490CDF8F6
:10122000A0802797269625952494CDF88CE0CDF8BC
:1012300088C0219320921F911E902AA807901EA972
:101240002D220892FEF7EDFF0799089A4FF6FF70DE
:10125000ADF83E0011A8FEF7E4FF0DA81090A52000
:101260008DF834003320ADF8350040F68410C2F21A
:10127000000000788DF8370010980421FF2203F059
:1012800001FD8DF8380040F20130ADF839004FF41F
:101290008870ADF82C0042F23200C2F200000078F3
:1012A000012808D1FFE70120ADF82E0040F201101F
:1012B000ADF8300076E042F23200C2F20000007871
:1012C000652808D1FFE76520ADF82E0040F26510D3
:1012D000ADF8300065E042F23200C2F20000007862
:1012E000032808D1FFE70320ADF82E0040F20310D9
:1012F000ADF8300054E042F23200C2F20000007853
:10130000672808D1FFE76720ADF82E0040F267108C
:10131000ADF8300043E042F23200C2F20000007843
:10132000042808D1FFE70420ADF82E004FF48270A6
:10133000ADF8300032E042F23200C2F20000007834
:10134000682808D1FFE76820ADF82E004FF4B4708C
:10135000ADF8300021E042F23200C2F20000007825
:10136000052808D1FFE70520ADF82E0040F2051052
:10137000ADF8300010E042F23200C2F20000007816
:10138000692808D1FFE76920ADF82E0040F2691006
:10139000ADF83000FFE7FFE7FFE7FFE7FFE7FFE714
:1013A000FFE7FFE70DA8019010901098BDF83E20D0
:1013B000072103F033FCADF83E000BA8029010901B
:1013C0001098BDF83E20062103F028FCADF83E0041
:1013D00011A8049010901098BDF83E202D21039183
:1013E00003F01CFC019B0299039A84460498ADF813
:1013F0003EC040F2F82CC2F2000CCDF814C0CDF87B
:1014000028C04FF0000CCDF818C08DF827C01093FD
:10141000DDF828C0DDF840E0DEF80030DEF803E05B
:10142000CCF803E0CCF800300A9B07330A939DF810
:10143000273007338DF8273010910A9B1099B1F8A7
:1014400004C0A3F804C0096819600A9906310A911A
:101450009DF8271006318DF8271010900A981099E2
:10146000FEF7DFFE05980A992D310A919DF82710A5
:101470002D318DF827100DF13E0110910A9A109927
:10148000098811800A9902310A919DF827100231CA
:101490008DF8271040F68412C2F200021178013153
:1014A00011709DF8271011F0F5FE069836B0BDE8D2
:1014B000F08700000000000080B5ADF52E7D40F201
:1014C0005810C2F2000090F8B40040B1FFE740F2BB
:1014D0008B40C2F20000007A012819D1FFE740F2E8
:1014E0005811C2F20001AB910020AC90C1F8C400C9
:1014F000C1F8C800C1F8CC00C1F8D000C1F8D400D0
:10150000C1F8D800C1F8DC00C1F8E00001F070BB00
:1015100040F25810C2F2000090F8B400022813D034
:10152000FFE740F25810C2F2000090F8B400032820
:101530000AD0FFE740F25810C2F2000090F8B40061
:10154000012840F0CA85FFE740F68C50C2F2000047
:1015500090ED030A9FEDF81A70EE410A30EE011A81
:101560009FEDF60A13F07CF840F6E860C2F2000046
:1015700080ED000A40F25810C2F2000090F8B4006A
:10158000022840F05982FFE740F68C50C2F200007A
:1015900090ED031A9FEDE90A30EE410A40F6B05093
:1015A000C2F2000080ED000A90ED000A9FEDE21A01
:1015B000B4EE410AF1EE10FA0DDDFFE740F6B0504F
:1015C000C2F2000090ED000A9FEDDD1A30EE010A34
:1015D00080ED000A1BE040F6B050C2F2000090ED32
:1015E000000A9FEDD81AB4EE410AF1EE10FA0DDAB6
:1015F000FFE740F6B050C2F2000090ED000A9FED08
:10160000D21A30EE010A80ED000AFFE7FFE740F250
:10161000CA40C2F200009090B0F9010000EE100A3A
:10162000B8EEC00A9FEDC91A8DED911A80EE010A3D
:1016300010EE100AFFF703F841EC100B8DED860B4E
:1016400040F6B050C2F2000092900068FEF7F7FF3B
:1016500041EC100B51EC100B9FEDBD0B53EC102B1C
:1016600095939492FEF71AFF41EC100B51EC100B7E
:101670009FEDB90B53EC102B97939692FEF79CFEBF
:1016800041EC100B15F0A8FC90989DED911A8DED92
:10169000880BB0F9030000EE100AB8EEC00A80EE25
:1016A000010A10EE100AFEF7CAFF024692988392D2
:1016B0000A46839942EC101B8DED840B0068FEF7FF
:1016C000BEFF949A959B41EC100B51EC100BFEF76A
:1016D000E5FE969A979B41EC100B51EC100BFEF730
:1016E0006BFE41EC100B15F0DBFC9DED841B51EC07
:1016F000110B53EC102BFEF75FFE9DED861B9DED4D
:10170000880B41EC120B8DED8A2B51EC110B53EC35
:10171000102BFEF751FE9DED8A0B41EC110B51ECA5
:10172000110B53EC102BFEF741FE41EC100B8DED2D
:101730008C0B49F62850C2F20000A6900068FEF714
:101740007EFF9DED8C1B41EC100B51EC110B53EC0B
:10175000102BFEF731FE41EC100B51EC100BFEF795
:1017600081FF9DED911A0146909840F25812C2F205
:101770000002A592C2F8B810B0F9010000EE100AFC
:10178000B8EEC00A80EE010A10EE100AFEF757FF0D
:10179000024692988F920A468F9942EC101B8DED6B
:1017A0009A0B0068FEF74BFF949A959B41EC100B47
:1017B00051EC100BFEF772FE969A979B41EC100BC2
:1017C00051EC100BFEF7F8FD41EC100B15F068FC26
:1017D00090989DED911A8DED9C0BB0F9030000EEF1
:1017E000100AB8EEC00A80EE010A10EE100AFEF7E9
:1017F00026FF0246929893920A46939942EC101B58
:101800008DED980B0068FEF71AFF949A959B41ECBA
:10181000100B51EC100BFEF741FE969A979B41EC92
:10182000100B51EC100BFEF7C7FD41EC100B15F03F
:10183000D3FB9DED981B51EC110B53EC102BFEF7D5
:10184000BBFD9DED9A1B9DED9C0B41EC120B8DEDAC
:101850009E2B51EC110B53EC102BFEF7ADFD9DEDC3
:101860009E0B41EC110B51EC110B53EC102BFEF7BE
:10187000FCFC0246A698A1920A46A19942EC101BD4
:101880008DEDA20B0068FEF7DAFE9DEDA21B41EC88
:10189000100B51EC110B53EC102BFEF78DFD41ECAE
:1018A000100B51EC100BFEF7DDFEA599C1F8BC0042
:1018B00040F68C50C2F2000090ED030A40F6E8605A
:1018C000C2F20000D0ED000A40F6A060C2F20000B3
:1018D00008F03EFCA598B1EE400A80ED300A90ED8C
:1018E000300A03F0C3F810EE100AFEF7A8FE024615
:1018F000A698A7920A46A79942EC101B8DEDA80B5B
:101900000068FEF79CFE41EC100B9FED151B53EC9D
:10191000112B51EC100BFEF74FFD9DEDA80B41EC88
:10192000110B53EC112B51EC100BFEF741FE00286C
:1019300040F0818030E000BF00003443A89AB541F8
:101940000000B4C3000034C30000B44300FEFF46EF
:10195000000000000080664000000060FB2109409C
:10196000000000000000E03FFCA9F1D24D62503FB2
:10197000AE47E17A14AEE73F333333333333F73FC7
:10198000666666666666004014AE47E17A14DEBF9E
:10199000CDCCCCCCCCCCFC3F40F6B050C2F2000059
:1019A00090ED000A03F062F810EE100AFEF747FE11
:1019B00041EC100B1FED161B53EC112B51EC100BCF
:1019C000FEF7F6FDB8BBFFE740F25810C2F2000088
:1019D000829090ED300A8DED7F0A10EE100AFEF72E
:1019E0002EFE41EC100B1FED201B53EC112B51EC84
:1019F000100BFEF7E1FC9DED7F0A41EC110B8DED24
:101A0000801B03F033F810EE100AFEF718FE9DED70
:101A1000801B41EC100B51EC110B53EC102BFEF71B
:101A20003DFD41EC100B51EC100BFEF71BFE8299B3
:101A3000C1F8C000FFE74FE340F25810C2F20000C7
:101A400090F8B400032840F00182FFE749F62850DF
:101A5000C2F200000068FEF7F2FD41EC100B1FED32
:101A60003C1B53EC112B51EC100BFEF7A5FC41EC89
:101A7000100B15F015FB51EC100B1FED410B53EC47
:101A8000102BFEF799FC41EC100B51EC100BFEF7FC
:101A9000E9FD40F25811C2F20001C1F8C00040F265
:101AA000CA40C2F200004079400600282AD5FFE76C
:101AB00049F62850C2F200000068FEF7C0FD41EC74
:101AC000100B1FED551B53EC112B51EC100BFEF7B7
:101AD00073FC41EC100B15F0E3FA51EC100B1FED09
:101AE000580B53EC102BFEF767FC41EC100B51EC3C
:101AF000100BFEF7B7FD40F25811C2F20001C1F819
:101B0000C000FFE740F68C50C2F20000569090ED06
:101B1000031A1FED760A30EE410A10EE100AFEF7A6
:101B20008EFD0246569857920A46579942EC101B72
:101B30008DED580BB0F90200FEF770FD41EC100B73
:101B40001FED6F1B53EC112B51EC100BFEF734FC07
:101B50009DED580B02460B4651EC100B43EC102B3D
:101B600053EC102BFEF781FB41EC100B51EC100BEA
:101B7000FEF778FD40F6B051C2F200016A910860AC
:101B800040F2CA40C2F200006890B0F9010000EED5
:101B9000100AB8EEC00A1FED931A8DED691A80EE97
:101BA000010A10EE100AFEF74AFD02466A985A92A0
:101BB0000A465A9942EC101B8DED5E0B0068FEF749
:101BC0003EFD41EC100B51EC100B1FED9F0B53EC45
:101BD000102B6D936C92FEF761FC41EC100B51ECF5
:101BE000100B1FEDA30B53EC102B6F936E92FEF7AF
:101BF000E3FB41EC100B15F0EFF968989DED691AC5
:101C00008DED600BB0F9030000EE100AB8EEC00ACB
:101C100080EE010A10EE100AFEF711FD02466A98E6
:101C20005B920A465B9942EC101B8DED5C0B0068E1
:101C3000FEF705FD6C9A6D9B41EC100B51EC100BFF
:101C4000FEF72CFC6E9A6F9B41EC100B51EC100BC5
:101C5000FEF7B2FB41EC100B15F022FA9DED5C1B78
:101C600051EC110B53EC102BFEF7A6FB9DED5E1B08
:101C70009DED600B41EC120B8DED622B51EC110BC5
:101C800053EC102BFEF798FB9DED620B41EC110B12
:101C900051EC110B53EC102BFEF788FB41EC100BB1
:101CA0008DED640B49F62850C2F200007890006870
:101CB000FEF7C5FC9DED641B41EC100B51EC110BC4
:101CC00053EC102BFEF778FB41EC100B51EC100B92
:101CD0001FEDD10B53EC102B7D937C92FEF7DEFBB6
:101CE00041EC100B51EC100BFEF7BCFC9DED691A9A
:101CF0000146689840F25812C2F200027E92C2F881
:101D0000B810B0F9010000EE100AB8EEC00A80EE7B
:101D1000010A10EE100AFEF792FC02466A986792DA
:101D20000A46679942EC101B8DED720B0068FEF7B6
:101D300086FC6C9A6D9B41EC100B51EC100BFEF77E
:101D4000ADFB6E9A6F9B41EC100B51EC100BFEF744
:101D500033FB41EC100B15F0A3F968989DED691A5F
:101D60008DED740BB0F9030000EE100AB8EEC00A56
:101D700080EE010A10EE100AFEF761FC02466A9836
:101D80006B920A466B9942EC101B8DED700B00684C
:101D9000FEF755FC6C9A6D9B41EC100B51EC100B4F
:101DA000FEF77CFB6E9A6F9B41EC100B51EC100B15
:101DB000FEF702FB41EC100B15F00EF99DED701BC8
:101DC00051EC110B53EC102BFEF7F6FA9DED721B44
:101DD0009DED740B41EC120B8DED762B51EC110B3C
:101DE00053EC102BFEF7E8FA9DED760B41EC110B4E
:101DF00051EC110B53EC102BFEF737FA0246789892
:101E000079920A46799942EC101B8DED7A0B0068A5
:101E1000FEF715FC9DED7A1B41EC100B51EC110BFC
:101E200053EC102BFEF7C8FA7C9A7D9B41EC100B0B
:101E300051EC100BFEF732FB41EC100B51EC100B88
:101E4000FEF710FC7E99C1F8BC0044E140F2581046
:101E5000C2F2000090F8B400012840F03B81FFE797
:101E600040F68C50C2F2000090ED031A9FEDCD0AAF
:101E700030EE410A40F6B050C2F20000469080EDCC
:101E8000000A40F2CA40C2F200004490B0F90100DA
:101E900000EE100AB8EEC00A9FEDC31A8DED451A88
:101EA00080EE010A10EE100AFEF7C9FB02464698C2
:101EB00038920A46389942EC101B8DED3C0B0068B5
:101EC000FEF7BDFB41EC100B51EC100B9FEDB80B76
:101ED00053EC102B49934892FEF7E0FA41EC100BBB
:101EE00051EC100B9FEDB40B53EC102B4B934A921B
:101EF000FEF762FA41EC100B15F06EF844989DED78
:101F0000451A8DED3E0BB0F9030000EE100AB8EE55
:101F1000C00A80EE010A10EE100AFEF790FB02469E
:101F2000469839920A46399942EC101B8DED3A0BCE
:101F30000068FEF784FB489A499B41EC100B51EC7A
:101F4000100BFEF7ABFA4A9A4B9B41EC100B51EC8D
:101F5000100BFEF731FA41EC100B15F0A1F89DEDD6
:101F60003A1B51EC110B53EC102BFEF725FA9DEDAB
:101F70003C1B9DED3E0B41EC120B8DED402B51ECCB
:101F8000110B53EC102BFEF717FA9DED400B41ECB3
:101F9000110B51EC110B53EC102BFEF707FA41EC2F
:101FA000100B51EC100BFEF75DFB9DED451A014641
:101FB000449840F25812C2F200025592C2F8B8108A
:101FC000B0F9010000EE100AB8EEC00A80EE010A76
:101FD00010EE100AFEF733FB0246469843920A467B
:101FE000439942EC101B8DED4E0B0068FEF727FB6A
:101FF000489A499B41EC100B51EC100BFEF74EFA3E
:102000004A9A4B9B41EC100B51EC100BFEF7D4F9A4
:1020100041EC100B15F044F844989DED451A8DEDF8
:10202000500BB0F9030000EE100AB8EEC00A80EEC3
:10203000010A10EE100AFEF702FB0246469847928C
:102040000A46479942EC101B8DED4C0B0068FEF7D9
:10205000F6FA489A499B41EC100B51EC100BFEF735
:102060001DFA4A9A4B9B41EC100B51EC100BFEF7FA
:10207000A3F941EC100B14F0AFFF9DED4C1B51EC9C
:10208000110B53EC102BFEF797F99DED4E1B9DEDB8
:10209000500B41EC120B8DED522B51EC110B53EC0C
:1020A000102BFEF789F99DED520B41EC110B51EC11
:1020B000110B53EC102BFEF7D8F841EC100B51EC40
:1020C000100BFEF7CFFA5599C1F8BC000020C1F8FB
:1020D000C000FFE7FFE7FFE7FFE740F2CA40C2F2B8
:1020E0000000B0F90100FEF799FA41EC100B9FEDEA
:1020F000341B53EC112B51EC100BFEF7CFF941ECD4
:10210000100B51EC100BFEF7ADFA00EE100A02F0C6
:10211000ADFC10EE100AFEF792FA41EC100B51ECF8
:10212000100B9FED290B53EC102BFEF75CFA70BBE4
:10213000FFE740F2CA40C2F20000B0F90300FEF728
:102140006DFA41EC100B9FED1E1B53EC112B51EC63
:10215000100BFEF7A3F941EC100B51EC100BFEF73E
:1021600081FA00EE100A02F081FC10EE100AFEF770
:1021700066FA41EC100B51EC100B9FED130B53EC76
:10218000102BFEF7FAF9002840F01A81FFE7002033
:102190008DF8B702FFE79DF8B702032800F3F78038
:1021A0002EE000BFA89AB54100FEFF4600BF00BF69
:1021B000000000000080664000000060FB21094034
:1021C00000000000C0FFDF409A9999999999A93FB2
:1021D000213A7F669EA0F63F00000000000000400C
:1021E00097D17E5AFB210940000000000000084002
:1021F0000000C84200BF00BF97D17E5AFB210940B2
:1022000040F25811C2F200013791D1F8B80028907D
:10221000D1F8BC00D1F8C0102291FEF710FA0246A6
:10222000229823920A46239942EC101B8DED260B2F
:10223000FEF705FA41EC100B1FED1B1B53EC112BA5
:1022400051EC100BFEF7B8F841EC100B51EC100BF1
:102250001FED1F0B53EC102BFEF720F941EC100B78
:102260008DED240B9DF8B71240F22000C2F2000061
:1022700000EB81022A9250F82100FEF7E0F99DED73
:10228000240B41EC110B53EC112B51EC100B2D9145
:102290002C90FEF791F89DED260B41EC110B51ECC3
:1022A000110B53EC102BFDF7E0FF02462898299202
:1022B0000A46299942EC101B8DED300BFEF7BFF951
:1022C00002462A982B920A462B9942EC101B8DED60
:1022D0002E0B4068FEF7B3F902462C980B462D9959
:1022E00043EC102B53EC102BFEF766F89DED2E0BF4
:1022F00041EC110B51EC110B53EC102BFDF7B5FF1A
:102300009DED300B41EC110B14F066FD51EC100B00
:102310001FED4D0B53EC102BFEF7C0F841EC100BEA
:102320008DED320B9DF8B712369140F20400C2F2E7
:10233000000050F82100FEF782F99DED320B41ECD0
:10234000110B8DED341B51EC100B1FED670B53EC93
:10235000102BFEF731F89DED340B41EC110B51ECD5
:10236000110B53EC102BFDF780FF41EC100B51ECDF
:10237000100BFEF777F9369A379901EB8201C1F815
:10238000F4009DF8B70201308DF8B70203E740F280
:102390005810C2F20000D0F8B81049F62C52C2F220
:1023A00000021160D0F8BC0049F63051C2F20001C1
:1023B000086042F2FA01C2F2000101200870EBE16C
:1023C00042F2FA00C2F20000007801282FD1FFE7A4
:1023D00040F25810C2F2000090F8B400022826D152
:1023E000FFE740F6B050C2F2000090ED000A02F0A4
:1023F0003DFB10EE100AFEF722F941EC100B1FED29
:102400008A1B53EC112B51EC100BFEF7D1F870B96D
:10241000FFE742F2FA01C2F200010220087042F224
:10242000F801C2F200014FF4FA7008801FE040F694
:10243000B050C2F2000090ED000A02F017FB10EE5F
:10244000100AFEF7FCF841EC100B1FED991B53EC42
:10245000112B51EC100BFEF790F838B9FFE742F260
:10246000FA01C2F2000100200870FFE7FFE742F224
:10247000F800C2F20000B0F90000002807DCFFE716
:1024800042F2FA01C2F2000100200870FFE742F2B6
:10249000FA00C2F200000078022840F0C680FFE790
:1024A00040F2FC30C2F20000B0F9020000EE100A67
:1024B000B8EEC00A02F0DAFA1FEDB31AB4EE410A20
:1024C000F1EE10FA3CDCFFE740F2F040C2F200000F
:1024D000B0F9020000EE100AB8EEC00A02F0C6FA27
:1024E0001FEDBD1AB4EE410AF1EE10FA28DCFFE749
:1024F00040F22440C2F20000B0F9020000EE100ADF
:10250000B8EEC00A02F0B2FA1FEDC71AB4EE410AE3
:10251000F1EE10FA14DCFFE740F21850C2F20000AE
:10252000B0F9020000EE100AB8EEC00A02F09EFAFE
:102530001FEDD11AB4EE410AF1EE10FA75DDFFE796
:1025400040F25810C2F2000090F8B40002286CD19A
:10255000FFE740F25811C2F200010020C1F8C000AC
:102560008DF8B602FFE79DF8B60203285CDCFFE7B2
:1025700049F63050C2F200000068FEF760F841EC06
:10258000100B8DED1A0B49F62C50C2F200000068BA
:10259000FEF755F89DED1A0B41EC110B14F01CFCE5
:1025A00051EC100B1FEDEC0B53EC102BFDF776FFED
:1025B00041EC100B8DED1C0B9DF8B612219140F2F1
:1025C0000400C2F2000050F82100FEF738F89DED3B
:1025D0001C0B41EC110B8DED1E1B51EC100B9FEDF4
:1025E000E80B53EC102BFDF7E7FE9DED1E0B53ECB3
:1025F000102B41EC100B51EC100BFDF736FE41ECAB
:10260000100B51EC100BFEF72DF8219A40F25811E7
:10261000C2F2000101EB8201C1F8F4009DF8B6029C
:1026200001308DF8B6029EE7B5E049F62C51C2F2B2
:1026300000010020086049F63051C2F20001086034
:1026400042F2FA01C2F20001087040F25810C2F2E0
:10265000000090ED300AB5EE400AF1EE10FA2DD1EF
:10266000FFE740F20402C2F2000292ED000A40F6D7
:10267000B051C2F2000191ED001A30EE010A40F2B1
:102680005810C2F2000080ED3D0A92ED010A91ED72
:10269000001A30EE010A80ED3E0A92ED020A91ED39
:1026A000001A30EE010A80ED3F0A92ED030A91ED27
:1026B000001A30EE010A80ED400A6BE040F258103B
:1026C000C2F2000090ED300AB5EE400AF1EE10FAC9
:1026D00029DDFFE740F20401C2F2000191ED000A9A
:1026E0009FEDA91A30EE010A40F25810C2F2000024
:1026F00080ED3D0A91ED010A9FEDA41A30EE010A2A
:1027000080ED3E0A91ED020A9FEDA11A30EE010A1A
:1027100080ED3F0A91ED030A9FED9E1A30EE010A0B
:1027200080ED400A35E040F25810C2F2000090ED12
:10273000300AB5EE400AF1EE10FA29DAFFE740F26E
:102740000401C2F2000191ED000A9FED911A30EEF2
:10275000010A40F25810C2F2000080ED3D0A91EDEE
:10276000010A9FED8C1A30EE010A80ED3E0A91EDD0
:10277000020A9FED851A30EE010A80ED3F0A91EDC5
:10278000030A9FED821A30EE010A80ED400AFFE74E
:10279000FFE7FFE7FFE7FFE740F25810C2F2000053
:1027A000199090ED3D0A40F23840C2F2000090EDE1
:1027B000031A9FED792A8DED182A71EE420A31EE47
:1027C000021A11F04DFF9DED182A199880ED3D0A6F
:1027D00090ED3E0A40F22C50C2F2000090ED031A38
:1027E00071EE420A31EE021A11F03AFF9DED182AFD
:1027F000199880ED3E0A90ED3F0A40F20450C2F273
:10280000000090ED031A71EE420A31EE021A11F047
:1028100027FF9DED182A199880ED3F0A90ED400A98
:1028200040F21040C2F2000090ED031A71EE420A2D
:1028300031EE021A11F014FF199880ED400A40F2AF
:102840003410C2F200000089C00708BBFFE740F265
:102850003410C2F20000807A022819D1FFE740F25A
:102860005001C2F2000191ED000A40F25810C2F28C
:10287000000090ED2E1A20EE010A80ED2E0A91ED57
:10288000000A90ED2F1A20EE010A80ED2F0A6AE06F
:1028900040F23410C2F200000089C007002861D164
:1028A000FFE740F23410C2F20000807A012859D1CB
:1028B000FFE740F23800C2F2000090ED000A9FED01
:1028C000D41AB4EE410AF1EE10FA4BDCFFE740F205
:1028D0005810C2F200001790D0F8B800FDF7AFFE14
:1028E00041EC100B51EC100B9FEDC50B53EC102B72
:1028F00016931592FDF760FD41EC100B51EC100B97
:10290000FDF7B0FE01461798C0F8B810D0F8BC002B
:10291000FDF795FE159A169B41EC100B51EC100B30
:10292000FDF74AFD41EC100B51EC100BFDF79AFE40
:1029300001461798C0F8BC10D0F8C000FDF77FFE24
:1029400041EC100B53EC102B10461946FDF78DFC93
:1029500041EC100B51EC100BFDF784FE1799C1F8F8
:10296000C000FFE7FFE700208DF8B502FFE79DF804
:10297000B502032800F3C98010E000BF00BF00BF0C
:102980000000000000806640000007C3000034C261
:1029900000003442000007430000344340F2581165
:1029A000C2F20001D1F8B8000890D1F8BC00D1F80B
:1029B000C0100291FDF743FE0246029803920A46B8
:1029C000039942EC101B8DED060BFDF738FE41EC30
:1029D000100B9FED8D1B53EC112B51EC100BFDF7E1
:1029E000EBFC41EC100B51EC100B9FED830B53EC07
:1029F000102BFDF753FD41EC100B8DED040B9DF8F2
:102A0000B51240F22000C2F2000000EB81020A92EF
:102A100050F82100FDF713FE9DED040B41EC110B66
:102A200053EC112B51EC100B0D910C90FDF7C4FCE5
:102A30009DED060B41EC110B51EC110B53EC102BDF
:102A4000FDF713FC0246089809920A46099942ECE0
:102A5000101B8DED100BFDF7F2FD02460A980B924C
:102A60000A460B9942EC101B8DED0E0B4068FDF7EA
:102A7000E6FD02460C980B460D9943EC102B53ECE7
:102A8000102BFDF799FC9DED0E0B41EC110B51EC59
:102A9000110B53EC102BFDF7E8FB41EC100B53EC42
:102AA000102B10461946FDF787FC9DED100B41ECED
:102AB000110B8DED121B53EC102B10461946FDF730
:102AC0007BFC9DED120B41EC110B51EC110B53EC07
:102AD000102BFDF7CAFB41EC100B51EC100BFDF76E
:102AE000C1FD00EE100A14F03FFB9DF8B51242F252
:102AF000E800C2F2000000EB810080ED000A9DF8C2
:102B0000B50201308DF8B50231E742F2E801C2F2B8
:102B1000000191ED000AB1EE400A40F25810C2F2F5
:102B20000000019080ED390A4A68C0F8E8208A6800
:102B3000C0F8EC2091ED030AB1EE400A80ED3C0AAA
:102B4000FDF7C8FE019840F23841C2F2000191ED54
:102B5000030AD0ED3D0A41F2D870C2F2000007F03E
:102B6000F7FA019880ED410A40F22C51C2F20001BF
:102B700091ED030AD0ED3E0A41F69870C2F20000D2
:102B800007F0E6FA019880ED420A40F20451C2F2E1
:102B9000000191ED030AD0ED3F0A41F6C060C2F298
:102BA000000007F0D5FA019880ED430A40F2104189
:102BB000C2F2000191ED030AD0ED400A41F200702B
:102BC000C2F2000007F0C4FA019880ED440A00F058
:102BD00023F8019840F27A41C2F200010A7840F2EB
:102BE0007943C2F200031A7090F8B4000870FFE74E
:102BF0000DF52E7D80BD00BF0000000000000040EC
:102C0000333333333333F33F213A7F669EA0F63FAD
:102C10000000F0420000000080B586B042F2FA00E9
:102C2000C2F200000078022826D1FFE740F25811D6
:102C3000C2F200010020C1F8E400C1F8E800C1F8C8
:102C4000EC00C1F8F00041F29071C2F2000148F2CC
:102C50000000C4F2BB50486041F65071C2F200015E
:102C6000486041F67861C2F20001486041F2B86103
:102C7000C2F20001486017E041F29071C2F2000117
:102C80000020C4F26150486041F65071C2F2000168
:102C9000486041F67861C2F20001486041F2B861D3
:102CA000C2F200014860FFE740F23840C2F2000083
:102CB000B0F9020000EE100AB8EEC00A40F2581057
:102CC000C2F200000590D0ED410A41F62000C2F2A8
:102CD000000007F03DFA059880ED310A40F22C51D2
:102CE000C2F20001B1F9021000EE101AB8EEC00AEB
:102CF000D0ED420A41F6E070C2F2000007F028FA77
:102D0000059880ED320A40F20451C2F20001B1F997
:102D1000021000EE101AB8EEC00AD0ED430A41F6D8
:102D20000870C2F2000007F013FA059880ED330A2C
:102D300040F21041C2F20001B1F9021000EE101A87
:102D4000B8EEC00AD0ED440A41F24870C2F2000069
:102D500007F0FEF9059880ED340A40F22441C2F2F2
:102D60000001B1F9021000EE101AB8EEC00A40F2EC
:102D70003401C2F20001049191ED001A80EE010AC3
:102D8000D0ED390A41F29070C2F2000007F0E0F98C
:102D90000499059880ED350A40F21852C2F20002FB
:102DA000B2F9022000EE102AB8EEC00A91ED001A26
:102DB00080EE010AD0ED3A0A41F65070C2F20000EE
:102DC00007F0C6F90499059880ED360A40F2F04202
:102DD000C2F20002B2F9022000EE102AB8EEC00AD8
:102DE00091ED001A80EE010AD0ED3B0A41F67860C1
:102DF000C2F2000007F0ACF90499059880ED370A9B
:102E000040F2FC32C2F20002B2F9022000EE102AB7
:102E1000B8EEC00A91ED001A80EE010AD0ED3C0A2E
:102E200041F2B860C2F2000007F092F9059880ED17
:102E3000380A42F2FA00C2F200000078022861D19A
:102E4000FFE740F25810C2F200000390D0F8C4002F
:102E5000FDF7F5FB41EC100B51EC100B9FED2A0B2D
:102E600053EC102B02930192FDF7A6FA41EC100BE4
:102E700051EC100BFDF7F6FB01460398C0F8C410A7
:102E8000D0F8C800FDF7DBFB019A029B41EC100B68
:102E900051EC100BFDF790FA41EC100B51EC100BBC
:102EA000FDF7E0FB01460398C0F8C810D0F8CC004D
:102EB000FDF7C5FB019A029B41EC100B51EC100B86
:102EC000FDF77AFA41EC100B51EC100BFDF7CAFB41
:102ED00001460398C0F8CC10D0F8D000FDF7AFFB46
:102EE000019A029B41EC100B51EC100BFDF764FAB8
:102EF00041EC100B51EC100BFDF7B4FB0399C1F83A
:102F0000D000FFE706B080BD333333333333F33FB4
:102F100080B540F22441C2F2000108684A688B681B
:102F2000D1F80CC0D1F810E040F25811C2F2000103
:102F3000C1F860E0C1F85CC08B654A65086540F285
:102F4000185EC2F2000EDEF80000DEF80420DEF8A3
:102F50000830DEF80CC0DEF810E0C1F874E0C1F80B
:102F600070C0CB668A66486640F2F04EC2F2000E30
:102F7000DEF80000DEF80420DEF80830DEF80CC0D1
:102F8000DEF810E0C1F888E0C1F884C0C1F88030F4
:102F9000CA67886740F2FC3EC2F2000EDEF800000D
:102FA000DEF80420DEF80830DEF80CC0DEF810E0B1
:102FB000C1F89CE0C1F898C0C1F89430C1F89020E5
:102FC000C1F88C0040F2384EC2F2000EDEF800006C
:102FD000DEF80420DEF80830DEF80CC0DEF810E081
:102FE000C1F810E0C1F80CC08B604A60086040F284
:102FF0002C5EC2F2000EDEF80000DEF80420DEF8DF
:103000000830DEF80CC0DEF810E0C1F824E0C1F8AA
:1030100020C0CB618A61486140F2045EC2F2000EBA
:10302000DEF80000DEF80420DEF80830DEF80CC020
:10303000DEF810E0C1F838E0C1F834C00B63CA62B2
:10304000886240F2104EC2F2000EDEF80000DEF898
:103050000420DEF80830DEF80CC0DEF810E0C1F81D
:103060004CE0C1F848C04B640A64C86380BD0000EE
:1030700080B58CB041F62000C2F2000040F2B402EC
:10308000C2F20002002107919FED900A8DED010A26
:10309000DFED8F0ACDED020A07F080F99DED010A00
:1030A000DDED020A079941F6E070C2F2000040F23D
:1030B000FC02C2F2000207F071F99DED010ADDED9C
:1030C000020A079941F60870C2F2000040F2D802E5
:1030D000C2F2000207F062F99DED010ADDED020A7D
:1030E000079941F24870C2F2000040F29002C2F229
:1030F000000207F053F9079941F2D870C2F20000BC
:1031000040F2A802C2F200029FED720A8DED030A9E
:10311000DFED710ACDED040A07F040F99DED030AD9
:10312000DDED040A079941F69870C2F2000040F202
:10313000F002C2F2000207F031F99DED030ADDED65
:10314000040A079941F6C060C2F2000040F2CC02C6
:10315000C2F2000207F022F99DED030ADDED040A38
:10316000079941F20070C2F2000040F28402C2F2FC
:10317000000207F013F9079941F29070C2F20000C3
:1031800040F29C02C2F200029FED540A8DED050A46
:10319000DFED530ACDED060A07F000F99DED050AB3
:1031A000DDED060A079941F65070C2F2000040F2C8
:1031B000E402C2F2000207F0F1F89DED050ADDED30
:1031C000060A079941F67860C2F2000040F2C00298
:1031D000C2F2000207F0E2F89DED050ADDED060AF5
:1031E000079941F2B860C2F2000040F27802C2F2E0
:1031F000000207F0D3F8079940F6EC60C2F2000035
:1032000040F26002C2F20002F7EE000ACDED080AB9
:10321000B0EE600A07F0C2F80799DDED080A40F643
:10322000A060C2F2000040F25402C2F20002B0EE0E
:10323000000A07F0B3F840F67060C2F200009FED9C
:10324000290A8DED090ADFED280ACDED0B0A10F0F1
:103250006BFF9DED090ADDED0B0A40F66060C2F2DE
:10326000000010F061FFDDED0B0A49F63450C2F2A8
:1032700000009FED1E0A8DED0A0A10F055FF9DED2E
:103280000A0ADDED0B0A49F64450C2F2000010F0C4
:103290004BFF9DED0A0ADDED0B0A49F65450C2F2D0
:1032A000000010F041FF9DED0A0ADDED0B0A49F622
:1032B0006450C2F2000010F037FF40F23411C2F245
:1032C00000010120C8720CB080BD00BF0060EA465A
:1032D00000401C46000096430000704200008046FB
:1032E00000007A446F12033BCDCCCC3D6F12833A81
:1032F00081B040F2CA40C2F200004079014600911C
:10330000012820D0FFE70098062834D0FFE7009876
:103310000A2828D0FFE7009812281CD0FFE7009861
:10332000262828D0FFE700982A281CD0FFE700981D
:10333000322810D0FFE7009852280CD0FFE7009801
:10334000722808D01FE040F25811C2F2000100209C
:1033500081F8B40018E040F25811C2F200010320D5
:1033600081F8B40010E040F25811C2F200010220CE
:1033700081F8B40008E040F25811C2F200010120C7
:1033800081F8B40000E0FFE740F2CA40C2F200005A
:1033900040798006002808D5FFE740F25811C2F2B4
:1033A0000001012081F81C0107E040F25811C2F22F
:1033B0000001002081F81C01FFE701B07047000008
:1033C00070B588B09C4696460C4605460F980E99F7
:1033D0000D9A0C9BADF81E50ADF81C40ADF81AE0EC
:1033E000ADF818C0ADF81630ADF81420ADF81210D5
:1033F000ADF8100040F6FC51C2F20001019100202E
:103400008860C860082008619DF81F3040F27B4248
:10341000C2F20002104600F8083F02909DF81E001C
:1034200050729DF81D0090729DF81C00D0729DF89E
:103430001B0010739DF81A0050739DF819009073CB
:103440009DF81800D0739DF8170010709DF81600B5
:1034500050709DF8150090709DF81400D0709DF884
:10346000130010719DF8120050719DF811009071B9
:103470009DF81000D0714FF40070086040F6A07005
:10348000C2F20000039042F2D803C2F2000301F03E
:1034900085FC012011F0CAF90199029A039840F2C3
:1034A000FF130B6042F2DC03C2F2000301F076FC72
:1034B00008B070BD86B0DDF828C0DDF824C0DDF8A6
:1034C00020C0DDF81CC0DDF818C0059004910392FF
:1034D000029300200190FFE701990020022900904B
:1034E00008DCFFE704980199405C002818BF012020
:1034F0000090FFE70098C00758B1FFE70498019AD1
:10350000805C0599891A8870FFE701980130019065
:10351000E2E70599D1F80320D1F80730D1F80B0084
:103520004FF0020C6CF3C502C1F80730C1F803205C
:10353000C1F80B00DDF80CC00599D1F80320D1F8D3
:103540000730D1F80B006CF30202C1F80730C1F864
:103550000320C1F80B00DDF808C00599D1F803205D
:10356000D1F80730D1F80B000CF00F0C22F4707278
:1035700042EA8C12C1F80730C1F80320C1F80B00F1
:10358000DDF818C00599D1F80320D1F80730D1F83B
:103590000B000CF00F0C22F4705242EA8C22C1F89E
:1035A0000730C1F80320C1F80B00DDF81CC00599F5
:1035B000D1F80330D1F80720D1F80B006CF30902E1
:1035C000C1F80330C1F80720C1F80B00DDF820C0B6
:1035D0000599D1F80330D1F80720D1F80B006FF32B
:1035E000DF2C6FF3942242EA8C22C1F80330C1F839
:1035F0000720C1F80B00DDF824C00599D1F803308D
:10360000D1F80720D1F80B006FF35F5242EA4C5219
:10361000C1F80330C1F80720C1F80B00DDF828C05D
:103620000599D1F80320D1F80730D1F80B006CF3DD
:103630000900C1F80730C1F80320C1F80B0006B03B
:103640007047000040F29841C2F200010868013062
:103650000860486801304860886801308860C86840
:103660000130C8600869013008614869013048616B
:10367000886901308861C8690130C861086A013011
:103680000862704781B000208DF80300FFE79DF8C5
:103690000300072824DCFFE79DF8031040F2984060
:1036A000C2F2000050F82100332809D3FFE79DF84B
:1036B000032040F2C041C2F200010120885408E01A
:1036C0009DF8032040F2C041C2F20001002088545E
:1036D000FFE7FFE79DF8030001308DF80300D6E710
:1036E00040F29840C2F20000006A332807D3FFE797
:1036F00040F2C041C2F200010120087206E040F22F
:10370000C041C2F2000100200872FFE701B070471B
:1037100080B541F24810C2F2000002F02DFC80BDDD
:1037200080B5E2B041F2EC20C2F20000C06C00684B
:1037300046F25941C4F202018842C0F0F380FFE72B
:1037400046F20440C4F202000068619041F2EC20AD
:10375000C2F20000C06C006846F21001C4F202011F
:10376000884203D1FFE720206090D6E041F2EC20B0
:10377000C2F20000C06C006846F21041C4F20201BF
:10378000884203D1FFE720205F90C3E041F2EC20A4
:10379000C2F20000C06C006846F27001C4F202017F
:1037A000884203D1FFE720205E90B0E041F2EC2098
:1037B000C2F20000C06C006846F27041C4F202011F
:1037C000884203D1FFE720205D909DE041F2EC208C
:1037D000C2F20000C06C006846F22801C4F2020187
:1037E000884204D1FFE74FF400605C9089E041F229
:1037F000EC20C2F20000C06C006846F22841C4F21E
:103800000201884204D1FFE74FF400605B9075E04D
:1038100041F2EC20C2F20000C06C006846F2880160
:10382000C4F20201884204D1FFE74FF400605A90CD
:1038300061E041F2EC20C2F20000C06C006846F288
:103840008841C4F20201884204D1FFE74FF40060CE
:1038500059904DE041F2EC20C2F20000C06C0068CB
:1038600046F24001C4F20201884204D1FFE74FF45E
:103870000010589039E041F2EC20C2F20000C06C18
:10388000006846F24041C4F20201884204D1FFE7D9
:103890004FF40010579025E041F2EC20C2F20000F6
:1038A000C06C006846F2A001C4F20201884204D153
:1038B000FFE74FF40010569011E041F2EC20C2F205
:1038C0000000C06C016846F2A042C4F202024FF050
:1038D0000060914208BF4FF400105690FFE75698E1
:1038E0005790FFE757985890FFE758985990FFE78F
:1038F00059985A90FFE75A985B90FFE75B985C9065
:10390000FFE75C985D90FFE75D985E90FFE75E984B
:103910005F90FFE75F986090FFE7619860990840CB
:103920005590F7E241F2EC20C2F20000C06C006852
:1039300046F2B901C4F202018842C0F0F380FFE709
:1039400046F20040C4F202000068549041F2EC20BC
:10395000C2F20000C06C006846F21001C4F202011D
:10396000884203D1FFE720205390D6E041F2EC20BB
:10397000C2F20000C06C006846F21041C4F20201BD
:10398000884203D1FFE720205290C3E041F2EC20AF
:10399000C2F20000C06C006846F27001C4F202017D
:1039A000884203D1FFE720205190B0E041F2EC20A3
:1039B000C2F20000C06C006846F27041C4F202011D
:1039C000884203D1FFE7202050909DE041F2EC2097
:1039D000C2F20000C06C006846F22801C4F2020185
:1039E000884204D1FFE74FF400604F9089E041F234
:1039F000EC20C2F20000C06C006846F22841C4F21C
:103A00000201884204D1FFE74FF400604E9075E058
:103A100041F2EC20C2F20000C06C006846F288015E
:103A2000C4F20201884204D1FFE74FF400604D90D8
:103A300061E041F2EC20C2F20000C06C006846F286
:103A40008841C4F20201884204D1FFE74FF40060CC
:103A50004C904DE041F2EC20C2F20000C06C0068D6
:103A600046F24001C4F20201884204D1FFE74FF45C
:103A700000104B9039E041F2EC20C2F20000C06C23
:103A8000006846F24041C4F20201884204D1FFE7D7
:103A90004FF400104A9025E041F2EC20C2F2000001
:103AA000C06C006846F2A001C4F20201884204D151
:103AB000FFE74FF40010499011E041F2EC20C2F210
:103AC0000000C06C016846F2A042C4F202024FF04E
:103AD0000060914208BF4FF400104990FFE74998F9
:103AE0004A90FFE74A984B90FFE74B984C90FFE7CE
:103AF0004C984D90FFE74D984E90FFE74E984F90B1
:103B0000FFE74F985090FFE750985190FFE751988A
:103B10005290FFE752985390FFE75498539908400A
:103B20004890F4E141F2EC20C2F20000C06C006861
:103B300046F25901C4F202018842C0F0F380FFE767
:103B400046F20400C4F202000068479041F2EC2003
:103B5000C2F20000C06C006846F21001C4F202011B
:103B6000884203D1FFE720204690D6E041F2EC20C6
:103B7000C2F20000C06C006846F21041C4F20201BB
:103B8000884203D1FFE720204590C3E041F2EC20BA
:103B9000C2F20000C06C006846F27001C4F202017B
:103BA000884203D1FFE720204490B0E041F2EC20AE
:103BB000C2F20000C06C006846F27041C4F202011B
:103BC000884203D1FFE7202043909DE041F2EC20A2
:103BD000C2F20000C06C006846F22801C4F2020183
:103BE000884204D1FFE74FF40060429089E041F23F
:103BF000EC20C2F20000C06C006846F22841C4F21A
:103C00000201884204D1FFE74FF40060419075E063
:103C100041F2EC20C2F20000C06C006846F288015C
:103C2000C4F20201884204D1FFE74FF400604090E3
:103C300061E041F2EC20C2F20000C06C006846F284
:103C40008841C4F20201884204D1FFE74FF40060CA
:103C50003F904DE041F2EC20C2F20000C06C0068E1
:103C600046F24001C4F20201884204D1FFE74FF45A
:103C700000103E9039E041F2EC20C2F20000C06C2E
:103C8000006846F24041C4F20201884204D1FFE7D5
:103C90004FF400103D9025E041F2EC20C2F200000C
:103CA000C06C006846F2A001C4F20201884204D14F
:103CB000FFE74FF400103C9011E041F2EC20C2F21B
:103CC0000000C06C016846F2A042C4F202024FF04C
:103CD0000060914208BF4FF400103C90FFE73C9811
:103CE0003D90FFE73D983E90FFE73E983F90FFE70D
:103CF0003F984090FFE740984190FFE741984290FD
:103D0000FFE742984390FFE743984490FFE74498C9
:103D10004590FFE745984690FFE747984699084049
:103D20003B90F1E046F20000C4F2020000683A90D5
:103D300041F2EC20C2F20000C06C006846F21001B3
:103D4000C4F20201884203D1FFE720203990D6E077
:103D500041F2EC20C2F20000C06C006846F2104153
:103D6000C4F20201884203D1FFE720203890C3E06B
:103D700041F2EC20C2F20000C06C006846F2700113
:103D8000C4F20201884203D1FFE720203790B0E05F
:103D900041F2EC20C2F20000C06C006846F27041B3
:103DA000C4F20201884203D1FFE7202036909DE053
:103DB00041F2EC20C2F20000C06C006846F228011B
:103DC000C4F20201884204D1FFE74FF4006035904D
:103DD00089E041F2EC20C2F20000C06C006846F2BB
:103DE0002841C4F20201884204D1FFE74FF4006089
:103DF000349075E041F2EC20C2F20000C06C006823
:103E000046F28801C4F20201884204D1FFE74FF470
:103E10000060339061E041F2EC20C2F20000C06C1F
:103E2000006846F28841C4F20201884204D1FFE7EB
:103E30004FF4006032904DE041F2EC20C2F20000FD
:103E4000C06C006846F24001C4F20201884204D10D
:103E5000FFE74FF40010319039E041F2EC20C2F25C
:103E60000000C06C006846F24041C4F20201884282
:103E700004D1FFE74FF40010309025E041F2EC2030
:103E8000C2F20000C06C006846F2A001C4F2020158
:103E9000884204D1FFE74FF400102F9011E041F267
:103EA000EC20C2F20000C06C016846F2A042C4F2ED
:103EB00002024FF00060914208BF4FF400102F90B3
:103EC000FFE72F983090FFE730983190FFE7319867
:103ED0003290FFE732983390FFE733983490FFE752
:103EE00034983590FFE735983690FFE7369837904D
:103EF000FFE737983890FFE738983990FFE73A980E
:103F0000399908403B90FFE73B984890FFE7489875
:103F10005590FFE75598002800F06984FFE741F2CB
:103F2000EC20C2F20000C06C006846F25941C4F2B5
:103F300002018842C0F0EF80FFE741F2EC20C2F2BC
:103F40000000C06C006846F21001C4F20201884211
:103F500003D1FFE720202E90D6E041F2EC20C2F200
:103F60000000C06C006846F21041C4F202018842B1
:103F700003D1FFE720202D90C3E041F2EC20C2F2F4
:103F80000000C06C006846F27001C4F20201884271
:103F900003D1FFE720202C90B0E041F2EC20C2F2E8
:103FA0000000C06C006846F27041C4F20201884211
:103FB00003D1FFE720202B909DE041F2EC20C2F2DC
:103FC0000000C06C006846F22801C4F20201884279
:103FD00004D1FFE74FF400602A9089E041F2EC2021
:103FE000C2F20000C06C006846F22841C4F202012F
:103FF000884204D1FFE74FF40060299075E041F258
:10400000EC20C2F20000C06C006846F28801C4F2E5
:104010000201884204D1FFE74FF40060289061E07C
:1040200041F2EC20C2F20000C06C006846F2884108
:10403000C4F20201884204D1FFE74FF400602790E8
:104040004DE041F2EC20C2F20000C06C006846F284
:104050004001C4F20201884204D1FFE74FF400108E
:10406000269039E041F2EC20C2F20000C06C0068FA
:1040700046F24041C4F20201884204D1FFE74FF406
:104080000010259025E041F2EC20C2F20000C06C47
:10409000006846F2A001C4F20201884204D1FFE7A1
:1040A0004FF40010249011E041F2EC20C2F2000025
:1040B000C06C016846F2A042C4F202024FF00060F8
:1040C000914208BF4FF400102490FFE724982590F8
:1040D000FFE725982690FFE726982790FFE7279887
:1040E0002890FFE728982990FFE729982A90FFE772
:1040F0002A982B90FFE72B982C90FFE72C982D9077
:10410000FFE72D982E90FFE72E9846F20C41C4F25F
:1041100002010860EDE241F2EC20C2F20000C06C46
:10412000006846F2B901C4F202018842C0F0F08092
:10413000FFE741F2EC20C2F20000C06C006846F2DA
:104140001001C4F20201884203D1FFE7202023902E
:10415000D6E041F2EC20C2F20000C06C006846F2EA
:104160001041C4F20201884203D1FFE720202290CF
:10417000C3E041F2EC20C2F20000C06C006846F2DD
:104180007001C4F20201884203D1FFE72020219090
:10419000B0E041F2EC20C2F20000C06C006846F2D0
:1041A0007041C4F20201884203D1FFE72020209031
:1041B0009DE041F2EC20C2F20000C06C006846F2C3
:1041C0002801C4F20201884204D1FFE74FF40060E5
:1041D0001F9089E041F2EC20C2F20000C06C006840
:1041E00046F22841C4F20201884204D1FFE74FF4AD
:1041F00000601E9075E041F2EC20C2F20000C06C3D
:10420000006846F28801C4F20201884204D1FFE747
:104210004FF400601D9061E041F2EC20C2F200001A
:10422000C06C006846F28841C4F20201884204D1A1
:10423000FFE74FF400601C904DE041F2EC20C2F229
:104240000000C06C006846F24001C4F202018842DE
:1042500004D1FFE74FF400101B9039E041F2EC204D
:10426000C2F20000C06C006846F24041C4F2020194
:10427000884204D1FFE74FF400101A9025E041F284
:10428000EC20C2F20000C06C006846F2A001C4F24B
:104290000201884204D1FFE74FF40010199011E0A9
:1042A00041F2EC20C2F20000C06C016846F2A0426C
:1042B000C4F202024FF00060914208BF4FF40010B8
:1042C0001990FFE719981A90FFE71A981B90FFE7DB
:1042D0001B981C90FFE71C981D90FFE71D981E90EF
:1042E000FFE71E981F90FFE71F982090FFE7209898
:1042F0002190FFE721982290FFE722982390FFE783
:10430000239846F20841C4F2020108601890EEE1D9
:1043100041F2EC20C2F20000C06C006846F2590184
:10432000C4F202018842C0F0F080FFE741F2EC20C5
:10433000C2F20000C06C006846F21001C4F2020133
:10434000884203D1FFE720201790D6E041F2EC200D
:10435000C2F20000C06C006846F21041C4F20201D3
:10436000884203D1FFE720201690C3E041F2EC2001
:10437000C2F20000C06C006846F27001C4F2020193
:10438000884203D1FFE720201590B0E041F2EC20F5
:10439000C2F20000C06C006846F27041C4F2020133
:1043A000884203D1FFE7202014909DE041F2EC20E9
:1043B000C2F20000C06C006846F22801C4F202019B
:1043C000884204D1FFE74FF40060139089E041F286
:1043D000EC20C2F20000C06C006846F22841C4F232
:1043E0000201884204D1FFE74FF40060129075E0AB
:1043F00041F2EC20C2F20000C06C006846F2880175
:10440000C4F20201884204D1FFE74FF4006011902A
:1044100061E041F2EC20C2F20000C06C006846F29C
:104420008841C4F20201884204D1FFE74FF40060E2
:1044300010904DE041F2EC20C2F20000C06C006828
:1044400046F24001C4F20201884204D1FFE74FF472
:1044500000100F9039E041F2EC20C2F20000C06C75
:10446000006846F24041C4F20201884204D1FFE7ED
:104470004FF400100E9025E041F2EC20C2F2000053
:10448000C06C006846F2A001C4F20201884204D167
:10449000FFE74FF400100D9011E041F2EC20C2F262
:1044A0000000C06C016846F2A042C4F202024FF064
:1044B0000060914208BF4FF400100D90FFE70D9887
:1044C0000E90FFE70E980F90FFE70F981090FFE710
:1044D00010981190FFE711981290FFE7129813902F
:1044E000FFE713981490FFE714981590FFE71598CD
:1044F0001690FFE716981790FFE7179846F20C0101
:10450000C4F2020108600C90EEE041F2EC20C2F22D
:104510000000C06C006846F21001C4F2020188423B
:1045200003D1FFE720200B90D6E041F2EC20C2F24D
:104530000000C06C006846F21041C4F202018842DB
:1045400003D1FFE720200A90C3E041F2EC20C2F241
:104550000000C06C006846F27001C4F2020188429B
:1045600003D1FFE720200990B0E041F2EC20C2F235
:104570000000C06C006846F27041C4F2020188423B
:1045800003D1FFE7202008909DE041F2EC20C2F229
:104590000000C06C006846F22801C4F202018842A3
:1045A00004D1FFE74FF40060079089E041F2EC206E
:1045B000C2F20000C06C006846F22841C4F2020159
:1045C000884204D1FFE74FF40060069075E041F2A5
:1045D000EC20C2F20000C06C006846F28801C4F210
:1045E0000201884204D1FFE74FF40060059061E0CA
:1045F00041F2EC20C2F20000C06C006846F2884133
:10460000C4F20201884204D1FFE74FF40060049035
:104610004DE041F2EC20C2F20000C06C006846F2AE
:104620004001C4F20201884204D1FFE74FF40010B8
:10463000039039E041F2EC20C2F20000C06C006847
:1046400046F24041C4F20201884204D1FFE74FF430
:104650000010029025E041F2EC20C2F20000C06C94
:10466000006846F2A001C4F20201884204D1FFE7CB
:104670004FF40010019011E041F2EC20C2F2000072
:10468000C06C016846F2A042C4F202024FF0006022
:10469000914208BF4FF400100190FFE7019802908B
:1046A000FFE702980390FFE703980490FFE7049860
:1046B0000590FFE705980690FFE706980790FFE74B
:1046C00007980890FFE708980990FFE709980A9073
:1046D000FFE70A980B90FFE70B9846F20801C4F237
:1046E000020108600C90FFE70C981890FFE71898FB
:1046F000FFE740F67770C2F20000007880070028DC
:1047000021D5FFE740F67771C2F20001087800F08A
:10471000FD00087040F20040C4F202000122114680
:1047200002F0CCF840F66F70C2F20000013040F6A3
:10473000B451C2F20001143140F2D422C2F200029C
:10474000FCF7A8F9FFE740F6AE50C2F2000000788F
:10475000800700281DD5FFE740F6AE51C2F20001E8
:10476000087800F0FD0008700020C4F2020010215B
:10477000012202F0A3F840F6A050C2F2000002307D
:1047800040F6B452C2F20002111D2032FCF726F9A5
:10479000FFE740F6AD50C2F2000000788007002825
:1047A00022D5FFE740F6AD51C2F20001087800F0D3
:1047B000FD0008700020C4F202001021012202F066
:1047C0007DF840F6A950C2F20000023040F6B45124
:1047D000C2F2000100911031FCF7D2F9009890ED7F
:1047E000040A0FF02FFEFFE70FF008FDFFE762B0AD
:1047F00080BD000080B541F2A810C2F2000001F0B7
:10480000BBFB80BD80B541F28800C2F2000001F020
:10481000B3FB80BD80B541F22800C2F2000001F078
:10482000ABFB80BD80B541F20820C2F2000001F070
:10483000A3FB80BD80B541F2E800C2F2000001F0A8
:104840009BFB80BD82B001900198007810384AF639
:10485000AB21CAF6AA21A0FB011000090090009923
:1048600047F6A460C0F60100405C0199C865009855
:10487000042807D3FFE701990868042262F30900BE
:10488000886506E00199086840F2FF329043886528
:10489000FFE70198806D02B07047000086B0059078
:1048A00000208DF813000598806A039005988069B0
:1048B00010BBFFE70398029003281BD80299DFE89A
:1048C00001F0020D0218059890F82F00C00720B1E2
:1048D000FFE701208DF81300FFE70CE00598C06AA0
:1048E000B0F1C07F04D1FFE701208DF81300FFE78E
:1048F00001E000E0FFE745E005988069B0F5005F62
:1049000025D1FFE70398019003281ED80199DFE81D
:1049100001F00206021101208DF8130016E005983F
:1049200090F82F00C00720B1FFE701208DF8130099
:10493000FFE70BE00598C06AB0F1C07F04D1FFE744
:1049400001208DF81300FFE700E0FFE719E003986E
:104950000090032804D3FFE70098032804D00EE05A
:1049600001208DF813000BE0059890F82F00C00788
:1049700020B1FFE701208DF81300FFE700E0FFE71B
:10498000FFE7FFE79DF8130006B07047704700008F
:1049900081B00090009940F2C042C2F2000210893A
:1049A0000881106852684A60086001B070470000D2
:1049B00080B5102001F08AFD80BD000080B5202068
:1049C00001F084FD80BD000080B584B003900291A9
:1049D0008DF8072000208DF80600039804F006FBF0
:1049E00008B1FFE737E00398D0F80D02B0F5FD7F7E
:1049F00001D9FFE72FE0FFE79DF806009DF80710BB
:104A0000884228DAFFE70399D1F80902431C4CF2E7
:104A10001160C1F6B07053FB00F2901100EBD27040
:104A200040F2052200FB1230C1F8090202989DF8FD
:104A30000610405C0399D1F8092288540399D1F8F3
:104A40000D020130C1F80D02FFE79DF806000130AC
:104A50008DF80600D0E704B080BD000081B0EFF310
:104A6000108072B60090FFE7FEE7000082B08DED87
:104A7000000A9DED000AB5EE400AF1EE10FA07DAE1
:104A8000FFE79DED000AB1EE400A8DED010A02E05C
:104A900000980190FFE79DED010A02B07047000009
:104AA00087B0DDF830C0DDF82CC0DDF828C0DDF8B7
:104AB00024C0DDF820C0DDF81CC0069005910492EA
:104AC00003938DED020A00200190FFE70199002079
:104AD0000229009008DCFFE705980199405C002856
:104AE00018BF01200090FFE70098C00758B1FFE70A
:104AF0000598019A805C0699891A8870FFE70198E9
:104B000001300190E2E70699D1F80300D1F80720BF
:104B1000052363F3C500C1F80720C1F80300069917
:104B2000049BD1F80300D1F8072063F30200C1F819
:104B30000720C1F803000699039BD1F80300D1F8C0
:104B4000072003F00F0320F4707040EA8310C1F8CF
:104B50000720C1F803000699079BD1F80300D1F89C
:104B6000072003F00F0320F4705040EA8320C1F8BF
:104B70000720C1F8030006990A9BD1F80320D1F859
:104B8000070063F30900C1F80320C1F80700069984
:104B90000B9BD1F80320D1F807006FF3DF236FF3ED
:104BA000942040EA8320C1F80320C1F80700069949
:104BB0000C9BD1F80320D1F807006FF35F5040EA57
:104BC0004350C1F80320C1F807000699089BD1F8AB
:104BD0000300D1F807206FF35F236FF3963040EAAC
:104BE0008330C1F80720C1F803000699099BD1F86A
:104BF0000300D1F807206FF3DF5040EAC350C1F83B
:104C00000720C1F803009DED020ABDEEC00A10EEB8
:104C1000100A0699C1F80B0007B0704784B00290E3
:104C20000191ADF80220029828B9FFE74FF6FF7016
:104C3000ADF80E0021E0FFE70198411E0191B8B1E7
:104C4000FFE70298411C029100788DF80100BDF841
:104C500002109DF801004840C2B247F67470C0F6D9
:104C6000010030F8120080EA1120ADF80200E3E7FD
:104C7000BDF80200ADF80E00FFE7BDF80E0004B06D
:104C80007047000083B0029001918DF80320FFE788
:104C90000198411E019198B1FFE79DF80300029928
:104CA0004A1C0292097848408DF802009DF80210D3
:104CB00047F6A440C0F60100405C8DF80300E7E72A
:104CC0009DF8030003B0704781B0009040F2C82007
:104CD000C2F2000090ED020A9FED192A80EE020A4E
:104CE0009FED181A20EE010A009981ED020A90ED5D
:104CF000010A80EE020A20EE010A009981ED010A04
:104D000090ED000A80EE020A20EE010A009880ED84
:104D1000000A40F2D420C2F2000090ED020AB1EE87
:104D2000400A009981ED050A90ED000AB1EE400AB3
:104D3000009981ED040A40680099C86001B070478D
:104D4000DB0F49400000344384B002900191029887
:104D500090F820008DF803009DF80300012805D08D
:104D6000FFE79DF8030002280AD1FFE7019A0298A5
:104D7000016848691043486100208DF80F0008E081
:104D80000299486A40F48020486201208DF80F00A3
:104D9000FFE79DF80F0004B07047000088B0069050
:104DA000059104920393069890F820008DF807006F
:104DB00006980068806800900598806808B9FFE749
:104DC00000E0FFE79DF80700012806D0FFE79DF807
:104DD0000700022840F08D80FFE79DF803004007A0
:104DE00000280CD4FFE79DF803000007002806D434
:104DF000FFE79DF80300C006002871D5FFE7009883
:104E0000C0F3016002900298032809D3FFE70699D6
:104E1000486A40F40000486201208DF81F0071E0EC
:104E2000029901208840039908600598806868B954
:104E3000FFE705980168C06840EA41500699096893
:104E4000029A01EB0211C1F880010EE005994A684F
:104E50008868C96840EAC200084306990968029A4E
:104E600001EB0211C1F88001FFE70598006906997E
:104E70000968029A01EB0211C1F884010598007DCE
:104E800001280CD1FFE706980068029900EB011198
:104E9000D1F8840140F48070C1F88401FFE70498E0
:104EA000406806990968029A01EB0211C1F88C0169
:104EB0000498006806990968029A01EB0211C1F88A
:104EC000880106980068029900EB0111D1F8800171
:104ED00040F00100C1F8800100208DF81F0011E0B2
:104EE0000699486A40F40010486201208DF81F00BE
:104EF00008E00699486A40F48020486201208DF855
:104F00001F00FFE79DF81F0008B0704786B00490AF
:104F10000391049800680190049890F820008DF89F
:104F200003009DF80300012806D0FFE79DF8030069
:104F3000022840F0B080FFE746F20040C4F20000D3
:104F400001900199D1F8000240F00100C1F800027F
:104F50000199D1F8000220F47C50C1F800020398B6
:104F6000426A0199D1F8000240EA0220C1F8000229
:104F70000398406900F01F01012088400290029AC6
:104F80000199D1F81C029043C1F81C020398C06932
:104F9000F0B9FFE7029A0199D1F80C029043C1F8E9
:104FA0000C02039A9088D168526940EA0140019945
:104FB00001EBC201C1F84002039A1088916852695E
:104FC00040EA0140019901EBC201C1F84402FFE748
:104FD0000398C06901281ED1FFE7029A0199D1F810
:104FE0000C021043C1F80C02039A908811685269B0
:104FF00040EA0140019901EBC201C1F84002039A65
:1050000090899168526940EA0140019901EBC2011F
:10501000C1F84402FFE70398806940B9FFE7029AAC
:105020000199D1F804029043C1F8040207E0029A02
:105030000199D1F804021043C1F80402FFE7039874
:10504000006940B9FFE7029A0199D1F81402904330
:10505000C1F8140207E0029A0199D1F81402104332
:10506000C1F81402FFE70398006A012808D1FFE79E
:10507000029A0199D1F81C021043C1F81C02FFE703
:105080000199D1F8000220F00100C1F800020020CF
:105090008DF8170008E00499486A40F480204862BF
:1050A00001208DF81700FFE79DF8170006B0704744
:1050B00081B0009001B0704786B0049003910292D5
:1050C0000193049890F820008DF803009DF80300E8
:1050D000012806D0FFE79DF80300022840F0D780A2
:1050E000FFE7039880B9FFE704980068C06880076D
:1050F00048B9FFE70499486A40F40010486201206B
:105100008DF81700CCE00FE0049800680069800774
:1051100048B9FFE70499486A40F40010486201204A
:105120008DF81700BCE0FFE704980068039900EBD6
:105130000110D0F8B00100F00400029988600298D4
:10514000806858B9FFE704980068039900EB0110E4
:10515000D0F8B001400D029908600AE00498006898
:10516000039900EB0110D0F8B001C0080299486023
:10517000FFE704980068039900EB0110D0F8B00134
:1051800000F002000299C86004980068039900EBDF
:105190000110D0F8B40100F00F00029908610498E2
:1051A0000068039900EB0110D0F8B40180B2000A46
:1051B0000299886104980068039900EB0110D0F807
:1051C000B401000C0299486104980068039900EB4F
:1051D0000110D0F8B801019908700498006803998B
:1051E00000EB0110D0F8B801000A0199487004984A
:1051F0000068039900EB0110D0F8B801000C019988
:10520000887004980068039900EB0110D0F8B80189
:10521000000E0199C87004980068039900EB011012
:10522000D0F8BC010199087104980068039900EB5B
:105230000110D0F8BC01000A019948710498006877
:10524000039900EB0110D0F8BC01000C01998871A2
:1052500004980068039900EB0110D0F8BC01000E1F
:105260000199C871039838B9FFE704980168C868C4
:1052700040F02000C86006E004980168086940F02A
:1052800020000861FFE700208DF8170008E004996E
:10529000486A40F48020486201208DF81700FFE73B
:1052A0009DF8170006B0704780B58AB009900020BD
:1052B000089009980068406907900998006840685C
:1052C0000690099800688068059009980068C06891
:1052D0000490099800680069039009980068806943
:1052E00002909DF81C00C007002800F09480FFE7A2
:1052F0009DF81400C00758B3FFE709980168012022
:1053000088609DF814008007002804D5FFE70998FD
:1053100000F082FD1BE09DF814004007002805D531
:10532000FFE7089840F4006008900FE09DF8140033
:105330000007002805D5FFE7089840F48050089042
:1053400003E0099800F064FDFFE7FFE7FFE7FFE7F0
:105350009DF81500C00760B3FFE7099801684FF496
:10536000807088609DF815008007002804D5FFE74D
:10537000099800F059FD1BE09DF815004007002832
:1053800005D5FFE7089840F4005008900FE09DF81D
:1053900015000007002805D5FFE7089840F4804075
:1053A000089003E0099800F03BFDFFE7FFE7FFE707
:1053B000FFE79DF81600C00760B3FFE70998016892
:1053C0004FF4803088609DF816008007002804D5CF
:1053D000FFE7099800F030FD1BE09DF8160040073C
:1053E000002805D5FFE7089840F4004008900FE03A
:1053F0009DF816000007002805D5FFE7089840F43F
:105400008030089003E0099800F012FDFFE7FFE705
:10541000FFE7FFE7FFE79DF81C000007002810D515
:10542000FFE79DF81000C006002809D5FFE708989F
:1054300040F400700890099801681020C860FFE7E8
:10544000FFE79DF81C00400700280FD5FFE79DF8F7
:1054500010000007002808D5FFE709980168082018
:10546000C860099800F0CCFAFFE7FFE79DF81C0040
:10547000800700280BD5FFE709980068C0688007FF
:1054800020B1FFE7099800F0BFFAFFE7FFE79DF8BA
:105490001C004006002810D5FFE79DF80C00C00650
:1054A000002809D5FFE7089840F480600890099823
:1054B000016810200861FFE7FFE79DF81C008006E7
:1054C00000280FD5FFE79DF80C000007002808D53D
:1054D000FFE70998016808200861099800F046FC78
:1054E000FFE7FFE79DF81C00C00600280BD5FFE78B
:1054F000099800680069800720B1FFE7099800F06B
:1055000039FCFFE7FFE79DF81E00800700280FD554
:10551000FFE79DF81800C006002808D5FFE70998A6
:10552000016810204860099800F028FCFFE7FFE7B9
:105530009DF81E00C00778B1FFE79DF8180000072E
:10554000002808D5FFE709980168082048600998F5
:1055500000F076FCFFE7FFE79DF81D00000600283D
:1055600040F18D80FFE79DF818004007002840F1CA
:105570008180FFE79DF81D00C00750B1FFE79DF84F
:105580000800C00728B1FFE7089840F00100089024
:10559000FFE79DF81D00800700280BD5FFE79DF869
:1055A00008008007002805D5FFE7089840F00200B2
:1055B0000890FFE79DF81D00400700280BD5FFE786
:1055C0009DF808004007002805D5FFE7089840F03F
:1055D00004000890FFE79DF81D000007002848D54B
:1055E000FFE79DF8080010F0700F42D0FFE7029827
:1055F00000F0700001460191102814D0FFE70198D7
:10560000202815D0FFE70198302816D0FFE7019831
:10561000402817D0FFE70198502818D0FFE70198DD
:10562000602819D01DE0089840F00800089019E0A3
:10563000089840F01000089014E0089840F020000E
:1056400008900FE0089840F0400008900AE00898A1
:1056500040F08000089005E0089840F480700890C1
:1056600000E0FFE709980168886920F07000886110
:10567000FFE7FFE70998016804204860FFE7089802
:1056800048B1FFE7089A0999486A104348620998A7
:10569000FFF70EFDFFE70AB080BD000080B584B0C3
:1056A0000290029820B9FFE701208DF80F00E0E09A
:1056B000029890F8200020B9FFE7029800F0DEF889
:1056C000FFE702980168086840F00100086001F0F7
:1056D0000DF90190FFE7029800684068C007A8B97B
:1056E000FFE701F003F90199401A0B280DD3FFE7FA
:1056F0000299486A40F4003048620299052081F816
:10570000200001208DF80F00B3E0E4E70298016863
:10571000086820F00200086001F0E8F80190FFE757
:105720000298006840688007002815D5FFE701F05F
:10573000DDF80199401A0B280DD3FFE70299486A5A
:1057400040F4003048620299052081F820000120D1
:105750008DF80F008DE0E3E70298007E012807D165
:10576000FFE702980168086840F08000086006E0E2
:1057700002980168086820F080000860FFE702983E
:10578000407E012807D1FFE702980168086840F0D1
:105790004000086006E002980168086820F04000B8
:1057A0000860FFE70298807E012807D1FFE7029892
:1057B0000168086840F02000086006E0029801686F
:1057C000086820F020000860FFE70298C07E0128EA
:1057D00007D1FFE702980168086820F01000086010
:1057E00006E002980168086840F010000860FFE7D2
:1057F0000298007F012807D1FFE702980168086836
:1058000040F00800086006E002980168086820F08F
:1058100008000860FFE70298407F012807D1FFE7F2
:1058200002980168086840F00400086006E00298E9
:105830000168086820F004000860FFE7029B19680F
:105840005A689868D3F80CC040EA0C00D3F810C02E
:1058500040EA0C005B691843013A1043C8610299A1
:1058600000204862029A012182F820108DF80F0072
:10587000FFE79DF80F0004B080BD000080B590B038
:105880000F9000200E900D900C900B900A900F98A6
:10589000006846F20041C4F20001884249D1FFE7A6
:1058A00040F2C420C2F200000168013101600068CA
:1058B000012812D1FFE7FFE70020099043F64000DE
:1058C000C4F20200016841F000710160006800F05C
:1058D000007009900998FFE7FFE7FFE700200890B4
:1058E00043F63000C4F20200016841F00801016093
:1058F000006800F0080008900898FFE703200A906D
:1059000002210B91002103910C910D9009200E9022
:1059100040F60040C4F202000AA900F0F3FD039A29
:1059200014200490052101F0BFF8049801F0B2F8AA
:1059300064E00F98006846F60001C4F20001884256
:105940005BD1FFE7FFE70020079043F64000C4F279
:105950000200016841F080610160006800F0806031
:1059600007900798FFE740F2C420C2F200000168E8
:10597000013101600068012812D1FFE7FFE7002034
:10598000069043F64000C4F20200016841F0007145
:105990000160006800F0007006900698FFE7FFE7DE
:1059A000FFE70020059043F63000C4F202000168D2
:1059B00041F002010160006800F0020005900598C6
:1059C000FFE760200A9002200B90002001900C90CD
:1059D00003200D9009200E9040F20040C4F2020016
:1059E0000AA900F08FFD019A40200290052101F0E4
:1059F0005BF8029801F04EF8FFE7FFE710B080BDBA
:105A000081B0009001B0704780B586B005900598D0
:105A100042F27402C2F2000242F26C03C2F20003CC
:105A20000021FFF749FB0598006846F60001C4F223
:105A30000001884240F0E680FFE742F27400C2F2C3
:105A400000000068A0F2012001460391072800F23F
:105A5000D7800399DFE801F06C86A0BA041E3852A3
:105A600040F29841C2F200010020086040F2942107
:105A7000C2F2000108680130086042F27400C2F20C
:105A800000000068059942F26C02C2F2000204F0C4
:105A900037F9B6E040F29841C2F2000100204860B8
:105AA00040F29421C2F2000148680130486042F29D
:105AB0007400C2F200000068059942F26C02C2F262
:105AC000000204F01DF99CE040F29841C2F200018E
:105AD0000020886040F29421C2F200018868013001
