:020000040800F2
:10000000D8A400209D010008E5990008C5880008D3
:1000100001960008D90B00084925010800000000DE
:1000200000000000000000000000000031F60008A1
:100030003542000800000000019D000865F6000838
:10004000B7010008B7010008B7010008B7010008B0
:10005000B7010008B7010008B7010008B7010008A0
:10006000B7010008B701000859420008B7010008AD
:10007000B92F0008B7010008B7010008B701000850
:10008000B7010008B7010008B7010008B701000870
:10009000DD0B0008B7010008B70100086542000841
:1000A000B7010008B7010008B7010008B701000850
:1000B000B701000871F7000885F70008B7010008CC
:1000C000B7010008B7010008B7010008B701000830
:1000D000B7010008F1220108B70100080123010857
:1000E000B7010008B7010008B7010008B701000810
:1000F000B7010008B7010008B7010008B701000800
:10010000B7010008B701000899F70008B701000817
:10011000B7010008B7010008ADF70008C1F70008F3
:10012000C92F00089D400008AD400008BD400008F0
:10013000B7010008B7010008B7010008B7010008BF
:10014000ED0B0008B7010008B7010008B70100086F
:10015000B7010008CD400008DD4000082D2401084B
:10016000B7010008B7010008B7010008B70100088F
:10017000B7010008B7010008B7010008000000003F
:10018000B7010008B7010008DFF80CD000F064FBED
:10019000004800476D370108D8A400200648804772
:1001A00006480047FEE7FEE7FEE7FEE7FEE7FEE75C
:1001B000FEE7FEE7FEE7FEE75DF7000889010008BD
:1001C0002DE9F05F0546002092469B46884606468C
:1001D000814640241BE0284641464746224600F01F
:1001E0006CFA53465A46C01A914110D3114618462C
:1001F000224600F053FA2D1A67EB01084F462246BB
:100200000120002100F04AFA17EB00094E41201EA0
:10021000A4F10104DFDC484631462A464346BDE8E6
:10022000F09F40EA01039B0703D009E008C9121FB1
:1002300008C0042AFAD203E011F8013B00F8013BA0
:10024000521EF9D27047D2B201E000F8012B491ECC
:10025000FBD270470022F6E710B513460A46044663
:100260001946FFF7F0FF204610BD2DE9FE4F8046EE
:1002700081EA0300C00F0C46009021F0004123F0FA
:100280000045B8EB0200A94105D240462146904600
:100290001C460B46024623F00040104347D0270D72
:1002A000C7F30A00C3F30A510290401A0190402894
:1002B0006BDAC3F3130040F4801B0098924620B120
:1002C0000023D2EB030A63EB0B0B01985946C0F1F4
:1002D0004002504600F0E2F906460D4650465946A7
:1002E000019A00F0FAF910EB08006141002487EA56
:1002F000115284EAE7731A4340D0009A62B3019A1C
:10030000012A4FEA075215DC001B61EB02014FF096
:10031000004202EA0752CDE90042001C41F580117B
:1003200032462B4600F031FA03B0BDE8F08F40466C
:100330002146F9E7001B61EB0201001C41F5801327
:1003400000185B412018A2F5001747EB030140EAB3
:10035000D570B6196D4111E06D084FEA360645EAD1
:10036000C0754FEA0752001B61EB0201001C41F50A
:10037000801149084FEA30000019514132462B469E
:1003800003B0BDE8F04F00F0F1B900980122400041
:100390000023D0EB020263EBE073009821464FEAA2
:1003A000E074B8EB000061EB0401E9E783F000437F
:1003B0005BE781F0004158E72DE9FE4F81EA030435
:1003C00004F0004421F0004100944FF0000B23F0B2
:1003D000004350EA01045ED052EA03045BD0C3F349
:1003E0000A54C1F30A552C44A4F2F3340194A0FB3F
:1003F0000254C1F3130141F48011C3F3130343F416
:10040000801301FB024400FB034E840A970A44EA6E
:10041000815447EA8357A4FB076802958D0A05FBC0
:1004200007854FEA932C04FB0C542705029D4FEAE5
:10043000065847EA1637B5EB08056EEB070C870E32
:10044000920E47EA811742EA8312A7FB0201B6EB3C
:100450000B0164EB00042B0D43EA0C335E1844EBF4
:100460001C50DA465146E7FB0201C5F313044FEA7C
:100470000B3343EA14534FEA0432019C43EA060368
:10048000A4F10C040294009CCDE900B400F07DF9C5
:1004900003B0BDE8F08F00200146F9E72DE9F04DEB
:1004A00081EA030404F0004B21F0004514464FF0AC
:1004B000000A23F0004150EA050220D054EA01026C
:1004C0001DD0C5F30A570246C5F31303C1F3130049
:1004D000C1F30A5640F4801543F48013A7EB0608D5
:1004E000101BD64608F2FD3873EB050002D308F165
:1004F000010801E092185B41B8F1000F03DA002017
:100500000146BDE8F08D00204FF480110646844678
:100510000EE0171B73EB050705D3121B63EB0503F6
:1005200006434CEA010C49084FEA300092185B413F
:1005300050EA0107EDD152EA030012D082EA04002A
:1005400083EA0501084305D0101BAB4106D2012206
:10055000002306E000224FF0004302E06FF00102AA
:1005600053101AEB06004CEB085110EB0A0041EB5C
:100570000B01BDE8F04D00F0F9B830B5041E71F183
:10058000000404DB4FF00044404264EB0101141E00
:1005900073F1000405DB1C464FF00043524263EB4D
:1005A0000403801A994101D3012030BD002030BDE1
:1005B00030B5041E71F1000404DB4FF000444042EA
:1005C00064EB0101141E73F1000405DB1C464FF0BF
:1005D0000043524263EB0403101A8B4101D3012004
:1005E00030BD002030BD30B5041E71F1000404DBC5
:1005F0004FF00044404264EB0101141E73F100040B
:1006000005DB1C464FF00043524263EB0403801AA3
:10061000994101D2012030BD002030BD0EB5C10F7F
:1006200080EAE0700844CA07002140F233438DE8B5
:100630000E000A460B4600F0A8F803B000BD00F01B
:10064000004230F000400AD0C10D01F56071C0F3E6
:10065000160042EA0151C2084007114370470020CA
:100660000146704701F0004330B421F0004150EAE8
:10067000010206D00A0DA2F56072C1F31301002A2F
:1006800002DC30BC00207047440F44EAC104C100C2
:10069000E01830BC00EBC25000F031B8202A04DB77
:1006A000203A00FA02F1002070479140C2F1200385
:1006B00020FA03F3194390407047202A04DB203AC4
:1006C00021FA02F00021704721FA02F3D040C2F172
:1006D00020029140084319467047202A06DBCB17B9
:1006E000203A41FA02F043EAE07306E041FA02F3ED
:1006F000D040C2F1200291400843194670470029BA
:10070000A8BF7047401C490008BF20F00100704797
:1007100010B4B0FA80FC00FA0CF050EA010404BFF7
:1007200010BC704749B1CCF1200421FA04F411FA4D
:100730000CF118BF012121430843A3EB0C01CB1D91
:100740004FEA00614FEA102042BF002010BC704702
:1007500000EBC35010440029A4BF10BC7047401CDC
:10076000490008BF20F0010010BC704710B5141EEE
:1007700073F1000408DA401C41F1000192185B415A
:100780001A4301D120F0010010BD2DE9F04D924631
:100790009B4611B1B1FA81F202E0B0FA80F2203248
:1007A0009046FFF77BFF04460F4640EA0A0041EA05
:1007B0000B0153465A46084313D0114653EA010031
:1007C00019D0C8F140025046FFF777FF05460E46A4
:1007D000504659464246FFF761FF084305D00120C5
:1007E00004E020463946BDE8F08D0020054346EA86
:1007F000E0762C4337430A986305E40AA0EB08002F
:100800000022FD0A44EA47540A3002D5002001467E
:10081000E9E7010510196941DDE908450019694159
:10082000BDE8F04DA2E7000030B5041E71F10004F0
:1008300004DB4FF00044404264EB0101141E73F1ED
:10084000000405DB1C464FF00043524263EB0403F7
:100850008B4208BF824230BD064C074D06E0E0687F
:1008600040F0010394E8070098471034AC42F6D3F7
:10087000FFF78EFCAC720108CC7201080EB540F295
:10088000334102910021CDE900110A460B46FFF7E2
:100890007CFF03B000BD70B5C1F30A5201F0004502
:1008A0000024C1F3130140F2FF3341F480119A4256
:1008B00001DA002070BD40F233439A42A2F2334283
:1008C00003DC5242FFF7F9FE00E090402C43F1D0E8
:1008D000404270BD81B000208DF80300FFE79DF815
:1008E0000300032870DCFFE79DF8031040F254106A
:1008F000C2F2000000EB810292ED3D0A01EB8101A2
:1009000000EB810090ED031A30EE410A9FED2F1AA3
:10091000B4EE410AF1EE10FA1BDDFFE79DF803107B
:1009200040F25410C2F2000000EB810191ED3D0A4B
:100930009FED271A30EE010A81ED3D0A9DF8031064
:1009400000EB810090ED390AB1EE400A80ED390AE2
:10095000FFE79DF8031040F25410C2F2000000EBD4
:10096000810292ED3D0A01EB810100EB810090EDE7
:10097000031A30EE410A9FED171AB4EE410AF1EE68
:1009800010FA1BDAFFE79DF8031040F25410C2F290
:10099000000000EB810191ED3D0A9FED0F1A30EE52
:1009A000010A81ED3D0A9DF8031000EB810090EDF6
:1009B000390AB1EE400A80ED390AFFE79DF80300DD
:1009C00001308DF803008AE701B070470000B4429F
:1009D000000034C30000B4C20000344385B004906A
:1009E0000391029204990878497840EA0120ADF811
:1009F0000600BDF9060000EE100AB8EEC00A40F28B
:100A00001400C2F2000090ED001A20EE010A0399D2
:100A100081ED000A049A9178D27841EA0221ADF87A
:100A20000610BDF9061000EE101AB8EEC00A90EDDF
:100A3000001A20EE010A039981ED010A049A117946
:100A4000527941EA0221ADF80610BDF9061000EE18
:100A5000101AB8EEC00A90ED001A20EE010A0398B1
:100A600080ED020A04988179C279007A000440EA94
:100A70000220084400909DED000AB8EE400A9FED68
:100A8000041A20EE010A029880ED000A05B07047B2
:100A900000401C4284B003900291019203990878AF
:100AA000497840EA0120ADF80200BDF9020000EEED
:100AB000100AB8EEC00A40F21800C2F2000090ED31
:100AC000001A20EE010A029981ED000ABDF9021018
:100AD00000EE101AB8EEC00A9FED272A80EE020A37
:100AE0009FED261A20EE010A019981ED000A039A72
:100AF0009178D27841EA0221ADF80210BDF90210D6
:100B000000EE101AB8EEC00A90ED003A20EE030A8B
:100B1000029981ED010ABDF9021000EE101AB8EE3B
:100B2000C00A80EE020A20EE010A019981ED010A55
:100B3000039A1179527941EA0221ADF80210BDF908
:100B4000021000EE101AB8EEC00A90ED003A20EE46
:100B5000030A029880ED020ABDF9020000EE100AB5
:100B6000B8EEC00A80EE020A20EE010A019880ED7C
:100B7000020A04B0704700BF000000470000FA44BA
:100B800083B002900191029908784978C00040EA48
:100B90005110ADF80200BDF90200B0F5806F07DB1F
:100BA000FFE7BDF80200A0F50060ADF80200FFE726
:100BB000BDF9020000EE100AB8EEC00AB4EE001A49
:100BC00020EE010AB3EE071A30EE010A019880ED1B
:100BD000000A03B070470000FFE7FEE780B540F66B
:100BE0006870C2F2000003F0B3FF80BD80B540F62C
:100BF0009070C2F2000003F0ABFF80BD80B582B000
:100C0000ADF8060040F61061C2F200012E20086027
:100C100000208860C860022008619DF8070040F647
:100C20000D62C2F2000210709DF80600507040F68E
:100C30006870C2F200006B4603F004FD02B080BD94
:100C400080B584B0ADF80E00ADF80C10ADF80A20F8
:100C5000ADF8083040F63461C2F200012F20086080
:100C600000208860C860082008619DF80F0040F6E9
:100C70002A62C2F2000210709DF80E0050709DF8BA
:100C80000D0090709DF80C00D0709DF80B00107155
:100C90009DF80A0050719DF8090090719DF80800B8
:100CA000D07140F66870C2F2000001AB03F0CAFCDC
:100CB00004B080BD40F22C10C2F2000090ED000A9A
:100CC000B2EE081AB4EE410AF1EE10FA07DAFFE7C5
:100CD00040F22C11C2F200010120887315E040F2AD
:100CE0002C10C2F2000090ED000AB3EE021AB4EE2E
:100CF000410AF1EE10FA07DDFFE740F22C11C2F2D3
:100D0000000100208873FFE7FFE740F25410C2F2B1
:100D1000000090F81C01E0B1FFE740F22C10C2F295
:100D2000000090ED000AB2EE081AB4EE410AF1EEAE
:100D300010FA0EDDFFE740F22C10C2F20000807BBB
:100D400038B9FFE740F22C11C2F20001012088728D
:100D500006E040F22C11C2F2000100208872FFE789
:100D600041F63810C2F2000000891E2808DBFFE7B8
:100D700040F62860C2F200000088C92807DBFFE7C0
:100D800040F22C11C2F2000100208872FFE740F609
:100D90002861C2F200010888013008807047000015
:100DA00070B586B0059001F083FEFFE740F2774012
:100DB000C2F2000003F040FA01F0BAFF01F0C8FDF2
:100DC00040F22050C2F2000009F072F840F2CC204C
:100DD000C2F2000003F0CCFB00F00EFB40F2541016
:100DE000C2F20000049011F043FCFFF763FFDDF84E
:100DF00010E09EED313A9EED322A9EED331A9EEDC3
:100E0000340ABDEEC33A13EE100ABDEEC22A12EE4A
:100E1000101ABDEEC11A11EE102ABDEEC00A10EE76
:100E2000103A9EED350ABDEEC00A10EE10CA9EEDD6
:100E3000360ABDEEC00A10EE104A9EED370ABDEE2E
:100E4000C00A10EE105A9EED380ABDEEC00A10EE30
:100E5000106AEE46CEF80C60CEF80850CEF804408A
:100E6000CEF800C001F0C8FF012012F0FBFC9DE7A6
:100E700080B584B0039002910192009340F6C45073
:100E8000C2F2000000218160C16001990161006926
:100E9000092807D3FFE740F6C451C2F20001082039
:100EA0000861FFE7029840F6C451C2F200010860F1
:100EB0000398009A42F21413C2F2000303F0C2FB3B
:100EC00004B080BD80B584B00390FFE740F23F508E
:100ED000C2F2000000F2112140F27422C2F20002BC
:100EE00008F040FF012815D1FFE740F27420C2F25C
:100EF0000000018849BA019181788DF80B100199A1
:100F00009DF80B20C31C40F66870C2F2000000F090
:100F100005F8FFE7012012F0A5FCD7E780B586B001
:100F2000059004918DF80F200293049840F6DC514F
:100F3000C2F20001086000208860C8609DF80F00C0
:100F400008610598029A01AB03F07CFB06B080BDF6
:100F500086B0DDF830C0DDF82CC0DDF828C0DDF843
:100F600024C0DDF820C0DDF81CC0DDF818C00590F5
:100F700004910392029300200190FFE70199002061
:100F80000229009008DCFFE704980199405C0028E2
:100F900018BF01200090FFE70098C00758B1FFE795
:100FA0000498019A805C0599891A8870FFE7019876
:100FB00001300190E2E70599D1F80320D1F807301C
:100FC000D1F80B0042F03802C1F80730C1F8032015
:100FD000C1F80B00DDF80CC00599D1F80320D1F859
:100FE0000730D1F80B006CF30202C1F80730C1F8EA
:100FF0000320C1F80B00DDF808C00599D1F80320E3
:10100000D1F80730D1F80B000CF00F0C22F47072FD
:1010100042EA8C12C1F80730C1F80320C1F80B0076
:10102000DDF818C00599D1F80320D1F80730D1F8C0
:101030000B000CF00F0C22F4705242EA8C22C1F823
:101040000730C1F80320C1F80B00DDF824C0059972
:10105000D1F80330D1F80720D1F80B006CF3090266
:10106000C1F80330C1F80720C1F80B00DDF828C033
:101070000599D1F80330D1F80720D1F80B006FF3B0
:10108000DF2C6FF3942242EA8C22C1F80330C1F8BE
:101090000720C1F80B00DDF82CC00599D1F803300A
:1010A000D1F80720D1F80B006FF35F5242EA4C529F
:1010B000C1F80330C1F80720C1F80B00DDF81CC0EF
:1010C0000599D1F80320D1F80730D1F80B006FF360
:1010D0005F2C6FF3963242EA8C32C1F80730C1F8C8
:1010E0000320C1F80B00DDF820C00599D1F80320DA
:1010F000D1F80730D1F80B006FF3DF5242EACC523F
:10110000C1F80730C1F80320C1F80B00002001909E
:10111000FFE70198089988420ED2FFE70C98007803
:101120000599019A1144C8730C9801300C90FFE79F
:10113000019801300190ECE706B070472DE9F047C7
:10114000B6B0DDF81491DDF81081439F429E419DB9
:10115000409CDDF8FCE0DDF8F8C0CDF8A490CDF8B7
:10116000A0802797269625952494CDF88CE0CDF87D
:1011700088C0219320921F911E902AA807901EA933
:101180002D220892FFF74DF80799089A4FF6FF7045
:10119000ADF83E0011A8FFF744F80DA81090A52067
:1011A0008DF834003320ADF8350040F66410C2F2FB
:1011B000000000788DF8370010980421FF2203F01A
:1011C000B5F98DF8380040F20130ADF839004FF430
:1011D0008870ADF82C0042F26E00C2F20000007878
:1011E000012808D1FFE70120ADF82E0040F20110E0
:1011F000ADF8300076E042F26E00C2F200000078F6
:10120000652808D1FFE76520ADF82E0040F2651093
:10121000ADF8300065E042F26E00C2F200000078E6
:10122000032808D1FFE70320ADF82E0040F2031099
:10123000ADF8300054E042F26E00C2F200000078D7
:10124000672808D1FFE76720ADF82E0040F267104D
:10125000ADF8300043E042F26E00C2F200000078C8
:10126000042808D1FFE70420ADF82E004FF4827067
:10127000ADF8300032E042F26E00C2F200000078B9
:10128000682808D1FFE76820ADF82E004FF4B4704D
:10129000ADF8300021E042F26E00C2F200000078AA
:1012A000052808D1FFE70520ADF82E0040F2051013
:1012B000ADF8300010E042F26E00C2F2000000789B
:1012C000692808D1FFE76920ADF82E0040F26910C7
:1012D000ADF83000FFE7FFE7FFE7FFE7FFE7FFE7D5
:1012E000FFE7FFE70DA8019010901098BDF83E2091
:1012F000072103F0E7F8ADF83E000BA8029010902C
:101300001098BDF83E20062103F0DCF8ADF83E0051
:1013100011A8049010901098BDF83E202D21039143
:1013200003F0D0F8019B0299039A84460498ADF823
:101330003EC040F2E42CC2F2000CCDF814C0CDF84F
:1013400028C04FF0000CCDF818C08DF827C01093BE
:10135000DDF828C0DDF840E0DEF80030DEF803E01C
:10136000CCF803E0CCF800300A9B07330A939DF8D1
:10137000273007338DF8273010910A9B1099B1F868
:1013800004C0A3F804C0096819600A9906310A91DB
:101390009DF8271006318DF8271010900A981099A3
:1013A000FEF73FFF05980A992D310A919DF8271005
:1013B0002D318DF827100DF13E0110910A9A1099E8
:1013C000098811800A9902310A919DF8271002318B
:1013D0008DF8271040F66412C2F200021178013134
:1013E00011709DF8271010F019FF069836B0BDE86F
:1013F000F08700000000000080B5ADF51C7D40F2D4
:101400005410C2F2000090F8B40040B1FFE740F27F
:101410007740C2F20000007A012819D1FFE740F2BC
:101420005411C2F20001999100209A90C1F8C400B1
:10143000C1F8C800C1F8CC00C1F8D000C1F8D40090
:10144000C1F8D800C1F8DC00C1F8E00001F0A8B98B
:1014500040F25410C2F2000090F8B400022813D0F9
:10146000FFE740F25410C2F2000090F8B4000328E5
:101470000AD0FFE740F25410C2F2000090F8B40026
:10148000012840F0A285FFE740F66C50C2F2000050
:1014900090ED030A9FEDE21A70EE410A30EE011A58
:1014A0009FEDE00A12F0F8F840F6D860C2F20000B2
:1014B00080ED000A40F25410C2F2000090F8B4002F
:1014C000022840F06682FFE740F66C50C2F200004E
:1014D00090ED031A9FEDD30A30EE410A40F690508A
:1014E000C2F2000080ED000A90ED000A9FEDCC1AD8
:1014F000B4EE410AF1EE10FA0DDDFFE740F6905030
:10150000C2F2000090ED000A9FEDC71A30EE010A0A
:1015100080ED000A1BE040F69050C2F2000090ED12
:10152000000A9FEDC21AB4EE410AF1EE10FA0DDA8C
:10153000FFE740F69050C2F2000090ED000A9FEDE8
:10154000BC1A30EE010A80ED000AFFE7FFE740F227
:10155000AD40C2F200008490B0F9010000EE100A24
:10156000B8EEC00A9FEDB31A8DED851A80EE010A20
:1015700010EE100AFFF763F841EC100B8DED7A0BBB
:1015800040F69050C2F2000086900068FFF757F8CE
:1015900041EC100B51EC100B9FEDA70B53EC102BF3
:1015A00089938892FEF77AFF41EC100B51EC100BF7
:1015B0009FEDA30B53EC102B8B938A92FEF7FCFE4E
:1015C00041EC100B14F0A4FC84989DED851A8DED70
:1015D0007C0BB0F9030000EE100AB8EEC00A80EEF2
:1015E000010A10EE100AFFF72AF802468698779251
:1015F0000A46779942EC101B8DED780B0068FFF7D7
:101600001EF8889A899B41EC100B51EC100BFEF7E9
:1016100045FF8A9A8B9B41EC100B51EC100BFEF7A7
:10162000CBFE41EC100B14F0D7FC9DED781B51EC78
:10163000110B53EC102BFEF7BFFE9DED7A1B9DEDB9
:101640007C0B41EC120B8DED7E2B51EC110B53EC0E
:10165000102BFEF7B1FE9DED7E0B41EC110B51EC12
:10166000110B53EC102BFEF7A1FE41EC100B8DED8E
:10167000800B46F26810C2F2000094900068FEF7FA
:10168000DEFF9DED801B41EC100B51EC110B53EC78
:10169000102BFEF791FE41EC100B51EC100BFEF7F6
:1016A000E1FF9DED851A0146849840F25412C2F282
:1016B00000029892C2F8B810B0F9010000EE100ACA
:1016C000B8EEC00A80EE010A10EE100AFEF7B7FF6E
:1016D0000246869883920A46839942EC101B8DED50
:1016E0008E0B0068FEF7ABFF889A899B41EC100BCC
:1016F00051EC100BFEF7D2FE8A9A8B9B41EC100B3B
:1017000051EC100BFEF758FE41EC100B14F064FC8A
:1017100084989DED851A8DED900BB0F9030000EED5
:10172000100AB8EEC00A80EE010A10EE100AFEF7A9
:1017300086FF0246869887920A46879942EC101BDC
:101740008DED8C0B0068FEF77AFF889A899B41EC3F
:10175000100B51EC100BFEF7A1FE8A9A8B9B41EC0B
:10176000100B51EC100BFEF727FE41EC100B14F0A0
:10177000CFFB9DED8C1B51EC110B53EC102BFEF7A6
:101780001BFE9DED8E1B9DED900B41EC120B8DED24
:10179000922B51EC110B53EC102BFEF70DFE9DED2F
:1017A000920B41EC110B51EC110B53EC102BFEF78B
:1017B0005CFD0246949895920A46959942EC101B5E
:1017C0008DED960B0068FEF73AFF9DED961B41EC00
:1017D000100B51EC110B53EC102BFEF7EDFD41EC0F
:1017E000100B51EC100BFEF73DFF01469898C0F826
:1017F000BC1090ED2E0A90ED2F1A20EE010AB5EEE6
:10180000400AF1EE10FA37D0FFE740F69061C2F2DD
:10181000000146F26660C3F66670086134E000BFFE
:10182000000034439A991EC30000B4C3000034C3BF
:101830000000B44300FEFF46000000000080664048
:1018400000000060FB210940000000000000E03FB4
:101850007B14AE47E17A843F14AE47E17A14E6BFC9
:10186000CDCCCCCCCCCC1040000000000000084017
:10187000CDCCCCCCCCCC004040F69061C2F2000183
:101880004FF080400861FFE740F66C50C2F2000064
:1018900090ED030A40F6D860C2F20000D0ED000AD5
:1018A00040F69060C2F2000008F0D4F8B1EE400AB1
:1018B00040F25410C2F2000080ED300A90ED2E0A82
:1018C00002F028FD10EE100AFEF7B9FE41EC100BF5
:1018D0001FED231B53EC112B51EC100BFEF768FE90
:1018E000002855D1FFE740F25410C2F2000090EDFD
:1018F0002F0A02F00FFD10EE100AFEF7A0FE41ECD9
:10190000100B1FED2F1B53EC112B51EC100BFEF79E
:101910004FFEE8BBFFE740F69050C2F2000090EDAA
:10192000000A02F0F7FCB2EE0A1AB4EE410AF1EE38
:1019300010FA2DDAFFE740F25410C2F2000090EDE9
:101940002E0A90ED2F1A20EE010AB5EE400AF1EEB4
:1019500010FA1DD0FFE740F25410C2F2000076905A
:10196000D0F8C000FEF76BFE41EC100B1FED481BDA
:1019700053EC112B51EC100BFEF71EFD41EC100B3C
:1019800051EC100BFEF76EFE7699C1F8C000FFE730
:101990001AE340F25410C2F2000090F8B400032899
:1019A00040F0CC81FFE740F66C50C2F200004A9054
:1019B00090ED031A1FED650A30EE410A10EE100A91
:1019C000FEF73DFE02464A984B920A464B9942EC7E
:1019D000101B8DED4C0BB0F90200FEF71FFE41EC21
:1019E000100B1FED631B53EC112B51EC100BFEF78A
:1019F000E3FC9DED4C0B02460B4651EC100B43EC07
:101A0000102B53EC102BFEF730FC41EC100B51EC7B
:101A1000100BFEF727FE40F69051C2F200016091D4
:101A2000086046F26810C2F200006E900068FEF78F
:101A300006FE41EC100B1FED761B53EC112B51EC05
:101A4000100BFEF72BFD41EC100B14F0C5FA51EC16
:101A5000100B1FED7B0B53EC102BFEF7ADFC41EC94
:101A6000100B51EC100BFEF7FDFD40F25411C2F2C9
:101A700000017591C1F8C00040F2AD40C2F2000013
:101A80005E90B0F9010000EE100AB8EEC00A1FED3A
:101A9000971A8DED5F1A80EE010A10EE100AFEF71C
:101AA000CEFD024660984E920A464E9942EC101BBB
:101AB0008DED520B0068FEF7C2FD41EC100B51ECAE
:101AC000100B1FEDA30B53EC102B63936292FEF7E8
:101AD000E5FC41EC100B51EC100B1FEDA70B53EC88
:101AE000102B65936492FEF767FC41EC100B14F029
:101AF0000FFA5E989DED5F1A8DED540BB0F903005F
:101B000000EE100AB8EEC00A80EE010A10EE100ACC
:101B1000FEF795FD024660984F920A464F9942ECB7
:101B2000101B8DED500B0068FEF789FD629A639BD8
:101B300041EC100B51EC100BFEF7B0FC649A659B66
:101B400041EC100B51EC100BFEF736FC41EC100B86
:101B500014F042FA9DED501B51EC110B53EC102B7D
:101B6000FEF72AFC9DED521B9DED540B41EC120B30
:101B70008DED562B51EC110B53EC102BFEF71CFC8A
:101B80009DED560B41EC110B51EC110B53EC102B4E
:101B9000FEF70CFC02466E9859920A46599942EC9F
:101BA000101B8DED5A0B0068FEF749FD9DED5A1B89
:101BB00041EC100B51EC110B53EC102BFEF7FCFB1E
:101BC00041EC100B51EC100B1FEDD70B53EC102B0D
:101BD00074937392FEF762FC41EC100B51EC100B06
:101BE000FEF740FD9DED5F1A759A01465E98C2F8BA
:101BF000B810B0F9010000EE100AB8EEC00A80EE8D
:101C0000010A10EE100AFEF71AFD024660985D9276
:101C10000A465D9942EC101B8DED680B0068FEF7DB
:101C20000EFD629A639B41EC100B51EC100BFEF71A
:101C300035FC649A659B41EC100B51EC100BFEF7E0
:101C4000BBFB41EC100B14F0C7F95E989DED5F1AD9
:101C50008DED6A0BB0F9030000EE100AB8EEC00A71
:101C600080EE010A10EE100AFEF7E9FC02466098C9
:101C700061920A46619942EC101B8DED660B00687B
:101C8000FEF7DDFC629A639B41EC100B51EC100BEC
:101C9000FEF704FC649A659B41EC100B51EC100BB1
:101CA000FEF78AFB41EC100B14F032F99DED661B38
:101CB00051EC110B53EC102BFEF77EFB9DED681BD6
:101CC0009DED6A0B41EC120B8DED6C2B51EC110B61
:101CD00053EC102BFEF770FB9DED6C0B41EC110BE0
:101CE00051EC110B53EC102BFEF7BFFA02466E9825
:101CF0006F920A466F9942EC101B8DED700B0068D5
:101D0000FEF79DFC9DED701B41EC100B51EC110B8F
:101D100053EC102BFEF750FB739A749B41EC100BA5
:101D200051EC100BFEF7BAFB41EC100B51EC100B11
:101D3000FEF798FC7599C1F8BC0044E140F25410DC
:101D4000C2F2000090F8B400012840F03B81FFE7A8
:101D500040F66C50C2F2000090ED031A9FEDCD0AE0
:101D600030EE410A40F69050C2F200003A9080ED09
:101D7000000A40F2AD40C2F200003890B0F9010014
:101D800000EE100AB8EEC00A9FEDC31A8DED391AA5
:101D900080EE010A10EE100AFEF751FC02463A9856
:101DA0002C920A462C9942EC101B8DED300B0068EA
:101DB000FEF745FC41EC100B51EC100B9FEDB80BFE
:101DC00053EC102B3D933C92FEF768FB41EC100B5B
:101DD00051EC100B9FEDB40B53EC102B3F933E9244
:101DE000FEF7EAFA41EC100B14F092F838989DEDEA
:101DF000391A8DED320BB0F9030000EE100AB8EE7F
:101E0000C00A80EE010A10EE100AFEF718FC024626
:101E10003A982D920A462D9942EC101B8DED2E0B0F
:101E20000068FEF70CFC3C9A3D9B41EC100B51EC1A
:101E3000100BFEF733FB3E9A3F9B41EC100B51EC2D
:101E4000100BFEF7B9FA41EC100B14F0C5F89DED3C
:101E50002E1B51EC110B53EC102BFEF7ADFA9DED40
:101E6000301B9DED320B41EC120B8DED342B51EC00
:101E7000110B53EC102BFEF79FFA9DED340B41EC48
:101E8000110B51EC110B53EC102BFEF78FFA41ECB8
:101E9000100B51EC100BFEF7E5FB9DED391A0146D6
:101EA000389840F25412C2F200024992C2F8BC10B3
:101EB000B0F9010000EE100AB8EEC00A80EE010A87
:101EC00010EE100AFEF7BBFB02463A9837920A461C
:101ED000379942EC101B8DED420B0068FEF7AFFB0B
:101EE0003C9A3D9B41EC100B51EC100BFEF7D6FADF
:101EF0003E9A3F9B41EC100B51EC100BFEF75CFA45
:101F000041EC100B14F068F838989DED391A8DEDFE
:101F1000440BB0F9030000EE100AB8EEC00A80EEE0
:101F2000010A10EE100AFEF78AFB02463A983B922D
:101F30000A463B9942EC101B8DED400B0068FEF702
:101F40007EFB3C9A3D9B41EC100B51EC100BFEF7D5
:101F5000A5FA3E9A3F9B41EC100B51EC100BFEF79B
:101F60002BFA41EC100B13F0D3FF9DED401B51EC0D
:101F7000110B53EC102BFEF71FFA9DED421B9DED4C
:101F8000440B41EC120B8DED462B51EC110B53EC35
:101F9000102BFEF711FA9DED460B41EC110B51ECA5
:101FA000110B53EC102BFEF760F941EC100B51ECC8
:101FB000100BFEF757FB4999C1F8B8000020C1F893
:101FC000C000FFE7FFE7FFE7FFE740F2AD40C2F2E6
:101FD0000000B0F90100FEF721FB41EC100B9FED72
:101FE000341B53EC112B51EC100BFEF757FA41EC5C
:101FF000100B51EC100BFEF735FB00EE100A02F04F
:1020000089F910EE100AFEF71AFB41EC100B51ECA7
:10201000100B9FED290B53EC102BFEF7E4FA70BB6D
:10202000FFE740F2AD40C2F20000B0F90300FEF756
:10203000F5FA41EC100B9FED1E1B53EC112B51ECEC
:10204000100BFEF72BFA41EC100B51EC100BFEF7C6
:1020500009FB00EE100A02F05DF910EE100AFEF71F
:10206000EEFA41EC100B51EC100B9FED130B53ECFF
:10207000102BFEF782FA002840F00481FFE70020D1
:102080008DF86F02FFE79DF86F02032800F3F380DD
:102090002AE000BF9A991EC300FEFF4600BF00BFA2
:1020A000000000000080664000000060FB21094045
:1020B00000000000C0FFDF409A9999999999A93FC3
:1020C000213A7F669EA0F63F00000000000000401D
:1020D00097D17E5AFB210940000007C3000034C29B
:1020E000000034420000074340F25411C2F20001E4
:1020F0002B91D1F8B8001C90D1F8BC00D1F8C010D9
:102100001691FEF79CFA0246169817920A461799FE
:1021100042EC101B8DED1A0BFEF791FA41EC100BFF
:102120001FED191B53EC112B51EC100BFEF744F96A
:1021300041EC100B51EC100B1FED1D0B53EC102B51
:10214000FEF7ACF941EC100B8DED180B9DF86F12FA
:1021500040F22000C2F2000000EB81021E9250F813
:102160002100FEF76CFA9DED180B41EC110B53ECBE
:10217000112B51EC100B21912090FEF71DF99DEDD4
:102180001A0B41EC110B51EC110B53EC102BFEF719
:102190006CF802461C981D920A461D9942EC101BD1
:1021A0008DED240BFEF74BFA02461E981F920A464D
:1021B0001F9942EC101B8DED220B4068FEF73FFA91
:1021C000024620980B46219943EC102B53EC102B20
:1021D000FEF7F2F89DED220B41EC110B51EC110BC7
:1021E00053EC102BFEF741F89DED240B41EC110B45
:1021F00013F08EFD51EC100B1FED4B0B53EC102B1D
:10220000FEF74CF941EC100B8DED260B9DF86F128B
:102210002A9140F20400C2F2000050F82100FEF7BB
:102220000EFA9DED260B41EC110B8DED281B51ECA8
:10223000100B1FED650B53EC102BFEF7BDF89DED59
:10224000280B41EC110B51EC110B53EC102BFEF74A
:102250000CF841EC100B51EC100BFEF703FA2A9A24
:102260002B9901EB8201C1F8F4009DF86F02013057
:102270008DF86F0207E742F23911C2F20001012026
:102280000870B9E042F23910C2F20000007801286B
:102290000DD1FFE742F23811C2F200013C20087074
:1022A00042F23911C2F2000102200870FFE742F247
:1022B0003810C2F200000078012808D0FFE742F28F
:1022C0003811C2F2000108780138087093E042F238
:1022D0003911C2F200010020087040F25410C2F21D
:1022E000000090ED300AB5EE400AF1EE10FA29DD5B
:1022F000FFE740F20401C2F2000191ED000A1FED78
:102300008A1A30EE010A40F25410C2F2000080ED49
:102310003D0A91ED010A1FED8F1A30EE010A80EDA2
:102320003E0A91ED020A1FED921A30EE010A80ED8D
:102330003F0A91ED030A1FED951A30EE010A80ED78
:10234000400A57E040F25410C2F2000090ED300A0B
:10235000B5EE400AF1EE10FA29DAFFE740F2040187
:10236000C2F2000191ED000A1FEDA31A30EE010A3E
:1023700040F25410C2F2000080ED3D0A91ED010AD6
:102380001FEDA81A30EE010A80ED3E0A91ED020A17
:102390001FEDAF1A30EE010A80ED3F0A91ED030AFE
:1023A0001FEDB21A30EE010A80ED400A21E040F242
:1023B0005410C2F2000090ED300AB5EE400AF1EE82
:1023C00010FA15D1FFE740F20400C2F200000268E3
:1023D00040F25411C2F20001C1F8F4204268C1F881
:1023E000F8208268C1F8FC20C068C1F80001FFE74E
:1023F000FFE7FFE7FFE7FFE740F25410C2F20000FB
:10240000159090ED3D0A40F22440C2F2000090ED9C
:10241000031A9FEDE92A8DED142A71EE420A31EE7E
:10242000021A11F039F99DED142A159880ED3D0A34
:1024300090ED3E0A40F20C50C2F2000090ED031AFB
:1024400071EE420A31EE021A11F026F99DED142ABE
:10245000159880ED3E0A90ED3F0A40F2E440C2F24A
:10246000000090ED031A71EE420A31EE021A11F0EB
:1024700013F99DED142A159880ED3F0A90ED400A5E
:1024800040F2FC30C2F2000090ED031A71EE420AF5
:1024900031EE021A11F000F9159880ED400A40F271
:1024A0002C10C2F200000089C00728BBFFE740F2F1
:1024B0002C10C2F20000807A01281DD1FFE740F203
:1024C0005410C2F2000090ED2E0A30EE000A80EDAA
:1024D0002E0A90ED2F0A30EE000A80ED2F0A90EDC3
:1024E000300A30EE000A80ED300A40F22C11C2F2C0
:1024F00000010120C87206E040F22C11C2F2000176
:102500000020C872FFE700208DF86E02FFE79DF8FB
:102510006E02032800F3B880FFE740F25411C2F2C4
:102520000001D1F8B8000890D1F8BC00D1F8C01073
:102530000291FEF784F80246029803920A46039934
:1025400042EC101B8DED060BFEF779F841EC100BF9
:102550009FED951B53EC112B51EC100BFDF72CFF4D
:1025600041EC100B51EC100B9FED910B53EC102B29
:10257000FDF794FF41EC100B8DED040B9DF86E12EE
:1025800040F22000C2F2000000EB81020A9250F8F3
:102590002100FEF754F89DED040B41EC110B53ECB8
:1025A000112B51EC100B0D910C90FDF705FF9DEDDB
:1025B000060B41EC110B51EC110B53EC102BFDF7FA
:1025C00054FE0246089809920A46099942EC101BEB
:1025D0008DED100BFEF733F802460A980B920A466F
:1025E0000B9942EC101B8DED0E0B4068FEF727F89F
:1025F00002460C980B460D9943EC102B53EC102B14
:10260000FDF7DAFE9DED0E0B41EC110B51EC110BB9
:1026100053EC102BFDF729FE41EC100B53EC102B63
:1026200010461946FDF7C8FE9DED100B41EC110B4D
:102630008DED121B53EC102B10461946FDF7BCFE16
:102640009DED120B41EC110B51EC110B53EC102BC7
:10265000FDF70BFE41EC100B51EC100BFEF702F8EE
:1026600000EE100A13F01CFD9DF86E1242F22810C5
:10267000C2F2000000EB810080ED000A9DF86E02BE
:1026800001308DF86E0242E742F22811C2F20001D9
:1026900091ED000AB1EE400A40F25410C2F200007F
:1026A00080ED390A4A68C0F8E8208A68C0F8EC2052
:1026B00091ED030AB1EE400A80ED3C0A42F2391076
:1026C000C2F20000007802280ED1FFE740F2541158
:1026D000C2F200010020C1F8E400C1F8E800C1F82E
:1026E000EC00C1F8F000FFE7FEF7F4F840F22440F8
:1026F000C2F2000090ED030A40F25410C2F2000052
:102700000190D0ED3D0A41F2E870C2F2000007F0FE
:10271000A1F9019880ED410A40F20C51C2F200018A
:1027200091ED030AD0ED3E0A41F6D470C2F20000EA
:1027300007F090F9019880ED420A40F2E441C2F2BC
:10274000000191ED030AD0ED3F0A41F6FC60C2F2B0
:10275000000007F07FF9019880ED430A40F2FC3158
:10276000C2F2000191ED030AD0ED400A41F210706F
:10277000C2F2000007F06EF9019880ED440A00F003
:102780001DF8019840F26641C2F200010A7840F259
:102790006543C2F200031A7090F8B4000870FFE7B6
:1027A0000DF51C7D80BD00BF213A7F669EA0F63FDF
:1027B00000000000000000400000344380B582B0FB
:1027C00040F22440C2F20000B0F9020000EE100A0C
:1027D000B8EEC00A40F25410C2F200000190D0EDF1
:1027E000410A41F63000C2F2000007F033F90198C7
:1027F00080ED310A40F20C51C2F20001B1F9021031
:1028000000EE101AB8EEC00AD0ED420A42F21C00E7
:10281000C2F2000007F01EF9019880ED320A40F282
:10282000E441C2F20001B1F9021000EE101AB8EE54
:10283000C00AD0ED430A41F64470C2F2000007F02E
:1028400009F9019880ED330A40F2FC31C2F200012F
:10285000B1F9021000EE101AB8EEC00AD0ED440A29
:1028600041F25870C2F2000007F0F4F8019880EDD0
:10287000340A40F21041C2F20001B1F9021000EE38
:10288000101AB8EEC00A40F23401C2F20001009101
:1028900091ED001A80EE010AD0ED390A41F2A070E4
:1028A000C2F2000007F0D6F80099019880ED350AD1
:1028B00040F2F842C2F20002B2F9022000EE102A01
:1028C000B8EEC00A91ED001A80EE010AD0ED3A0A86
:1028D00041F68C70C2F2000007F0BCF80099019834
:1028E00080ED360A40F2D042C2F20002B2F9022074
:1028F00000EE102AB8EEC00A91ED001A80EE010A2F
:10290000D0ED3B0A41F6B460C2F2000007F0A2F835
:102910000099019880ED370A40F2E832C2F20002D5
:10292000B2F9022000EE102AB8EEC00A91ED001AAA
:1029300080EE010AD0ED3C0A41F2C860C2F200000C
:1029400007F088F8019880ED380A02B080BD0000D9
:1029500080B540F21041C2F2000108684A688B68F5
:10296000D1F80CC0D1F810E040F25411C2F20001CD
:10297000C1F860E0C1F85CC08B654A65086540F24B
:10298000F84EC2F2000EDEF80000DEF80420DEF899
:102990000830DEF80CC0DEF810E0C1F874E0C1F8D1
:1029A00070C0CB668A66486640F2D04EC2F2000E16
:1029B000DEF80000DEF80420DEF80830DEF80CC097
:1029C000DEF810E0C1F888E0C1F884C0C1F88030BA
:1029D000CA67886740F2E83EC2F2000EDEF80000E7
:1029E000DEF80420DEF80830DEF80CC0DEF810E077
:1029F000C1F89CE0C1F898C0C1F89430C1F89020AB
:102A0000C1F88C0040F2244EC2F2000EDEF8000045
:102A1000DEF80420DEF80830DEF80CC0DEF810E046
:102A2000C1F810E0C1F80CC08B604A60086040F249
:102A30000C5EC2F2000EDEF80000DEF80420DEF8C4
:102A40000830DEF80CC0DEF810E0C1F824E0C1F870
:102A500020C0CB618A61486140F2E44EC2F2000EB0
:102A6000DEF80000DEF80420DEF80830DEF80CC0E6
:102A7000DEF810E0C1F838E0C1F834C00B63CA6278
:102A8000886240F2FC3EC2F2000EDEF80000DEF882
:102A90000420DEF80830DEF80CC0DEF810E0C1F8E3
:102AA0004CE0C1F848C04B640A64C86380BD0000B4
:102AB00080B58CB041F63000C2F2000040F2B002A6
:102AC000C2F20002002107919FED900A8DED010AEC
:102AD000DFED8F0ACDED020A07F0E2F89DED010A65
:102AE000DDED020A079942F21C00C2F2000040F23A
:102AF000F802C2F2000207F0D3F89DED010ADDED05
:102B0000020A079941F64470C2F2000040F2D40272
:102B1000C2F2000207F0C4F89DED010ADDED020AE1
:102B2000079941F25870C2F2000040F28C02C2F2E2
:102B3000000207F0B5F8079941F2E870C2F2000010
:102B400040F2A402C2F200029FED720A8DED030A68
:102B5000DFED710ACDED040A07F0A2F89DED030A3E
:102B6000DDED040A079941F6D470C2F2000040F28C
:102B7000EC02C2F2000207F093F89DED030ADDEDCE
:102B8000040A079941F6FC60C2F2000040F2C80254
:102B9000C2F2000207F084F89DED030ADDED040A9D
:102BA000079941F21070C2F2000040F28002C2F2B6
:102BB000000207F075F8079941F2A070C2F2000018
:102BC00040F29802C2F200029FED540A8DED050A10
:102BD000DFED530ACDED060A07F062F89DED050A18
:102BE000DDED060A079941F68C70C2F2000040F252
:102BF000E002C2F2000207F053F89DED050ADDED98
:102C0000060A079941F6B460C2F2000040F2BC0225
:102C1000C2F2000207F044F89DED050ADDED060A58
:102C2000079941F2C860C2F2000040F27402C2F299
:102C3000000207F035F8079940F6DC60C2F20000A8
:102C400040F25C02C2F20002F7EE000ACDED080A83
:102C5000B0EE600A07F024F80799DDED080A40F6A7
:102C60009060C2F2000040F25002C2F20002B0EEE8
:102C7000000A07F015F840F66060C2F200009FED10
:102C8000290A8DED090ADFED280ACDED0B0A10F0B7
:102C900067FA9DED090ADDED0B0A40F65060C2F2BD
:102CA000000010F05DFADDED0B0A46F26C10C2F286
:102CB00000009FED1E0A8DED0A0A10F051FA9DEDFD
:102CC0000A0ADDED0B0A46F27C10C2F2000010F099
:102CD00047FA9DED0A0ADDED0B0A46F28C10C2F2AE
:102CE000000010F03DFA9DED0A0ADDED0B0A46F2F8
:102CF0009C10C2F2000010F033FA40F22C11C2F224
:102D00000001012088730CB080BD00BF0060EA465E
:102D100000401C46000096430000704200008046C0
:102D200000007A446F12033BCDCCCC3D6F12833A46
:102D300081B040F2AD40C2F2000040790138014656
:102D40000091312800F23C800099DFE801F0193948
:102D50003939393139393929393939393939392113
:102D600039393939393939393939393939393939D3
:102D700039393931393939293939393939393921F3
:102D800040F25411C2F20001002081F8B40018E0B2
:102D900040F25411C2F20001032081F8B40010E0A7
:102DA00040F25411C2F20001022081F8B40008E0A0
:102DB00040F25411C2F20001012081F8B40000E099
:102DC000FFE740F2AD40C2F20000407980060028E3
:102DD00008D5FFE740F25411C2F20001012081F84A
:102DE0001C0107E040F25411C2F20001002081F8FA
:102DF0001C01FFE701B0704770B588B09C4696464D
:102E00000C4605460F980E990D9A0C9BADF81E5076
:102E1000ADF81C40ADF81AE0ADF818C0ADF81630AA
:102E2000ADF81420ADF81210ADF8100040F6F451D2
:102E3000C2F20001019100208860C860082008618A
:102E40009DF81F3040F26742C2F20002104600F8BF
:102E5000083F02909DF81E0050729DF81D00907270
:102E60009DF81C00D0729DF81B0010739DF81A008D
:102E700050739DF8190090739DF81800D0739DF859
:102E8000170010709DF8160050709DF81500907096
:102E90009DF81400D0709DF8130010719DF8120079
:102EA00050719DF8110090719DF81000D0714FF491
:102EB0000070086040F69070C2F20000039042F289
:102EC0001813C2F2000301F0BDFB012010F0CAFC90
:102ED0000199029A039840F2FF130B6042F21C130F
:102EE000C2F2000301F0AEFB08B070BD40F28041B9
:102EF000C2F200010868013008604868013048608B
:102F0000886801308860C8680130C860086901308D
:102F10000861486901304861886901308861C86981
:102F20000130C861086A01300862704781B0002032
:102F30008DF80300FFE79DF80300072824DCFFE776
:102F40009DF8031040F28040C2F2000050F82100CA
:102F5000332809D3FFE79DF8032040F2A441C2F2D1
:102F600000010120885408E09DF8032040F2A441AC
:102F7000C2F2000100208854FFE7FFE79DF803003C
:102F800001308DF80300D6E740F28040C2F2000025
:102F9000006A332807D3FFE740F2A441C2F20001E0
:102FA0000120087206E040F2A441C2F200010020B4
:102FB0000872FFE701B0704780B541F23810C2F2E5
:102FC000000002F057FC80BD80B5E2B041F2DC2089
:102FD000C2F20000C06C006846F25941C4F202011E
:102FE0008842C0F0F380FFE746F20440C4F20200DA
:102FF0000068619041F2DC20C2F20000C06C006801
:1030000046F21001C4F20201884203D1FFE72020FA
:103010006090D6E041F2DC20C2F20000C06C006893
:1030200046F21041C4F20201884203D1FFE720209A
:103030005F90C3E041F2DC20C2F20000C06C006887
:1030400046F27001C4F20201884203D1FFE720205A
:103050005E90B0E041F2DC20C2F20000C06C00687B
:1030600046F27041C4F20201884203D1FFE72020FA
:103070005D909DE041F2DC20C2F20000C06C00686F
:1030800046F22801C4F20201884204D1FFE74FF45E
:1030900000605C9089E041F2DC20C2F20000C06C6C
:1030A000006846F22841C4F20201884204D1FFE7D9
:1030B0004FF400605B9075E041F2DC20C2F200004A
:1030C000C06C006846F28801C4F20201884204D153
:1030D000FFE74FF400605A9061E041F2DC20C2F259
:1030E0000000C06C006846F28841C4F202018842C8
:1030F00004D1FFE74FF4006059904DE041F2DC202D
:10310000C2F20000C06C006846F24001C4F2020145
:10311000884204D1FFE74FF40010589039E041F2A3
:10312000DC20C2F20000C06C006846F24041C4F2EC
:103130000201884204D1FFE74FF40010579025E0C8
:1031400041F2DC20C2F20000C06C006846F2A0012F
:10315000C4F20201884204D1FFE74FF400105690F8
:1031600011E041F2DC20C2F20000C06C016846F2BE
:10317000A042C4F202024FF00060914208BF4FF437
:1031800000105690FFE756985790FFE757985890D1
:10319000FFE758985990FFE759985A90FFE75A98D7
:1031A0005B90FFE75B985C90FFE75C985D90FFE7C2
:1031B0005D985E90FFE75E985F90FFE75F98609094
:1031C000FFE76198609908405590F7E241F2DC20F2
:1031D000C2F20000C06C006846F2B901C4F20201FC
:1031E0008842C0F0F380FFE746F20040C4F20200DC
:1031F0000068549041F2DC20C2F20000C06C00680C
:1032000046F21001C4F20201884203D1FFE72020F8
:103210005390D6E041F2DC20C2F20000C06C00689E
:1032200046F21041C4F20201884203D1FFE7202098
:103230005290C3E041F2DC20C2F20000C06C006892
:1032400046F27001C4F20201884203D1FFE7202058
:103250005190B0E041F2DC20C2F20000C06C006886
:1032600046F27041C4F20201884203D1FFE72020F8
:1032700050909DE041F2DC20C2F20000C06C00687A
:1032800046F22801C4F20201884204D1FFE74FF45C
:1032900000604F9089E041F2DC20C2F20000C06C77
:1032A000006846F22841C4F20201884204D1FFE7D7
:1032B0004FF400604E9075E041F2DC20C2F2000055
:1032C000C06C006846F28801C4F20201884204D151
:1032D000FFE74FF400604D9061E041F2DC20C2F264
:1032E0000000C06C006846F28841C4F202018842C6
:1032F00004D1FFE74FF400604C904DE041F2DC2038
:10330000C2F20000C06C006846F24001C4F2020143
:10331000884204D1FFE74FF400104B9039E041F2AE
:10332000DC20C2F20000C06C006846F24041C4F2EA
:103330000201884204D1FFE74FF400104A9025E0D3
:1033400041F2DC20C2F20000C06C006846F2A0012D
:10335000C4F20201884204D1FFE74FF40010499003
:1033600011E041F2DC20C2F20000C06C016846F2BC
:10337000A042C4F202024FF00060914208BF4FF435
:1033800000104990FFE749984A90FFE74A984B9010
:10339000FFE74B984C90FFE74C984D90FFE74D9816
:1033A0004E90FFE74E984F90FFE74F985090FFE701
:1033B00050985190FFE751985290FFE752985390E0
:1033C000FFE75498539908404890F4E141F2DC201B
:1033D000C2F20000C06C006846F25901C4F202015A
:1033E0008842C0F0F380FFE746F20400C4F2020016
:1033F0000068479041F2DC20C2F20000C06C006817
:1034000046F21001C4F20201884203D1FFE72020F6
:103410004690D6E041F2DC20C2F20000C06C0068A9
:1034200046F21041C4F20201884203D1FFE7202096
:103430004590C3E041F2DC20C2F20000C06C00689D
:1034400046F27001C4F20201884203D1FFE7202056
:103450004490B0E041F2DC20C2F20000C06C006891
:1034600046F27041C4F20201884203D1FFE72020F6
:1034700043909DE041F2DC20C2F20000C06C006885
:1034800046F22801C4F20201884204D1FFE74FF45A
:103490000060429089E041F2DC20C2F20000C06C82
:1034A000006846F22841C4F20201884204D1FFE7D5
:1034B0004FF40060419075E041F2DC20C2F2000060
:1034C000C06C006846F28801C4F20201884204D14F
:1034D000FFE74FF40060409061E041F2DC20C2F26F
:1034E0000000C06C006846F28841C4F202018842C4
:1034F00004D1FFE74FF400603F904DE041F2DC2043
:10350000C2F20000C06C006846F24001C4F2020141
:10351000884204D1FFE74FF400103E9039E041F2B9
:10352000DC20C2F20000C06C006846F24041C4F2E8
:103530000201884204D1FFE74FF400103D9025E0DE
:1035400041F2DC20C2F20000C06C006846F2A0012B
:10355000C4F20201884204D1FFE74FF400103C900E
:1035600011E041F2DC20C2F20000C06C016846F2BA
:10357000A042C4F202024FF00060914208BF4FF433
:1035800000103C90FFE73C983D90FFE73D983E904F
:10359000FFE73E983F90FFE73F984090FFE7409855
:1035A0004190FFE741984290FFE742984390FFE740
:1035B00043984490FFE744984590FFE7459846902C
:1035C000FFE74798469908403B90F1E046F200003B
:1035D000C4F2020000683A9041F2DC20C2F200001E
:1035E000C06C006846F21001C4F20201884203D1A7
:1035F000FFE720203990D6E041F2DC20C2F2000043
:10360000C06C006846F21041C4F20201884203D146
:10361000FFE720203890C3E041F2DC20C2F2000036
:10362000C06C006846F27001C4F20201884203D106
:10363000FFE720203790B0E041F2DC20C2F200002A
:10364000C06C006846F27041C4F20201884203D1A6
:10365000FFE7202036909DE041F2DC20C2F200001E
:10366000C06C006846F22801C4F20201884204D10D
:10367000FFE74FF40060359089E041F2DC20C2F2B0
:103680000000C06C006846F22841C4F20201884282
:1036900004D1FFE74FF40060349075E041F2DC2084
:1036A000C2F20000C06C006846F28801C4F2020158
:1036B000884204D1FFE74FF40060339061E041F2AB
:1036C000DC20C2F20000C06C006846F28841C4F2FF
:1036D0000201884204D1FFE74FF4006032904DE0D0
:1036E00041F2DC20C2F20000C06C006846F24001EA
:1036F000C4F20201884204D1FFE74FF40010319078
:1037000039E041F2DC20C2F20000C06C006846F2F1
:103710004041C4F20201884204D1FFE74FF4001097
:10372000309025E041F2DC20C2F20000C06C00685D
:1037300046F2A001C4F20201884204D1FFE74FF42F
:1037400000102F9011E041F2DC20C2F20000C06CAA
:10375000016846F2A042C4F202024FF000609142BA
:1037600008BF4FF400102F90FFE72F983090FFE72D
:1037700030983190FFE731983290FFE732983390DC
:10378000FFE733983490FFE734983590FFE735989A
:103790003690FFE736983790FFE737983890FFE785
:1037A00038983990FFE73A98399908403B90FFE7FD
:1037B0003B984890FFE748985590FFE755980028B8
:1037C00000F06984FFE741F2DC20C2F20000C06C27
:1037D000006846F25941C4F202018842C0F0EF800D
:1037E000FFE741F2DC20C2F20000C06C006846F244
:1037F0001001C4F20201884203D1FFE720202E907D
:10380000D6E041F2DC20C2F20000C06C006846F253
:103810001041C4F20201884203D1FFE720202D901D
:10382000C3E041F2DC20C2F20000C06C006846F246
:103830007001C4F20201884203D1FFE720202C90DE
:10384000B0E041F2DC20C2F20000C06C006846F239
:103850007041C4F20201884203D1FFE720202B907F
:103860009DE041F2DC20C2F20000C06C006846F22C
:103870002801C4F20201884204D1FFE74FF400603E
:103880002A9089E041F2DC20C2F20000C06C00689E
:1038900046F22841C4F20201884204D1FFE74FF406
:1038A0000060299075E041F2DC20C2F20000C06C9B
:1038B000006846F28801C4F20201884204D1FFE7A1
:1038C0004FF40060289061E041F2DC20C2F2000079
:1038D000C06C006846F28841C4F20201884204D1FB
:1038E000FFE74FF4006027904DE041F2DC20C2F288
:1038F0000000C06C006846F24001C4F20201884238
:1039000004D1FFE74FF40010269039E041F2DC20AB
:10391000C2F20000C06C006846F24041C4F20201ED
:10392000884204D1FFE74FF40010259025E041F2D2
:10393000DC20C2F20000C06C006846F2A001C4F2B4
:103940000201884204D1FFE74FF40010249011E0F7
:1039500041F2DC20C2F20000C06C016846F2A042D5
:10396000C4F202024FF00060914208BF4FF4001011
:103970002490FFE724982590FFE725982690FFE7FD
:1039800026982790FFE727982890FFE72898299006
:10399000FFE729982A90FFE72A982B90FFE72B98BA
:1039A0002C90FFE72C982D90FFE72D982E90FFE7A5
:1039B0002E9846F20C41C4F202010860EDE241F299
:1039C000DC20C2F20000C06C006846F2B901C4F20B
:1039D00002018842C0F0F080FFE741F2DC20C2F231
:1039E0000000C06C006846F21001C4F20201884277
:1039F00003D1FFE720202390D6E041F2DC20C2F281
:103A00000000C06C006846F21041C4F20201884216
:103A100003D1FFE720202290C3E041F2DC20C2F274
:103A20000000C06C006846F27001C4F202018842D6
:103A300003D1FFE720202190B0E041F2DC20C2F268
:103A40000000C06C006846F27041C4F20201884276
:103A500003D1FFE7202020909DE041F2DC20C2F25C
:103A60000000C06C006846F22801C4F202018842DE
:103A700004D1FFE74FF400601F9089E041F2DC20A1
:103A8000C2F20000C06C006846F22841C4F2020194
:103A9000884204D1FFE74FF400601E9075E041F2C8
:103AA000DC20C2F20000C06C006846F28801C4F25B
:103AB0000201884204D1FFE74FF400601D9061E0ED
:103AC00041F2DC20C2F20000C06C006846F288417E
:103AD000C4F20201884204D1FFE74FF400601C9059
:103AE0004DE041F2DC20C2F20000C06C006846F2FA
:103AF0004001C4F20201884204D1FFE74FF40010F4
:103B00001B9039E041F2DC20C2F20000C06C00687A
:103B100046F24041C4F20201884204D1FFE74FF46B
:103B200000101A9025E041F2DC20C2F20000C06CC7
:103B3000006846F2A001C4F20201884204D1FFE706
:103B40004FF40010199011E041F2DC20C2F20000A5
:103B5000C06C016846F2A042C4F202024FF000605D
:103B6000914208BF4FF400101990FFE719981A907E
:103B7000FFE71A981B90FFE71B981C90FFE71C9823
:103B80001D90FFE71D981E90FFE71E981F90FFE70E
:103B90001F982090FFE720982190FFE7219822901E
:103BA000FFE722982390FFE7239846F20841C4F2EA
:103BB000020108601890EEE141F2DC20C2F2000040
:103BC000C06C006846F25901C4F202018842C0F09C
:103BD000F080FFE741F2DC20C2F20000C06C006818
:103BE00046F21001C4F20201884203D1FFE720200F
:103BF0001790D6E041F2DC20C2F20000C06C0068F1
:103C000046F21041C4F20201884203D1FFE72020AE
:103C10001690C3E041F2DC20C2F20000C06C0068E4
:103C200046F27001C4F20201884203D1FFE720206E
:103C30001590B0E041F2DC20C2F20000C06C0068D8
:103C400046F27041C4F20201884203D1FFE720200E
:103C500014909DE041F2DC20C2F20000C06C0068CC
:103C600046F22801C4F20201884204D1FFE74FF472
:103C70000060139089E041F2DC20C2F20000C06CC9
:103C8000006846F22841C4F20201884204D1FFE7ED
:103C90004FF40060129075E041F2DC20C2F20000A7
:103CA000C06C006846F28801C4F20201884204D167
:103CB000FFE74FF40060119061E041F2DC20C2F2B6
:103CC0000000C06C006846F28841C4F202018842DC
:103CD00004D1FFE74FF4006010904DE041F2DC208A
:103CE000C2F20000C06C006846F24001C4F202015A
:103CF000884204D1FFE74FF400100F9039E041F201
:103D0000DC20C2F20000C06C006846F24041C4F200
:103D10000201884204D1FFE74FF400100E9025E025
:103D200041F2DC20C2F20000C06C006846F2A00143
:103D3000C4F20201884204D1FFE74FF400100D9055
:103D400011E041F2DC20C2F20000C06C016846F2D2
:103D5000A042C4F202024FF00060914208BF4FF44B
:103D600000100D90FFE70D980E90FFE70E980F9052
:103D7000FFE70F981090FFE710981190FFE7119858
:103D80001290FFE712981390FFE713981490FFE743
:103D900014981590FFE715981690FFE7169817905E
:103DA000FFE7179846F20C01C4F2020108600C907C
:103DB000EEE041F2DC20C2F20000C06C006846F286
:103DC0001001C4F20201884203D1FFE720200B90CA
:103DD000D6E041F2DC20C2F20000C06C006846F27E
:103DE0001041C4F20201884203D1FFE720200A906B
:103DF000C3E041F2DC20C2F20000C06C006846F271
:103E00007001C4F20201884203D1FFE7202009902B
:103E1000B0E041F2DC20C2F20000C06C006846F263
:103E20007041C4F20201884203D1FFE720200890CC
:103E30009DE041F2DC20C2F20000C06C006846F256
:103E40002801C4F20201884204D1FFE74FF4006068
:103E5000079089E041F2DC20C2F20000C06C0068EB
:103E600046F22841C4F20201884204D1FFE74FF430
:103E70000060069075E041F2DC20C2F20000C06CE8
:103E8000006846F28801C4F20201884204D1FFE7CB
:103E90004FF40060059061E041F2DC20C2F20000C6
:103EA000C06C006846F28841C4F20201884204D125
:103EB000FFE74FF4006004904DE041F2DC20C2F2D5
:103EC0000000C06C006846F24001C4F20201884262
:103ED00004D1FFE74FF40010039039E041F2DC20F9
:103EE000C2F20000C06C006846F24041C4F2020118
:103EF000884204D1FFE74FF40010029025E041F220
:103F0000DC20C2F20000C06C006846F2A001C4F2DE
:103F10000201884204D1FFE74FF40010019011E044
:103F200041F2DC20C2F20000C06C016846F2A042FF
:103F3000C4F202024FF00060914208BF4FF400103B
:103F40000190FFE701980290FFE702980390FFE7D6
:103F500003980490FFE704980590FFE70598069002
:103F6000FFE706980790FFE707980890FFE7089893
:103F70000990FFE709980A90FFE70A980B90FFE77E
:103F80000B9846F20801C4F2020108600C90FFE7AA
:103F90000C981890FFE71898FFE740F66770C2F298
:103FA000000000788007002821D5FFE740F6677100
:103FB000C2F20001087800F0FD00087040F20040F5
:103FC000C4F202000122114602F0F6F840F65F70DA
:103FD000C2F20000013040F69451C2F200011431E7
:103FE00040F2C022C2F20002FCF754FDFFE740F6A7
:103FF0008E50C2F200000078800700281DD5FFE730
:1040000040F68E51C2F20001087800F0FD00087001
:104010000020C4F202001021012202F0CDF840F687
:104020008050C2F20000023040F69452C2F2000208
:10403000111D2032FCF7D2FCFFE740F68D50C2F292
:10404000000000788007002822D5FFE740F68D5158
:10405000C2F20001087800F0FD0008700020C4F2F0
:1040600002001021012202F0A7F840F68950C2F2A6
:104070000000023040F69451C2F20001009110316C
:10408000FCF77EFD009890ED040A0FF0F7F9FFE7CA
:104090000FF0D0F8FFE762B080BD000080B541F2BC
:1040A0009810C2F2000001F0E5FB80BD80B541F23E
:1040B0007800C2F2000001F0DDFB80BD80B541F266
:1040C0001800C2F2000001F0D5FB80BD80B541F2BE
:1040D000F810C2F2000001F0CDFB80BD80B541F2C6
:1040E000D800C2F2000001F0C5FB80BD82B0019093
:1040F0000198007810384AF6AB21CAF6AA21A0FB35
:10410000011000090090009946F6DC50C0F601004D
:10411000405C0199C8650098042807D3FFE701991E
:104120000868042262F30900886506E001990868BE
:1041300040F2FF3290438865FFE70198806D02B03E
:104140007047000086B0059000208DF81300059898
:10415000806A03900598806910BBFFE7039802907E
:1041600003281BD80299DFE801F0020D0218059818
:1041700090F82F00C00720B1FFE701208DF8130051
:10418000FFE70CE00598C06AB0F1C07F04D1FFE7FB
:1041900001208DF81300FFE701E000E0FFE745E0B4
:1041A00005988069B0F5005F25D1FFE7039801907D
:1041B00003281ED80199DFE801F002060211012050
:1041C0008DF8130016E0059890F82F00C00720B175
:1041D000FFE701208DF81300FFE70BE00598C06AA8
:1041E000B0F1C07F04D1FFE701208DF81300FFE795
:1041F00000E0FFE719E003980090032804D3FFE7ED
:104200000098032804D00EE001208DF813000BE085
:10421000059890F82F00C00720B1FFE701208DF826
:104220001300FFE700E0FFE7FFE7FFE79DF813005B
:1042300006B070477047000081B00090009940F2CE
:10424000A442C2F20002107A0872106852684A60F2
:10425000086001B07047000080B5102001F0B4FD87
:1042600080BD000080B5202001F0AEFD80BD0000C3
:1042700080B584B0039002918DF8072000208DF85E
:104280000600039804F034FB08B1FFE737E0039819
:10429000D0F80D02B0F5FD7F01D9FFE72FE0FFE771
:1042A0009DF806009DF80710884228DAFFE7039979
:1042B000D1F80902431C4CF21160C1F6B07053FBF7
:1042C00000F2901100EBD27040F2052200FB123098
:1042D000C1F8090202989DF80610405C0399D1F8D4
:1042E000092288540399D1F80D020130C1F80D025A
:1042F000FFE79DF8060001308DF80600D0E704B016
:1043000080BD000081B0EFF3108072B60090FFE72F
:10431000FEE7000082B08DED000A9DED000AB5EECB
:10432000400AF1EE10FA07DAFFE79DED000AB1EE60
:10433000400A8DED010A02E000980190FFE79DED33
:10434000010A02B07047000087B0DDF830C0DDF828
:104350002CC0DDF828C0DDF824C0DDF820C0DDF871
:104360001CC006900591049203938DED020A002073
:104370000190FFE7019900200229009008DCFFE787
:1043800005980199405C002818BF01200090FFE7C4
:104390000098C00758B1FFE70598019A805C06991C
:1043A000891A8870FFE7019801300190E2E70699C9
:1043B000D1F80300D1F80720052363F3C500C1F845
:1043C0000720C1F803000699049BD1F80300D1F837
:1043D000072063F30200C1F80720C1F80300069923
:1043E000039BD1F80300D1F8072003F00F0320F45A
:1043F000707040EA8310C1F80720C1F803000699E5
:10440000079BD1F80300D1F8072003F00F0320F435
:10441000705040EA8320C1F80720C1F803000699D4
:104420000A9BD1F80320D1F8070063F30900C1F813
:104430000320C1F8070006990B9BD1F80320D1F89F
:1044400007006FF3DF236FF3942040EA8320C1F865
:104450000320C1F8070006990C9BD1F80320D1F87E
:1044600007006FF35F5040EA4350C1F80320C1F8E2
:1044700007000699089BD1F80300D1F807206FF3D5
:104480005F236FF3963040EA8330C1F80720C1F80C
:1044900003000699099BD1F80300D1F807206FF3B8
:1044A000DF5040EAC350C1F80720C1F803009DED7A
:1044B000020ABDEEC00A10EE100A0699C1F80B0000
:1044C00007B0704784B002900191ADF802200298C5
:1044D00028B9FFE74FF6FF70ADF80E0021E0FFE7C7
:1044E0000198411E0191B8B1FFE70298411C029169
:1044F00000788DF80100BDF802109DF801004840D9
:10450000C2B246F6AC60C0F6010030F8120080EA94
:104510001120ADF80200E3E7BDF80200ADF80E008F
:10452000FFE7BDF80E0004B07047000083B00290B2
:1045300001918DF80320FFE70198411E019198B188
:10454000FFE79DF8030002994A1C0292097848404F
:104550008DF802009DF8021046F6DC30C0F601002E
:10456000405C8DF80300E7E79DF8030003B0704757
:1045700081B0009040F2B420C2F2000090ED020A37
:104580009FED192A80EE020A9FED181A20EE010A0B
:10459000009981ED020A90ED010A80EE020A20EEF8
:1045A000010A009981ED010A90ED000A80EE020AED
:1045B00020EE010A009880ED000A40F2C020C2F20D
:1045C000000090ED020AB1EE400A009981ED050A63
:1045D00090ED000AB1EE400A009981ED040A4068AE
:1045E0000099C86001B07047DB0F494000003443B8
:1045F00084B002900191029890F820008DF8030099
:104600009DF80300012805D0FFE79DF8030002286C
:104610000AD1FFE7019A029801684869104348618E
:1046200000208DF80F0008E00299486A40F48020CD
:10463000486201208DF80F00FFE79DF80F0004B0DD
:104640007047000088B00690059104920393069885
:1046500090F820008DF807000698006880680090A8
:104660000598806808B9FFE700E0FFE79DF80700BC
:10467000012806D0FFE79DF80700022840F08D8052
:10468000FFE79DF80300400700280CD4FFE79DF8E2
:1046900003000007002806D4FFE79DF80300C006CA
:1046A000002871D5FFE70098C0F3016002900298DE
:1046B000032809D3FFE70699486A40F400004862DE
:1046C00001208DF81F0071E00299012088400399B4
:1046D00008600598806868B9FFE705980168C068B8
:1046E00040EA415006990968029A01EB0211C1F8AB
:1046F00080010EE005994A688868C96840EAC200EE
:10470000084306990968029A01EB0211C1F8800179
:10471000FFE70598006906990968029A01EB021102
:10472000C1F884010598007D01280CD1FFE70698A7
:104730000068029900EB0111D1F8840140F4807007
:10474000C1F88401FFE70498406806990968029A55
:1047500001EB0211C1F88C01049800680699096800
:10476000029A01EB0211C1F88801069800680299CB
:1047700000EB0111D1F8800140F00100C1F8800187
:1047800000208DF81F0011E00699486A40F40010DF
:10479000486201208DF81F0008E00699486A40F43D
:1047A0008020486201208DF81F00FFE79DF81F0060
:1047B00008B0704786B00490039104980068019097
:1047C000049890F820008DF803009DF8030001285C
:1047D00006D0FFE79DF80300022840F0B080FFE715
:1047E00046F20040C4F2000001900199D1F80002A5
:1047F00040F00100C1F800020199D1F8000220F454
:104800007C50C1F800020398426A0199D1F8000275
:1048100040EA0220C1F800020398406900F01F013D
:10482000012088400290029A0199D1F81C0290431D
:10483000C1F81C020398C069F0B9FFE7029A019918
:10484000D1F80C029043C1F80C02039A9088D16809
:10485000526940EA0140019901EBC201C1F84002EE
:10486000039A10889168526940EA0140019901EB6E
:10487000C201C1F84402FFE70398C06901281ED1B4
:10488000FFE7029A0199D1F80C021043C1F80C021B
:10489000039A90881168526940EA0140019901EB3E
:1048A000C201C1F84002039A90899168526940EAB6
:1048B0000140019901EBC201C1F84402FFE70398EE
:1048C000806940B9FFE7029A0199D1F80402904348
:1048D000C1F8040207E0029A0199D1F804021043DA
:1048E000C1F80402FFE70398006940B9FFE7029AA4
:1048F0000199D1F814029043C1F8140207E0029A1A
:104900000199D1F814021043C1F81402FFE703988B
:10491000006A012808D1FFE7029A0199D1F81C0228
:104920001043C1F81C02FFE70199D1F8000220F002
:104930000100C1F8000200208DF8170008E004997A
:10494000486A40F48020486201208DF81700FFE794
:104950009DF8170006B0704781B0009001B0704715
:1049600086B00490039102920193049890F820007D
:104970008DF803009DF80300012806D0FFE79DF89D
:104980000300022840F0D780FFE7039880B9FFE7D3
:1049900004980068C068800748B9FFE70499486A2E
:1049A00040F40010486201208DF81700CCE00FE0C1
:1049B000049800680069800748B9FFE70499486ACD
:1049C00040F40010486201208DF81700BCE0FFE7BA
:1049D00004980068039900EB0110D0F8B00100F0D2
:1049E0000400029988600298806858B9FFE704982B
:1049F0000068039900EB0110D0F8B001400D029956
:104A000008600AE004980068039900EB0110D0F8F0
:104A1000B001C00802994860FFE704980068039954
:104A200000EB0110D0F8B00100F002000299C8605C
:104A300004980068039900EB0110D0F8B40100F06D
:104A40000F000299086104980068039900EB0110B7
:104A5000D0F8B40180B2000A029988610498006815
:104A6000039900EB0110D0F8B401000C02994861E1
:104A700004980068039900EB0110D0F8B80101997F
:104A8000087004980068039900EB0110D0F8B80191
:104A9000000A0199487004980068039900EB01101E
:104AA000D0F8B801000C0199887004980068039947
:104AB00000EB0110D0F8B801000E0199C8700498FD
:104AC0000068039900EB0110D0F8BC01019908714E
:104AD00004980068039900EB0110D0F8BC01000AAB
:104AE0000199487104980068039900EB0110D0F80F
:104AF000BC01000C0199887104980068039900EBCF
:104B00000110D0F8BC01000E0199C871039838B9A2
:104B1000FFE704980168C86840F02000C86006E01C
:104B200004980168086940F020000861FFE7002050
:104B30008DF8170008E00499486A40F48020486224
:104B400001208DF81700FFE79DF8170006B07047A9
:104B500080B58AB0099000200890099800684069E3
:104B60000790099800684068069009980068806876
:104B7000059009980068C068049009980068006969
:104B8000039009980068806902909DF81C00C00796
:104B9000002800F09480FFE79DF81400C00758B388
:104BA000FFE709980168012088609DF814008007DC
:104BB000002804D5FFE7099800F0ACFD1BE09DF844
:104BC00014004007002805D5FFE7089840F400606E
:104BD00008900FE09DF814000007002805D5FFE7B6
:104BE000089840F48050089003E0099800F08EFD8A
:104BF000FFE7FFE7FFE7FFE79DF81500C00760B399
:104C0000FFE7099801684FF4807088609DF81500EF
:104C10008007002804D5FFE7099800F083FD1BE01A
:104C20009DF815004007002805D5FFE7089840F4D7
:104C3000005008900FE09DF815000007002805D5EA
:104C4000FFE7089840F48040089003E0099800F0DE
:104C500065FDFFE7FFE7FFE7FFE79DF81600C007E8
:104C600060B3FFE7099801684FF4803088609DF8D1
:104C700016008007002804D5FFE7099800F05AFDC8
:104C80001BE09DF816004007002805D5FFE70898AF
:104C900040F4004008900FE09DF81600000700283F
:104CA00005D5FFE7089840F48030089003E00998A4
:104CB00000F03CFDFFE7FFE7FFE7FFE7FFE79DF8B8
:104CC0001C000007002810D5FFE79DF81000C00663
:104CD000002809D5FFE7089840F40070089009986B
:104CE00001681020C860FFE7FFE79DF81C0040073F
:104CF00000280FD5FFE79DF810000007002808D511
:104D0000FFE7099801680820C860099800F0CCFA0C
:104D1000FFE7FFE79DF81C00800700280BD5FFE7A1
:104D200009980068C068800720B1FFE7099800F083
:104D3000BFFAFFE7FFE79DF81C004006002810D5EA
:104D4000FFE79DF80C00C006002809D5FFE708988A
:104D500040F4806008900998016810200861FFE71E
:104D6000FFE79DF81C00800600280FD5FFE79DF89F
:104D70000C000007002808D5FFE709980168082003
:104D80000861099800F070FCFFE7FFE79DF81C0040
:104D9000C00600280BD5FFE7099800680069800766
:104DA00020B1FFE7099800F063FCFFE7FFE79DF8FB
:104DB0001E00800700280FD5FFE79DF81800C006E9
:104DC000002808D5FFE70998016810204860099875
:104DD00000F052FCFFE7FFE79DF81E00C00778B126
:104DE000FFE79DF818000007002808D5FFE709989D
:104DF000016808204860099800F0A0FCFFE7FFE781
:104E00009DF81D000006002840F18D80FFE79DF809
:104E100018004007002840F18180FFE79DF81D0041
:104E2000C00750B1FFE79DF80800C00728B1FFE7B1
:104E3000089840F001000890FFE79DF81D008007EA
:104E400000280BD5FFE79DF808008007002805D54E
:104E5000FFE7089840F002000890FFE79DF81D006A
:104E6000400700280BD5FFE79DF808004007002801
:104E700005D5FFE7089840F004000890FFE79DF88B
:104E80001D000007002848D5FFE79DF8080010F036
:104E9000700F42D0FFE7029800F0700001460191C8
:104EA000102814D0FFE70198202815D0FFE70198BB
:104EB000302816D0FFE70198402817D0FFE7019867
:104EC000502818D0FFE70198602819D01DE00898F5
:104ED00040F00800089019E0089840F01000089091
:104EE00014E0089840F0200008900FE0089840F087
:104EF000400008900AE0089840F08000089005E023
:104F0000089840F48070089000E0FFE70998016875
:104F1000886920F070008861FFE7FFE70998016861
:104F200004204860FFE7089848B1FFE7089A09990C
:104F3000486A104348620998FFF70EFDFFE70AB080
:104F400080BD000080B584B00290029820B9FFE7D0
:104F500001208DF80F00E0E0029890F8200020B9C1
:104F6000FFE7029800F0DEF8FFE7029801680868A2
:104F700040F00100086001F037F90190FFE7029866
:104F800000684068C007A8B9FFE701F02DF9019952
:104F9000401A0B280DD3FFE70299486A40F400300D
:104FA00048620299052081F8200001208DF80F0049
:104FB000B3E0E4E702980168086820F002000860A6
:104FC00001F012F90190FFE702980068406880073D
:104FD000002815D5FFE701F007F90199401A0B28C1
:104FE0000DD3FFE70299486A40F400304862029905
:104FF000052081F8200001208DF80F008DE0E3E707
:105000000298007E012807D1FFE70298016808682E
:1050100040F08000086006E002980168086820F00F
:1050200080000860FFE70298407E012807D1FFE773
:1050300002980168086840F04000086006E00298A5
:105040000168086820F040000860FFE70298807E51
:10505000012807D1FFE702980168086840F02000A6
:10506000086006E002980168086820F020000860E7
:10507000FFE70298C07E012807D1FFE70298016888
:10508000086820F01000086006E0029801680868CF
:1050900040F010000860FFE70298007F012807D168
:1050A000FFE702980168086840F00800086006E021
:1050B00002980168086820F008000860FFE702987D
:1050C000407F012807D1FFE702980168086840F097
:1050D0000400086006E002980168086820F00400F7
:1050E0000860FFE7029B19685A689868D3F80CC0FB
:1050F00040EA0C00D3F810C040EA0C005B6918438A
:10510000013A1043C861029900204862029A0121C5
:1051100082F820108DF80F00FFE79DF80F0004B013
:1051200080BD000080B590B00F9000200E900D90D3
:105130000C900B900A900F98006846F20041C4F260
:105140000001884249D1FFE740F2B020C2F20000DE
:105150000168013101600068012812D1FFE7FFE713
:105160000020099043F64000C4F20200016841F0BB
:1051700000710160006800F0007009900998FFE775
:10518000FFE7FFE70020089043F63000C4F202007A
:10519000016841F008010160006800F00800089013
:1051A0000898FFE703200A9002210B910021039148
:1051B0000C910D9009200E9040F60040C4F20200C0
:1051C0000AA900F01DFE039A14200490052101F0A5
:1051D000E9F8049801F0DCF864E00F98006846F6FE
:1051E0000001C4F2000188425BD1FFE7FFE7002025
:1051F000079043F64000C4F20200016841F080616C
:105200000160006800F0806007900798FFE740F2B7
:10521000B020C2F20000016801310160006801287D
:1052200012D1FFE7FFE70020069043F64000C4F2EA
:105230000200016841F000710160006800F0007038
:1052400006900698FFE7FFE7FFE70020059043F68A
:105250003000C4F20200016841F002010160006800
:1052600000F0020005900598FFE760200A900220F8
:105270000B90002001900C9003200D9009200E90BF
:1052800040F20040C4F202000AA900F0B9FD019A00
:1052900040200290052101F085F8029801F078F88D
:1052A000FFE7FFE710B080BD81B0009001B070470C
:1052B00080B58AB00990099842F2B002C2F20002A9
:1052C00042F2A803C2F200030021FFF749FB09984C
:1052D000006846F60001C4F20001884240F0E68012
:1052E000FFE742F2B000C2F200000068A0F2012025
:1052F00001460791072800F2D7800799DFE801F0FF
:105300006C86A0BA041E385240F28041C2F20001FD
:105310000020086040F28021C2F2000108680130DC
:10532000086042F2B000C2F200000068099942F23F
:10533000A802C2F2000204F065F9B6E040F2804132
:10534000C2F200010020486040F28021C2F2000158
:1053500048680130486042F2B000C2F200000068C4
:10536000099942F2A802C2F2000204F04BF99CE053
:1053700040F28041C2F200010020886040F28021AA
:10538000C2F2000188680130886042F2B000C2F2C7
:1053900000000068099942F2A802C2F2000204F07B
:1053A00031F982E040F28041C2F200010020C86081
:1053B00040F28021C2F20001C8680130C86042F2A8
:1053C000B000C2F200000068099942F2A802C2F2DD
:1053D000000204F017F968E040F28041C2F20001D7
:1053E0000020086140F28021C2F20001086901300A
:1053F000086142F2B000C2F200000068099942F26E
:10540000A802C2F2000204F0FDF84EE040F2804132
:10541000C2F200010020486140F28021C2F2000186
:1054200048690130486142F2B000C2F200000068F1
:10543000099942F2A802C2F2000204F0E3F834E053
:1054400040F28041C2F200010020886140F28021D8
:10545000C2F2000188690130886142F2B000C2F2F4
:1054600000000068099942F2A802C2F2000204F0AA
:10547000C9F81AE040F28041C2F200010020C86180
:1054800040F28021C2F20001C8690130C86142F2D5
:10549000B000C2F200000068099942F2A802C2F20C
:1054A000000204F0AFF800E0FFE7D1E009980068DF
:1054B00046F20041C4F20001884240F0C880FFE794
:1054C00042F2B000C2F2000000680690102862D0DC
:1054D000FFE70698302874D0FFE70698B0F5837F81
:1054E0004DD0FFE7069840F20711884252D0FFE7FF
:1054F000069840F21111884262D0FFE7069840F208
:105500000521884240F0A180FFE740F66C50C2F2CE
:10551000000005900188018142F2A801C2F2000159
:105520000B784A7842EA032202808B78CA7842EAF2
:10553000032242800B794A7942EA032282808979E8
:105540008171018800EE101AB8EEC00A9FED431A6F
:1055500080EE010A9FED421A20EE010A9FED412ADA
:1055600030EE020A80ED030AB0F9021000EE101AC4
:10557000B8EEC00A20EE010A80ED040A66E042F2AD
:10558000A800C2F20000008840F21011C2F200012F
:1055900008805BE05AE040F28041C2F20001002046
:1055A000086242F2A801C2F200010868D1F80320A3
:1055B00040F2AD41C2F20001C1F80320086045E0AD
:1055C00044E040F62861C2F200010020088042F267
:1055D000A800C2F2000003908278C17841EA02215B
:1055E000ADF822100178407840EA0120ADF82000A3
:1055F000BDF922004FF4FA41009148F20032CFF693
:10560000FF7201929FED130ADFED130ACDED020A3E
:105610000EF014F80099019ADDED020A40F22C1008
:10562000C2F20000049080ED010ABDF92000B3EE43
:105630000E0A0EF003F80398049981ED000A02792E
:10564000407940EA0220088100E0FFE7FFE7FFE73A
:105650000AB080BD0000FA430000000000F8FF45DA
:105660000000B443000034C381B0009001B0704723
:1056700081B0009001B0704781B0009001B07047D8
:1056800080B584B00290029890F8200001282FD1B4
:10569000FFE70299022081F820000298016808685B
:1056A00020F00100086000F09FFD0190FFE70298E4
:1056B00000684068C007A8B1FFE700F095FD0199B8
:1056C000401A0B280DD3FFE70299486A40F40030D6
:1056D00048620299052081F8200001208DF80F0012
:1056E0000FE0E4E70299002048628DF80F0008E01F
:1056F0000299486A40F40020486201208DF80F00AA
:10570000FFE79DF80F0004B080BD000081B000905D
:1057100001B0704781B0009001B0704781B0009037
:1057200001B0704781B0009001B0704781B0009027
:1057300001B0704781B0009001B0704781B0009017
:1057400001B0704780B584B002900298806D0190DE
:1057500000F04AFD0090029890F8350002280DD024
:10576000FFE7029980204865FFE70299002081F851
:105770003400FFE701208DF80F0055E00298016822
:10578000086820F01600086002980168486920F057
:10579000800048610298006C20B9FFE70298806C95
:1057A00038B1FFE702980168086820F00800086037
:1057B000FFE702980168086820F001000860FFE731
:1057C000029800680068C007C8B1FFE700F00CFD50
:1057D0000099401A062811D3FFE702992020486556
:1057E0000299032081F83500FFE70299002081F833
:1057F0003400FFE703208DF80F0015E0E0E7029882
:10580000C16D3F208840019988600299012081F88C
:105810003500FFE70299002081F83400FFE7FFE739
:1058200000208DF80F00FFE79DF80F0004B080BD49
:1058300082B00090009890F83500022807D0FFE76A
:1058400000998020486501208DF807000EE000993E
:10585000052081F8350000980168086820F00100F3
:105860000860FFE700208DF80700FFE79DF80700BC
:1058700002B0704780B586B005900020039040F2DA
:105880003C00C2F20000006848F2B511C1F64E318A
:10589000A0FB0110800A02900598806D019001988C
:1058A0000068049004980599C96DC8400007002855
:1058B0001AD5FFE70598006800684007002812D550
:1058C000FFE705980168086820F004000860059863
:1058D000C16D08208840019988600599486D40F0A5
:1058E00001004865FFE7FFE704980599C96DC840C6
:1058F000C007A0B1FFE705980068406900060028CE
:105900000CD5FFE70598C16D01208840019988609A
:105910000599486D40F002004865FFE7FFE70498ED
:105920000599C96DC8404007002814D5FFE70598C0
:1059300000680068800700280CD5FFE70598C16D56
:1059400004208840019988600599486D40F0040062
:105950004865FFE7FFE704980599C96DC840C00690
:10596000002847D5FFE70598006800680007002871
:105970003FD5FFE70598C16D1020884001998860E8
:10598000059800680068400300281AD5FFE70598CD
:10599000006800680003002809D4FFE70598006C40
:1059A00020B1FFE70598016C8847FFE708E00598FC
:1059B000806C20B1FFE70598816C8847FFE7FFE71F
:1059C00016E0059800680068C005002807D4FFE7C6
:1059D00005980168086820F008000860FFE705984E
:1059E000006C20B1FFE70598016C8847FFE7FFE7EF
:1059F000FFE7FFE704980599C96DC84080060028B5
:105A000040F18D80FFE7059800680068C006002817
:105A100040F18480FFE70598C16D202088400199FE
:105A20008860059890F83500052834D1FFE705987F
:105A30000168086820F01600086005980168486948
:105A400020F0800048610598006C20B9FFE70598B8
:105A5000806C38B1FFE705980168086820F00800FD
:105A60000860FFE70598C16D3F2088400199886074
:105A70000599012081F83500FFE70599002081F89C
:105A80003400FFE70598006D20B1FFE70598016D30
:105A90008847FFE77BE0059800680068400300281E
:105AA0001AD5FFE70598006800680003002809D4AC
:105AB000FFE70598406C20B1FFE70598416C8847E7
:105AC000FFE708E00598C06B20B1FFE70598C16BC0
:105AD0008847FFE7FFE720E0059800680068C005F9
